S01100002E2E2F50726F746575732E73313966
S32D0000C000000000205DC2000011C3000017C300001DC3000023C3000029C3000000000000000000000000000073
S32D0000C028000000002FC3000035C30000000000003BC3000041C30000DDED0000E9ED0000F5ED000001EE00008D
S32D0000C0500DEE000019EE000025EE000031EE00003DEE000049EE000055EE000061EE00006DEE000079EE0000D8
S32D0000C07885EE000091EE00009DEE0000A9EE0000B5EE0000C1EE0000CDEE0000D9EE0000E5EE0000F1EE000000
S32D0000C0A0FDEE000009EF000015EF000021EF00002DEF000039EF000045EF000051EF00005DEF000069EF00001F
S32D0000C0C875EF000081EF00008DEF000099EF0000A5EF0000B1EF0000BDEF0000C9EF0000D5EF0000E1EF000046
S32D0000C0F0EDEF0000BD6E0100F9EF000005F0000011F000001DF0000029F0000035F0000041F000004DF0000083
S32D0000C11859F0000065F0000071F000007DF0000089F0000095F00000A1F00000ADF00000B9F00000C5F0000003
S32D0000C140D1F00000DDF00000E9F00000F5F00000A142010001F100000DF1000019F1000025F1000031F100006F
S32D0000C1683DF1000049F1000055F1000061F100006DF1000079F1000085F1000091F100009DF10000A9F10000C1
S32D0000C190B5F10000C1F10000CDF10000DD3E0100A53D0100413E010061EB00007D3F0100D9F10000E5F1000043
S32D0000C1B8F1F10000A0B4020000000020D8160000A0B402000000FF1F00000000D8160020FC0600000000FF1F71
S32D0000C1E00000000080B489B000AFF860B9607A60BB68FB61FB68BB6100237B617A697B689A420BD2BA69131DFB
S32D0000C208BB61FB69191DF96112681A607B6904337B61EFE700BF2437BD4680BC704780B485B000AF786039609E
S32D0000C2307B68FB600023BB60BA683B689A4208D2FB681A1DFA6000221A60BB680433BB60F2E700BF1437BD46FE
S32D0000C25880BC704780B586B000AF72B6234B4CF220521A80214B4DF628121A80204B4FF4E9721A801F4B7B615F
S32D0000C2807B691F4A934214D27B691A1D7A611B683B617B691A1D7A611B68FB607B691A1D7A611B68BB60BA68E9
S32D0000C2A8F9683869FFF79AFFE6E77B69134A93420ED27B691A1D7A611B68FB607B691A1D7A611B68BB60B9688B
S32D0000C2D0F868FFF7A8FFECE70B4B7B600B4A7B681A6016F0ABFA62B602F002FD01F0C4FEFEE700BF0E2005400F
S32D0000C2F800200540BCC10000D4C10000E4C1000008ED00E000C0000080B400AFFEE780B400AFFEE780B400AFF4
S32D0000C320FEE780B400AFFEE780B400AFFEE780B400AFFEE780B400AFFEE780B400AFFEE780B400AFFEE780B426
S32D0000C34800AFFEE7FFFFFFFFFFFFFFFFFFFFFFFFFFFFFFFFFFFFFFFFFFFFFFFFFFFFFFFFFFFFFFFFFFFFFFFF57
S32D0000C370FFFFFFFFFFFFFFFFFFFFFFFFFFFFFFFFFFFFFFFFFFFFFFFFFFFFFFFFFFFFFFFFFFFFFFFFFFFFFFFFC7
S32D0000C398FFFFFFFFFFFFFFFFFFFFFFFFFFFFFFFFFFFFFFFFFFFFFFFFFFFFFFFFFFFFFFFFFFFFFFFFFFFFFFFF9F
S32D0000C3C0FFFFFFFFFFFFFFFFFFFFFFFFFFFFFFFFFFFFFFFFFFFFFFFFFFFFFFFFFFFFFFFFFFFFFFFFFFFFFFFF77
S32D0000C3E8FFFFFFFFFFFFFFFFFFFFFFFFFFFFFFFFFFFFFFFFFFFFFFFFFFFFFFFFFFFFFFFFFFFFFFFFFEFFFFFF50
S32D0000C44010B5054C237833B9044B13B10448AFF300800123237010BDD81600200000000010B3020008B5034B4E
S32D0000C4681BB103490348AFF3008008BD00000000DC16002010B3020080B483B000AF78607B6823F00043184600
S32D0000C4900C37BD4680BC704780B582B000AF7860786812F063FF034618460837BD4680BD80B582B000AF7860FF
S32D0000C4B839607B680D4A5A617B683A681A607B6800225A607B6800229A607B680022DA60074A084908480BF0DF
S32D0000C4E075FC02467B681A617B6818460837BD4680BD00BFE25C2341D48F0200D88F0200B41A0020000000003A
S32D0000C5082DE9B04394B000AFF860B9601346FB71FB685B691946B86814F082FE03461C46FB681B68184614F0B6
S32D0000C53073FD03461946204614F0C2FD0346184614F084FF0346FB64FB6800225A60FB6800229A600023BB64C6
S32D0000C558A74807F09FFB03467B64A64807F09AFB03463B640023FB630023BB6307F06CFAC7E90C0107F068FA76
S32D0000C580C7E90A019E4B1B6819469E4802F0B8FE9D4B1B6819469D4802F0B2FE9C480BF001FB78629A480BF096
S32D0000C5A80BFB3862FB685A68FB689B681344DA0F13445B101A46FB6C934240F3B2818C4807F068FB03461A465F
S32D0000C5D07B6C934214BF01230023DBB2002B0CD0854807F05BFB03467B64FB685B685A1CFB685A60BB6B01337E
S32D0000C5F8BB63804807F04EFB03461A463B6C934214BF01230023DBB2002B0CD0794807F041FB03463B64FB68DD
S32D0000C6209B685A1CFB689A60FB6B0133FB6307F00FFAD7E90C2313F035FF02460B461046194601231C466AA317
S32D0000C648D3E9002314F068FB0346002B01D100231C46E3B2002B00F05D816B480BF09EFA0346796A184614F051
S32D0000C6701DFC03460221184602F0F8F904460D4663480BF09DFA0346396A184614F00EFC03460221184602F0E8
S32D0000C698E9F902460B462046294613F001FF02460B461046194612F0E7FF02460B461046194614F0A3FB0346B2
S32D0000C6C0FB61BB6B002B05D1FB6B002B02D1BB6C0133BB64FB6B002B02D1FB6B0133FB63BB6B002B02D1BB6B45
S32D0000C6E80133BB63FB79002B00F00081F86914F035F83DA3D3E9002314F018FB0346002B00F0F480FA6BBB6BF7
S32D0000C7109A427FDD3A4B1B68184614F023F804460D46FA6BBB6BD31A184614F075FC0246334B1B681946104658
S32D0000C73814F0C2FC0346184614F010F880468946B86B13F0F9FF02460B4613F0A9FE02460B464046494614F0B6
S32D0000C76083F902460B462046294613F09DFE02460B461046194614F045FB0346204A1360214B1B68184613F01B
S32D0000C788EDFF04460D46FA6BBB6BD31A184614F03FFC02461A4B1B681946104614F08CFC0346184613F0DAFFF1
S32D0000C7B080468946F86B13F0C3FF02460B4613F073FE02460B464046494614F04DF902460B462046294613F028
S32D0000C7D865FE02460B461046194614F00FFB0346074A136082E000BF9A9999999999D93F04170020081700201D
S32D0000C800000000200C1700200400002014170020941A0020BA6BFB6B9A426BDD5F4B1B68184613F09FFF044645
S32D0000C8280D46BA6BFB6BD31A184614F0F1FB0246584B1B681946104614F03EFC0346184613F08CFF804689469E
S32D0000C850B86B13F075FF02460B4613F025FE02460B464046494614F0FFF802460B462046294613F017FE0246EA
S32D0000C8780B461046194614F0C1FA0346454A1360454B1B68184613F069FF04460D46BA6BFB6BD31A184614F02F
S32D0000C8A0BBFB02463E4B1B681946104614F008FC0346184613F056FF80468946F86B13F03FFF02460B4613F0CF
S32D0000C8C8EFFD02460B464046494614F0C9F802460B462046294613F0E3FD02460B461046194614F08BFA034672
S32D0000C8F02B4A1360294B1B6819462A4802F000FD274B1B681946284802F0FAFC0023FB630023BB6307F09CF882
S32D0000C918C7E90C01BB6C042B7FF744AE0023FB6440E61E4802F0A6FC1D4802F0A3FC07F08BF8D7E90A2313F074
S32D0000C940B1FD02460B46C7E90423184808F0CBFA1749164808F05DFD104B1B681946134808F06AFD13491148D2
S32D0000C96808F053FD0C4B1B6819460E4808F060FD0F490C4808F049FDB9680A4808F058FDD7E90423074808F09D
S32D0000C99066FD00BF5037BD46BDE8B08300000020040000200C170020141700202C1A0020E48F0200F88F0200BF
S32D0000C9B80890020090B58BB000AF786039607B685B691946386814F02BFC03461C467B681B68184614F01CFBBC
S32D0000C9E003461946204614F06BFB0346184614F02DFD0346FB617B6800225A607B6800229A603E4807F04AF9B9
S32D0000CA0803467B623C4807F045F903463B6207F01BF8C7E90401394B1B6883F000431946374802F069FC374B08
S32D0000CA301B6883F000431946354802F061FC7B685A687B689B681344DA0F13445B101A46FB6993422EDD2948D2
S32D0000CA5807F020F903461A467B6A934214BF01230023DBB2002B09D0224807F013F903467B627B685B685A1CE3
S32D0000CA807B685A601E4807F009F903461A463B6A934214BF01230023DBB2002BCFD0184807F0FCF803463B62C7
S32D0000CAA87B689B685A1C7B689A60C4E7144802F0E1FB154802F0DEFB06F0C6FFD7E9042313F0ECFC02460B4604
S32D0000CAD0C7E902230F4808F006FA0F490D4808F098FC39680B4808F0A7FCD7E90223094808F0B5FC00BF2C374B
S32D0000CAF8BD4690BD0417002008170020000000200C17002004000020141700202C1A0020089002000000000074
S32D0000CB20F0B591B000AFF860B9601346FB71FB6800225A60FB6800229A600023FB630023BB634FF08143FB613D
S32D0000CB48B86813F00BFEAAA3D3E9002313F05EFE02460B46104619464FF00002A84B13F07FFF02460B46104616
S32D0000CB70194614F047F90346BB61B969F86914F09FFA03461A46FB685B691946104614F04BFB03467B61FB6818
S32D0000CB981B68184614F03CFA03467969184614F08BFA0346184614F04DFC03463B61954807F070F803467B6306
S32D0000CBC0934807F06BF803463B630023FB62FB79002B3CD18F4B1B6883F00043184613F0C1FD02460B4613F031
S32D0000CBE85FFC02460B46104619464FF00002884B13F036FF02460B461046194614F0FEF803461946834802F07D
S32D0000CC1077FB834B1B68184613F0A4FD02460B4613F042FC02460B46104619464FF00002794B13F019FF0246A1
S32D0000CC380B461046194614F0E1F803461946774802F05AFB3BE0714B1B68184613F086FD02460B4613F024FC43
S32D0000CC6002460B46104619464FF000026A4B13F0FBFE02460B461046194614F0C3F803461946664802F03CFBDA
S32D0000CC88654B1B6883F00043184613F067FD02460B4613F005FC02460B46104619464FF000025B4B13F0DCFE21
S32D0000CCB002460B461046194614F0A4F803461946584802F01DFB4EA3D3E90023C7E90823FB685A68FB689B68E0
S32D0000CCD81344184613F030FD4FF000024FF0804313F0BEFE02460B4614461D46386913F023FD02460B46012172
S32D0000CD000E462046294614F001F80346002B01D100231E46F3B283F00103DBB2002B61D1FB6A042B5EDC3948BD
S32D0000CD2806F0B8FF03461A467B6B934214BF01230023DBB2002B0CD0324806F0ABFF03467B63FB685B685A1C41
S32D0000CD50FB685A60BB6B0133BB632D4806F09EFF03461A463B6B934214BF01230023DBB2002B0CD0264806F0E2
S32D0000CD7891FF03463B63FB689B685A1CFB689A60FB6B0133FB6306F05FFED7E9082313F085FB02460B46104635
S32D0000CDA0194601231C4616A3D3E9002313F0B8FF0346002B01D100231C46E3B2002B87D0FB6B002B05D1BB6BBF
S32D0000CDC8002B02D1FB6A0133FB6206F03DFEC7E908010023FB630023BB6375E70D4802F049FA0E4802F046FA2F
S32D0000CDF000BF4437BD46F0BD182D4454FB2109409A9999999999D93F008066400417002008170020000000207A
S32D0000CE18000008400C17002004000020141700202DE9F04397B006AFF860B9607A60FB70002387F83730FB688B
S32D0000CE401B69AD4A1946AD480BF032F9AC480AF0A9FE0346AB49184614F0C6FA0346002B0AD1A7480AF0ACFEF9
S32D0000CE680346A649184614F0BBFA0346002B01D0012300E00023002B00D0E3E79E480AF08DFE03464FF04041A8
S32D0000CE90184614F0A9FA0346002B0BD198480AF08FFE03464FF04041184614F09DFA0346002B01D0012300E06D
S32D0000CEB80023002B07D09249924808F0A6FA9249F868FFF777FD86A1D1E9000106F096FD89480AF063FEB86284
S32D0000CEE087480AF06DFE786285480AF077FEF86383480AF073FE0346184613F033FC4FF00002844B13F0D0FA93
S32D0000CF0802460B461046194613F078FF0346FB637F49F86B14F082FA0346002B05D07C49F86B13F0BFFF034666
S32D0000CF30FB6373480AF036FEB86271480AF040FE7862B96AB86813F0B1FF03463B62796A786813F0ABFF034612
S32D0000CF58FB61FB681E69B86813F000FC04460D46786813F0FBFB02460B46CDE90223CDE90045684A31465F4891
S32D0000CF800BF096F8FB681E695D480AF00BFE0346184613F0E7FB04460D4659480AF010FE0346184613F0DEFB13
S32D0000CFA880468946F86B13F0D9FB02460B46CDE90423CDE90289CDE90045574A31464D480BF072F84FF0000188
S32D0000CFD0386A14F027FA0346002B00F0A9804FF00001386A14F000FA0346002B1BD04FF00001F86914F020FAE1
S32D0000CFF80346002B02D0494BBB6305E14FF00001F86914F0F7F90346002B02D0444BBB63FAE0FB6BBB63012323
S32D0000D02087F83730F4E04FF00001F86914F004FA0346002B19D0396AF86914F0F5F803461846FFF729FAB86358
S32D0000D048B86B13F08BFB28A3D3E9002313F0DEFB02460B461046194613F0D0FE0346BB63D2E04FF00001F869AF
S32D0000D07014F0C4F90346002B2FD0396AF86914F0D3F803461846FFF707FAB863B86B13F069FB17A3D3E90023AF
S32D0000D09813F0BCFB02460B461046194613F0AEFE0346BB63B86BFFF7E7F90346184613F055FB02460B464FF081
S32D0000D0C000001A4913F0EEF902460B461046194613F098FE0346BB639AE04FF00003BB6396E000BFAFF3008076
S32D0000D0E89A9999999999D93FF8C1631ADCA54C402C900200B41A0020941A0020000080BF309002002C1A002047
S32D0000D1100000C040008056400000B4433C900200549002000000B44200008743008076404FF00001F86914F095
S32D0000D1387FF90346002B2FD0396AF86914F070F803461846FFF7A4F9B863B86B13F006FBA9A3D3E9002313F0C4
S32D0000D16059FB02460B461046194613F04BFE0346BB63B86BFFF784F90346184613F0F2FA02460B464FF0000048
S32D0000D188A14913F08BF902460B461046194613F035FE0346BB6337E04FF00001F86914F029F90346002B2DD0CE
S32D0000D1B0396AF86914F038F803461846FFF76CF9B863B86B13F0CEFA8DA3D3E9002313F021FB02460B461046F1
S32D0000D1D8194613F013FE0346BB63B86BFFF74CF90346184613F0BAFA4FF00002864B13F057F902460B4610463F
S32D0000D200194613F0FFFD0346BB6301E0814BBB63B96BF86B13F04AFE0346BB6197F8373083F00103DBB2002B14
S32D0000D22800F0BE814FF00001B86914F001F90346002B21D0FB681E69386A13F08FFA04460D46F86913F08AFA48
S32D0000D25080468946B86913F085FA02460B46CDE90423CDE90289CDE900456B4A31466B480AF01EFF0122B9698B
S32D0000D278F868FFF751FC30E04FF00001B86914F0B9F80346002B28D0FB681E69386A13F065FA04460D46F86967
S32D0000D2A013F060FA80468946B869FFF7E9F80346184613F057FA02460B46CDE90423CDE90289CDE90045564A29
S32D0000D2C8314654480AF0F0FEB869FFF7D5F8034600221946F868FFF71FFC49A1D1E9000106F08CFB4D480AF06D
S32D0000D2F075FC0346184613F035FA4FF000024A4B13F0D2F802460B461046194613F07AFD0346FB634549F86BC3
S32D0000D31814F084F80346002B05D04249F86B13F0C1FD0346FB6300233B63B96BF86B13F0B9FD03461846FFF72A
S32D0000D3409FF803463A49184614F076F80346002B14D0B96BF86B13F0A9FD03461846FFF78FF8034633491846BD
S32D0000D36814F048F80346002B04D03B6B052B01DC012300E00023002B00F08E802C492D4808F043F8B96BF86B64
S32D0000D39013F08CFD03461846FFF772F80346012214461C49184614F029F80346002B01D100231C46E3B2002BA3
S32D0000D3B814D0B96BF86B14F03BF80346002B06D001224FF08141F868FFF7A6FB3AE000224FF08141F868FFF7AD
S32D0000D3E09FFB33E0B96BF86B14F026F80346002B26D000224FF08141F868FFF791FB25E0F8C1631ADCA54C4012
S32D0000D4089A9999999999D93F008066400000344380900200B41A0020C4900200941A0020008056400000B44379
S32D0000D4300000C0400080B043089102002C1A002001224FF08141F868FFF76AFB5CA1D1E9000106F0D7FA604854
S32D0000D4580AF0C0FB0346184613F080F94FF000025C4B13F01DF802460B461046194613F0C5FC0346FB63584974
S32D0000D480F86B13F0CFFF0346002B05D05449F86B13F00CFD0346FB633B6B01333B6348E74D480AF07FFBB86284
S32D0000D4A84B480AF089FB7862B96AB86813F0FAFC03463B62796A786813F0F4FC0346FB610221386A01F0CEFA70
S32D0000D4D004460D460221F86901F0C8FA02460B462046294612F0E0FF02460B461046194612F0C6F802460B4664
S32D0000D4F81046194613F082FC03467B61FB78002B04D001227969F868FEF7FAFF30480AF061FB0346184613F06E
S32D0000D52021F94FF000022D4B12F0BEFF02460B461046194613F066FC0346FB622849F86A13F070FF0346002B39
S32D0000D54805D02549F86A13F0ADFC0346FB621CA1D1E9000106F052FAFB681E691C480AF01DFB0346184613F0FA
S32D0000D570F9F804460D4618480AF022FB0346184613F0F0F880468946F86A13F0EBF802460B46CDE90423CDE9ED
S32D0000D5980289CDE90045114A314611480AF084FD09A1D1E9000106F029FA00BF4437BD46BDE8F083AFF3008044
S32D0000D5C0666666666666D63F9A9999999999D93F9A9999999999C93F941A0020008056400000B44314910200F4
S32D0000D5E8B41A00200000000090B583B000AF78602B4806F01DFD0346184613F0AFF801231C4623A3D3E9002329
S32D0000D61013F086FB0346002B01D100231C46E3B2002B01D0012330E0204806F005FD0346184613F097F801231B
S32D0000D6381C4619A3D3E9002313F06EFB0346002B01D100231C46E3B2002B01D0022318E0154806F0EDFC03465D
S32D0000D660184613F07FF801231C460DA3D3E9002313F056FB0346002B01D100231C46E3B2002B01D0032300E0F9
S32D0000D688002318460C37BD4690BD00BFAFF300809A9999999999F13FCDCCCCCCCCCCFC3FFC160020001700204B
S32D0000D6B0F81600200000000090B587B002AF78600023FB730023BB7300237B73444806F0B3FC0346184613F04B
S32D0000D6D845F801231C463CA3D3E9002313F01CFB0346002B01D100231C46E3B2002B01D00123FB73394806F024
S32D0000D7009BFC0346184613F02DF801231C4632A3D3E9002313F004FB0346002B01D100231C46E3B2002B01D0FD
S32D0000D7280123BB732E4806F083FC0346184613F015F801231C4626A3D3E9002313F0ECFA0346002B01D100235F
S32D0000D7501C46E3B2002B01D001237B73234807F0C2FB2349214807F0DDFBBB7B002B0CD04FF47F011D4807F087
S32D0000D778FCFB64230093322319224B21194808F030FAFB7B002B0CD04FF40041154807F0ECFB64230093322348
S32D0000D7A019227D21114808F020FA7B7B002B0BD0FF210E4807F0DDFB6423009332231922AF210A4808F011FA07
S32D0000D7C800BF1437BD4690BD9A9999999999F13FCDCCCCCCCCCCFC3FFC16002000170020F81600202C1A002011
S32D0000D7F06666660090B58FB000AFF860C7E90023D7E90023C7E9062306F022F9C7E90A0106F01EF9C7E9040131
S32D0000D81801237B6206F018F9D7E9042312F03EFE02460B4601210C46D7E9060113F074FA0346002B01D1002307
S32D0000D8401C46E3B2002B00F08780F868FFF7D0FE78637B6B002B02D07B6B7B6204E07B6B002B01D17B6A7B6372
S32D0000D86806F0F2F8D7E90A2312F018FE02460B461046194601231C464FF00002394B13F04BFA0346002B01D186
S32D0000D89000231C46E3B2002B06D0F868FFF70CFF06F0D6F8C7E90A017B6B032BB6D801A252F823F03BD90000B9
S32D0000D8B8C5D80000DFD800000DD900002A4B1B6819462A4801F018FD294B1B681946294801F012FD3BE0244BE8
S32D0000D8E01B682749184613F0E3FA03461946214801F006FD204B1B682149184613F0D8FA034619461D4801F05B
S32D0000D908FBFC24E0184B1B681B49184613F0CAFA03461946154801F0EFFC154B1B681649184613F0BFFA034601
S32D0000D9301946124801F0E4FC0DE00D4B1B6819460C4801F0DDFC0C4B1B6883F0004319460A4801F0D5FC61E7AF
S32D0000D958084801F08FFC054801F08CFC00BF3C37BD4690BD0000E03F000000200C17002004000020141700209C
S32D0000D9800000A04180B483B000AF786039607B68384A1A607B68384A5A607B68374A9A607B68374ADA607B6834
S32D0000D9A8364A1A617B68364A5A617B68354A9A617B68334ADA617B68334A1A627B68334A5A627B68324A9A62ED
S32D0000D9D07B68324ADA627B68314A9A637B68314ADA637B68304A1A647B68304A1A637B682F4A5A637B682F4A6E
S32D0000D9F85A647B682E4A9A647B682E4ADA647B682D4A1A657B681A4A5A657B682B4A9A657B68244ADA657B68A8
S32D0000DA20294A1A667B68294A5A667B68284A9A667B68284ADA667B68274A1A677B68274A5A677B68264A9A67A7
S32D0000DA487B68264ADA677B68254AC3F880207B681C4AC3F884207B68224AC3F888207B6818460C37BD4680BC52
S32D0000DA70704700BF333303410000B0419A99D9400000C0410000E040CDCC7C41CDCC1441666676419A99A1412E
S32D0000DA9866668A419A993F42CDCCE4413333DB41CDCC36426666F6419A997542666682419A9949429A99914185
S32D0000DAC00000524200006442CDCC2A429A99E5410000A4416666C640000066420000184100007242CDCC4C410E
S32D0000DAE800007E4200000841B0B58CB004AF7860AB480AF00BF803461A4607F108031146184615F0A7FF07F1E7
S32D0000DB100803184616F014F803461A4607F108031344A2491A460B4603CB106051601B78137207F108039E4ADB
S32D0000DB3819469E480AF046F9F8619D499D4807F064FC9D499B4807F060FC4FF000009B4905F054FF974807F069
S32D0000DB60E7FD07F1140207F118031946934807F077FA034683F00103DBB2002B00D0F0E707F1140207F11803B0
S32D0000DB8819468C4807F068FA0346002B00D0F3E783480AF003F802467B681A6080480AF00BF802467B685A60B6
S32D0000DBB08549824807F02DFC804807F094F94FF47F017E4807F0D5F97B497C4807F021FC7E497A4807F01DFCC0
S32D0000DBD84FF00000794905F011FF764807F0A4FD07F1140207F118031946724807F034FA034683F00103DBB217
S32D0000DC00002B00D0F0E707F1140207F1180319466A4807F025FA0346002B00D0F3E7624809F0C0FF02467B6831
S32D0000DC281A615F4809F0C8FF02467B685A616449604807F0EAFB5F4807F051F9FF215D4807F093F95A495B485F
S32D0000DC5007F0DFFB5E49594807F0DBFB4FF00000584905F0CFFE554807F062FD07F1140207F118031946514812
S32D0000DC7807F0F2F9034683F00103DBB2002B00D0F0E707F1140207F118031946494807F0E3F90346002B00D055
S32D0000DCA0F3E7414809F07EFF02467B689A613E4809F086FF02467B68DA6143493F4807F0A8FB3E4807F00FF9BB
S32D0000DCC86FF07F413B4807F050F93949394807F09CFB3E49374807F098FB4FF00000374905F08CFE334807F07B
S32D0000DCF01FFD07F1140207F1180319462F4807F0AFF9034683F00103DBB2002B00D0F0E707F1140207F1180314
S32D0000DD181946284807F0A0F90346002B00D0F3E71F4809F03BFF02467B68C3F88C201C4809F042FF02467B686B
S32D0000DD40C3F8902020491D4807F063FB1B4807F0CAF81949194807F05CFB1F49174807F058FB4FF0000017494A
S32D0000DD6805F04CFE134807F0DFFC07F1140207F1180319460F4807F06FF9034683F00103DBB2002B00D0F0E7CC
S32D0000DD9007F1140207F118031946084807F060F90346002B1AD0F3E7941A002038910200D48F0200B41A002021
S32D0000DDB8449102002C1A0020489102000000F03F589102006C9102007C9102008C910200A49102006F4809F0F7
S32D0000DDE0E1FE02467B68DA656C4809F0E9FE02467B681A666A496B4807F00BFB694807F072F87B681B68184654
S32D0000DE0812F0ACFC04460D467B685B68184612F0A5FC02460B46CDE90223CDE90045604AF96960480AF040F9A8
S32D0000DE307B681B69184612F095FC04460D467B685B69184612F08EFC02460B46CDE90223CDE90045564AF969CD
S32D0000DE5854480AF029F97B689B69184612F07EFC04460D467B68DB69184612F077FC02460B46CDE90223CDE962
S32D0000DE8000454C4AF96949480AF012F97B689B6A184612F067FC04460D467B68DB6A184612F060FC02460B46DC
S32D0000DEA8CDE90223CDE90045414AF9693D480AF0FBF87B68DB6C184612F050FC04460D467B681B6D184612F0D9
S32D0000DED049FC02460B46CDE90223CDE90045374AF96932480AF0E4F87B68D3F88C30184612F038FC04460D46A2
S32D0000DEF87B68D3F89030184612F030FC02460B46CDE90223CDE900452B4AF96925480AF0CBF87B68DB6D184609
S32D0000DF2012F020FC04460D467B681B6E184612F019FC02460B46CDE90223CDE90045214AF9691A480AF0B4F8F3
S32D0000DF487B68D3F88430184612F008FC04460D467B68D3F88830184612F000FC02460B46CDE90223CDE9004517
S32D0000DF70154AF9690D480AF09BF8F9690B480AF007F81249074807F044FA4FF00000104905F038FD00BF20377B
S32D0000DF98BD46B0BD941A0020589102002C1A0020B8910200B41A0020E891020000920200189202002C92020018
S32D0000DFC0449202006492020080920200989202000000F03F0000000080B582B000AF224806F081FF214920482C
S32D0000DFE806F09CFF204806F023F8786079681C4807F01EFA4FF00001786813F00FFA0346002B17D0786812F06C
S32D0000E010A9FB13A3D3E9002312F078FE0346002B0CD04FF47F01104806F0A3FF3C237822A0210D4807F0A6FE84
S32D0000E03801230AE0FF210A4806F097FF3C237822A021074807F09AFE002318460837BD4680BD00BFAFF3008035
S32D0000E060CDCCCCCCCCCCF43F2C1A002066666600F41600200000000090B59BB002AF624808F0C2FD034619468A
S32D0000E088604807F0D5F93B1D14211846FEF70CFA5D4A5E495E4809F095FEF8655A4A5D495B4809F08FFEB865AA
S32D0000E0B05B4A5C49584809F089FE786540F20521594806F0B7FA40F6C411574806F0CFFA4FF4FA71554806F0B1
S32D0000E0D8ADFA40F6B101534806F0C5FA4FF4FA71514806F0A3FA40F6FC014F4806F0BBFA4E494C4806F0D4FAFD
S32D0000E1004FF00001484806F0CFFA4B49484806F0CBFA4A4809F0D8FA484809F0E3FC03463B6594200AF0A0F88F
S32D0000E12803461C46396D2046FFF728FCFC64F86CFFF7DAFC40493A4806F0B2FA3D4809F0F3FCB864BB6C3D4A84
S32D0000E150796D314809F0ACFF3B492C4807F059F907F1200207F124031946284806F078FF034683F00103DBB29B
S32D0000E178002B00D0F0E707F1200207F124031946204806F069FF0346002B00D0F3E74FF000037B624FF00003CA
S32D0000E1A03B621A4807F0C4FA2849184807F031F907F1200207F124031946144806F050FF034683F00103DBB225
S32D0000E1C8002B00D0F0E707F1200207F1240319460C4806F041FF0346002B00D0F3E71A4B1B687B64194B1B6869
S32D0000E1F03B64FFF7F1FE0346012B14BF01230023DBB2002B28D0F4E7781A00202C1A0020B4920200B8920200B7
S32D0000E218B41A0020C4920200D48F0200D09202001C17002028170020341700200000C84200002A43941A002067
S32D0000E24000003442DC920200F492020008930200000000200400002005F0FAFBC7E90E01D7E90E23CDE90023EE
S32D0000E2686B4A796D6B4809F01FFFFB6C1B686A49184612F019FE03461946FB6C5A68381D0123FEF7CDFDFB6C9F
S32D0000E2901B684FF07F51184612F00AFE03461946FB6C5A68381D0123FEF7BEFD4FF000005C4905F0A7FBFFF7FB
S32D0000E2B88FFE78637B6B5A4A796D564809F0F4FE584805F0B5FE0346184612F047FA02460B46CDE90023544A95
S32D0000E2E0796D4E4809F0E4FEFB6C9968FB6CDA68381D0023FEF798FD07F11C0144A3D3E900230846FFF776FA17
S32D0000E3083B1D4FF07D511846FEF754FB4FF00000464905F073FB3B1D01224FF082411846FEF7FAFB42494348D4
S32D0000E33006F0BAF94FF000003A4905F063FB4FF000013E4806F0B0F93B1D4FF080411846FEF734FB3A4809F047
S32D0000E35825FC0446384809F02FFC0346184612F0FDF94FF000022D4B12F098F802460B461046194612F042FD0F
S32D0000E3800246381D00232146FEF74EFD3B1D01222C491846FEF7B8F87B6B012B58D1FB6C1969FB6C5A69381D72
S32D0000E3A80123FEF73DFD264A7B6C1360254A3B6C13603B1D4FF07E511846FEF7FBFA1E4809F0ECFB04461C48FF
S32D0000E3D009F0F6FB0346184612F0C4F94FF00002104B12F05FF802460B461046194612F009FD0246381D0023C4
S32D0000E3F82146FEF715FD3B1D00224FF080411846FEF77EF857E000BFCDCCCCCCCCCCF43F18930200B41A0020B9
S32D0000E420000020410000F03F28930200F41600203C9302000000E03F0000BE421C170020941A002000004040C6
S32D0000E4480000002004000020FB6C9969FB6CDA69381D0123FEF7E4FCA34A7B6C1360A34A3B6C13603B1D4FF01C
S32D0000E4707E511846FEF7A2FA9F4809F093FB04469D4809F09DFB0346184612F06BF94FF000029A4B12F006F85F
S32D0000E49802460B461046194612F0B0FC0246381D00232146FEF7BCFC3B1D00224FF080411846FEF725F88C4AC6
S32D0000E4C07B6C13608B4A3B6C13603B1D4FF081411846FEF773FA8A498A4806F0E5F8FB6C196AFB6C5A6A381DEA
S32D0000E4E80123FEF79DFC824809F058FB0446804809F062FB03464FF07E51184612F0D4FC03461A46381D00232E
S32D0000E5102146FEF789FCFB6C996AFB6CDA6A381D0123FEF781FC724A7B6C1360714A3B6C13603B1D01227449D9
S32D0000E5381846FEF7F1FA6AA1D1E9000105F05EFA6B4809F039FB0346184612F007F94FF000026C4B11F0A4FF3F
S32D0000E56002460B461046194612F04CFC0246381D01236749FEF758FC3B1D002265491846FEF7CEFA5A4A7B6C6D
S32D0000E58813605A4A3B6C1360574A7B6C1360574A3B6C13604FF00001584806F081F8FB6C196BFB6C5A6B381DC3
S32D0000E5B00123FEF739FC3B1D4FF07C511846FEF7FDF93B1D012254491846FEF7A9FA53494C4806F069F84FF06E
S32D0000E5D80000484905F012FA4FF00001474806F05FF83B1D4FF07E511846FEF7E3F94A494A4806F055F83B1D12
S32D0000E600002249491846FEF78BFA4FF000003F4905F0F8F93B1D012243491846FEF780FA3B1D4FF08141184628
S32D0000E628FEF7C8F93F493D4806F03AF83949334806F036F82C4A7B6C13602C4A3B6C13602B4809F0ABFA0346FE
S32D0000E6504FF07E51184612F029FC03461C46264809F0AEFA0246381D00232146FEF7DCFB1F4A7B6C13601F4A30
S32D0000E6783B6C13602749214806F012F81A4A7B6C13601A4A3B6C13600123BB64BB6C022B4AD0BB6C022B58DC0C
S32D0000E6A0BB6C002B03D0BB6C012B11D051E0FB6CD96EFB6C1A6F381D0023FEF7B5FBFB6C596CFB6C9A6C381D19
S32D0000E6C80123FEF7ADFB40E0FB6CD96CFB6C1A6D381D0123FEF7A4FB37E000BFAFF30080333333333333D33F60
S32D0000E6F00000002004000020941A00200000F03F0000C84228170020000070420000E03FCDCCFC4100008C42DD
S32D0000E718000070410000DC4200000243341700200000B44200002A43FB6C596DFB6C9A6D381D0123FEF774FB79
S32D0000E740FB6CD96FFB6CD3F88020381D0023FEF76BFBAD4809F026FA03464FF07E51184612F0A4FB03461C4648
S32D0000E768A74809F029FA03464FF07E51184612F09BFB03461A46381D00232146FEF750FB4FF000009F4905F047
S32D0000E79039F99F4A7B6C13609E4A3B6C13603B1D01229D491846FDF7AFFE95A1D1E9000105F028F999499A48B9
S32D0000E7B805F076FF05F048F9C7E90A014FF00000964905F01BF99649934805F069FF8E4A7B6C13608D4A3B6CEA
S32D0000E7E013603B1D4FF081411846FEF7E7F88F498B4805F059FF05F02BF9D7E90A2311F051FE02460B461046D0
S32D0000E808194601231C464FF00002874B12F07AFA0346002B01D100231C46E3B2002B00D0E5E73B1D00224FF094
S32D0000E83081411846FDF768FE7E49794805F034FF4FF00000774905F0DDF87849744805F02BFF3B1D78491846B4
S32D0000E858FEF7B0F83B1D012276491846FEF75CF93B1D01224FF081411846FDF749FE4FF00001694805F014FF05
S32D0000E880381D01236E4A6F49FEF7CEFA381D01236D4A6E49FEF7C8FA3B1D002267491846FEF73EF95A4A7B6CE7
S32D0000E8A813605A4A3B6C1360FB6CD3F88C40544809F082F90346184611F050FF4FF00002504B11F0EBFD0246FF
S32D0000E8D00B461046194612F095FA0246381D01232146FEF7A1FA484809F05CF90446464809F066F90346184616
S32D0000E8F811F034FF4FF00002484B11F0D1FD02460B461046194612F079FA0246381D01232146FEF785FA4C4927
S32D0000E9204C4805F0C1FEFB6CD96DFB6C1A6E381D0123FEF779FA3B1D002240491846FEF7EFF84FF000004FF049
S32D0000E948804105F05BF83B1D01223A491846FEF7E3F83B1D3E491846FEF72CF83D493B4805F09EFE4FF000003D
S32D0000E970264905F047F8FB6CD3F88410FB6CD3F88820381D0123FEF74FFA214A7B6C1360204A3B6C136005F041
S32D0000E9985BF802460B46CDE900232F4A796D2F4809F082FB05F050F8D7E90E2311F076FD02460B46CDE900232C
S32D0000E9C0294A796D274809F073FB3B1D012222491846FDF799FD7B691946224809F0D8FAF96D204809F0D4FA1F
S32D0000E9E8796D1E4809F0D0FA002318466437BD4690BD00BFAFF30080333333333333D33F941A00200000E03F74
S32D0000EA1000000020040000200000E0400000B4421C1700200000F03F0000A04100000243000020400000204214
S32D0000EA38000010410000704200002E42CDCC8C41CDCCA441666692410000A042341700200000A04000002A4320
S32D0000EA6058930200B41A00206C930200B0B582B000AF78603960786811F074FE04460D46386811F05DFE0246C1
S32D0000EA880B462046294610F089FD02460B46104619460837BD46B0BD80B582B000AF786039607B68012B32D11E
S32D0000EAB03B684FF6FF7293422DD10821184805F0A9FA0221174805F0A5FA0121164805F0A1FA0021154805F052
S32D0000EAD89DFA1921144805F001F81821134804F0FDFF134A0021134800F086FB104A0321114800F081FB0021C3
S32D0000EB00104805F07BFD07210F4805F077FD01210E4805F073FD00BF0837BD4680BD00BFF4160020F816002008
S32D0000EB28FC1600200017002004170020081700206666E6400C170020141700201C17002028170020341700203F
S32D0000EB5080B500AF4FF6FF710120FFF7A1FF80BD80B500AF0F4BD3F8A03003F48053002B14BF01230023DBB295
S32D0000EB78002B10D0094BD3F8A030084A23F48053C2F8A030064809F059FA064B1B68054A23F40053136000BF56
S32D0000EBA080BD00BF00C00440B41A0020C0F00F4080B400AF124B4FF480725A63114B5B69104A43F40053536170
S32D0000EBC80E4B1B680D4A43F4005313600A4B0C4A1A630C4BD3F888310A4A43F08063C2F88831084B9B68074A68
S32D0000EBF043F08063936000BFBD4680BC704700BF00C00440C0F00F4003010A0000E100E080B400AF334B002225
S32D0000EC185A70324B98221A70304B9B79DBB203F01003002B14BF01230023DBB2002B00D0F2E72A4B9B79DBB265
S32D0000EC409B08DBB203F00303022B14BF01230023DBB2002B00D0F0E7224B18221A71214B00225A71204B03F5E9
S32D0000EC6880531A461F4B53641C4B54225A711B4B9B79DBB203F02003002B0CBF01230023DBB2002B00D0F2E7C7
S32D0000EC90144B9B79DBB203F04003002B0CBF01230023DBB2002B00D0F2E70E4B1B78DBB20C4A03F03F03DBB2F1
S32D0000ECB813700A4B9B79DBB29B08DBB203F00303032B14BF01230023DBB2002B00D0F0E700231846BD4680BC25
S32D0000ECE0704700BF00400640007004400000130180B500AF314B03F580539B6B2F4A43F4785302F580529363D7
S32D0000ED08FFF752FFFFF780FF2B4B58221A602A4B1B684FF47A7202FB03F3284A1360274B1B681A46234B03F5FD
S32D0000ED3080535B6C1B0E03F00F030133B2FBF3F31A46214B1A601D4B03F58053DB6B1B4A43F0225302F5805291
S32D0000ED58D363184B03F580531B6B164A43F0006302F580521363174B4FF480721A61642004F01AFD134B5B69AB
S32D0000ED80124A23F010035361104B00221A600F4B10225A610E4805F033FF05F035FA05F093FA0C4804F066FD23
S32D0000EDA80B4809F03DFA4FF4FA6004F011FE00BF80BD00BF0070044078190020741900207C19002000D0034085
S32D0000EDD02C1A002070190020601D002080B500AFFDF7B1FA00BF80BD80B500AFFDF7ABFA00BF80BD80B500AF8D
S32D0000EDF8FDF7A5FA00BF80BD80B500AFFDF79FFA00BF80BD80B500AFFDF799FA00BF80BD80B500AFFDF793FA25
S32D0000EE2000BF80BD80B500AFFDF78DFA00BF80BD80B500AFFDF787FA00BF80BD80B500AFFDF781FA00BF80BDC9
S32D0000EE4880B500AFFDF77BFA00BF80BD80B500AFFDF775FA00BF80BD80B500AFFDF76FFA00BF80BD80B500AFEF
S32D0000EE70FDF769FA00BF80BD80B500AFFDF763FA00BF80BD80B500AFFDF75DFA00BF80BD80B500AFFDF757FA9C
S32D0000EE9800BF80BD80B500AFFDF751FA00BF80BD80B500AFFDF74BFA00BF80BD80B500AFFDF745FA00BF80BD05
S32D0000EEC080B500AFFDF73FFA00BF80BD80B500AFFDF739FA00BF80BD80B500AFFDF733FA00BF80BD80B500AF2B
S32D0000EEE8FDF72DFA00BF80BD80B500AFFDF727FA00BF80BD80B500AFFDF721FA00BF80BD80B500AFFDF71BFA14
S32D0000EF1000BF80BD80B500AFFDF715FA00BF80BD80B500AFFDF70FFA00BF80BD80B500AFFDF709FA00BF80BD40
S32D0000EF3880B500AFFDF703FA00BF80BD80B500AFFDF7FDF900BF80BD80B500AFFDF7F7F900BF80BD80B500AF68
S32D0000EF60FDF7F1F900BF80BD80B500AFFDF7EBF900BF80BD80B500AFFDF7E5F900BF80BD80B500AFFDF7DFF98F
S32D0000EF8800BF80BD80B500AFFDF7D9F900BF80BD80B500AFFDF7D3F900BF80BD80B500AFFDF7CDF900BF80BD7F
S32D0000EFB080B500AFFDF7C7F900BF80BD80B500AFFDF7C1F900BF80BD80B500AFFDF7BBF900BF80BD80B500AFA5
S32D0000EFD8FDF7B5F900BF80BD80B500AFFDF7AFF900BF80BD80B500AFFDF7A9F900BF80BD80B500AFFDF7A3F907
S32D0000F00000BF80BD80B500AFFDF79DF900BF80BD80B500AFFDF797F900BF80BD80B500AFFDF791F900BF80BDBA
S32D0000F02880B500AFFDF78BF900BF80BD80B500AFFDF785F900BF80BD80B500AFFDF77FF900BF80BD80B500AFE0
S32D0000F050FDF779F900BF80BD80B500AFFDF773F900BF80BD80B500AFFDF76DF900BF80BD80B500AFFDF767F97E
S32D0000F07800BF80BD80B500AFFDF761F900BF80BD80B500AFFDF75BF900BF80BD80B500AFFDF755F900BF80BDF6
S32D0000F0A080B500AFFDF74FF900BF80BD80B500AFFDF749F900BF80BD80B500AFFDF743F900BF80BD80B500AF1C
S32D0000F0C8FDF73DF900BF80BD80B500AFFDF737F900BF80BD80B500AFFDF731F900BF80BD80B500AFFDF72BF9F6
S32D0000F0F000BF80BD80B500AFFDF725F900BF80BD80B500AFFDF71FF900BF80BD80B500AFFDF719F900BF80BD32
S32D0000F11880B500AFFDF713F900BF80BD80B500AFFDF70DF900BF80BD80B500AFFDF707F900BF80BD80B500AF57
S32D0000F140FDF701F900BF80BD80B500AFFDF7FBF800BF80BD80B500AFFDF7F5F800BF80BD80B500AFFDF7EFF870
S32D0000F16800BF80BD80B500AFFDF7E9F800BF80BD80B500AFFDF7E3F800BF80BD80B500AFFDF7DDF800BF80BD70
S32D0000F19080B500AFFDF7D7F800BF80BD80B500AFFDF7D1F800BF80BD80B500AFFDF7CBF800BF80BD80B500AF96
S32D0000F1B8FDF7C5F800BF80BD80B500AFFDF7BFF800BF80BD80B500AFFDF7B9F800BF80BD80B500AFFDF7B3F8E9
S32D0000F1E000BF80BD80B500AFFDF7ADF800BF80BD80B500AFFDF7A7F800BF80BD0000000080B584B000AFF860A9
S32D0000F2080B467A60FB72FB68FA7A1A71FB6800225A711749786812F00BF90346002B02D0134B7B600AE04FF0A0
S32D0000F2307E51786812F0ECF80346002B02D04FF07E537B60786811F08DFA09A3D3E9002311F0E0FA02460B4683
S32D0000F2581046194611F0D2FD0246FB681A60FB6818461037BD4680BDABAAAAAAAAAA20400000404180B582B051
S32D0000F28000AF78607B685B79002B09D07B6800225A717B6819791E230022034804F024FB00BF0837BD4680BDDA
S32D0000F2A87019002080B584B000AF786039603B687F2B02DD7F23FB7308E03B6813F1800F02DA8023FB7301E0DE
S32D0000F2D03B68FB737B685B79FA7B9A4209D07B68FA7B5A717B681979FA7B1E23034804F0FBFA00BF1037BD4693
S32D0000F2F880BD00BF70190020B0B584B000AF786039603749386812F075F80346002B02D0334B3B6008E0334938
S32D0000F320386812F089F80346002B01D02F4B3B60386811F017FA04460D467B681B68184611F010FA4FF00002E3
S32D0000F348294B11F08DFB02460B462046294611F05DFA02460B461046194611F04FFD03463B604FF00001386875
S32D0000F37012F058F80346002B10D0386811F0F2F917A3D3E9002311F045FA02460B461046194611F0EFFC0346E1
S32D0000F398FB6018E0386811F0E1F94FF00002134B11F034FA02460B46104619464FF000020D4B11F055FB02462B
S32D0000F3C00B461046194611F0D5FC0346FB60F9687868FFF76BFF00BF1037BD46B0BD00BF52B81E85EB51F43FB1
S32D0000F3E80000C8C20000C842000059400000604080B483B000AF03460A46FB711346BB71BB79002B03D1134BF9
S32D0000F41000221A7002E0114B01221A703823FB710E4B1A78FB791343FB710D4B9B78DBB20B4A43F01003DBB22F
S32D0000F4389370094B9B78DBB2074A43F02003DBB29370054AFB79137100BF0C37BD4680BC704700BF4017002003
S32D0000F4600060064080B483B000AF01237B607B68312B04DC00BF7B6801337B60F7E700BF0C37BD4680BC70471D
S32D0000F48880B582B000AF03460A46FB711346BB71134B1B7800211846FFF7AAFF00F024F8104AFB79137100F059
S32D0000F4B01FF80E4ABB79137100F01AF80B4B9B78DBB20A4A23F02003DBB29370074B9B78DBB2064A23F010038D
S32D0000F4D8DBB29370FFF7C2FF00BF0837BD4680BD411700200060064080B483B000AF174B1B78002B24D1002315
S32D0000F5007B60154BDB78DBB203F00203002B0CBF01230023DBB2002B0DD07B6842F21072934203DD0B4B012231
S32D0000F5281A7004E07B6801337B6000BFE5E7084BDB78DBB2064A43F00203DBB2D37000E000BF0C37BD4680BC1E
S32D0000F550704700BF421700200060064080B582B000AF0346FB71FB79184600F05FF800BF0837BD4680BD80B5A1
S32D0000F57882B000AF03460A46FB711346BB7100F035F8FB795B00DBB21846FFF7E3FFBB791846FFF7DFFF00F0F5
S32D0000F5A037F800BF0837BD4680BD80B500AFFF2000F03CF80346184680BD80B584B000AF0346FB7100F016F8FA
S32D0000F5C8FB795B005BB243F001035BB2DBB21846FFF7C0FFFFF7E5FF0346FB7300F014F8FB7B18461037BD46AA
S32D0000F5F080BD000080B400AF044B9B68034A43F48013936000BFBD4680BC704740F00F4080B400AF044B5B6848
S32D0000F618034A43F48013536000BFBD4680BC704740F00F4080B485B000AF0346FB710023BB73164BDB6A03F00F
S32D0000F6400043012B0CBF01230023DBB2002B03D0FB7B0133FB73F0E70E4BDB6A0D4A43F00043D3620B4AFB7938
S32D0000F66853630A4BDB6A03F40033002B0CBF01230023DBB2002B00D0F3E7044B9B6BBB73BB7B18461437BD46F6
S32D0000F69080BC704700C00A4080B582B000AF204B03F580531B6B1E4A43F4805302F5805213631C4B4FF4807230
S32D0000F6B81A651B4B5B691A4A43F480135361FFF7A3FF164B4FF400725A65144B4FF400729A65124B4FF4007207
S32D0000F6E0DA65124B124A1A60104B124ADA6000237B607B68092B06DCFF20FFF72FFF7B6801337B60F5E704A1EC
S32D0000F708D1E9000104F07AF900BF0837BD4680BD9A9999999999B93F0070044000A0044040F00F4000C00A40C3
S32D0000F730000C00800500003E90B486B000AFF860B9607A60FB68534A93420AD1524B03F580535B6B504A43F4B9
S32D0000F758806302F58052536345E0FB684D4A93420AD14B4B03F580535B6B494A43F4006302F58052536336E069
S32D0000F780FB68474A93420AD1434B03F580535B6B414A43F4805302F58052536327E0FB68404A93420AD13C4B59
S32D0000F7A803F580535B6B3A4A43F4005302F58052536318E0FB683A4A93420AD1344B03F580539B6A324A43F484
S32D0000F7D0806302F58052936209E02F4B03F580539B6A2D4A43F4006302F580529362FB68DB78DBB223F00C0303
S32D0000F7F8DAB2FB68DA70FB6800229A70BB684FF47A7203FB02F27B681B0192FBF3F39CB2FB681B78DBB223F081
S32D0000F8201F03FB75230A9BB2DBB203F01F03DAB2FB7D1343DAB2FB681A70E2B2FB685A70BB684FF4FA4203FBD8
S32D0000F84802F27B681B0192FBF3F39AB263019BB2D31A9CB2FB689B7ADBB223F01F03FB75E3B203F01F03DAB214
S32D0000F870FB7D1343DAB2FB689A72FB68DB78DBB243F00C03DAB2FB68DA7000BF1837BD4690BC704700A00640E9
S32D0000F8980070044000B0064000C0064000D0064000A00E4080B483B000AF78607B681B79DBB203F02003002B5B
S32D0000F8C00CBF01230023DBB2002B00D0F2E77B68DB79DBB218460C37BD4680BC704780B483B000AF78600B460D
S32D0000F8E8FB707B681B79DBB25BB2DB43DBB2DB09DBB2002B00D0F4E77B68FA78DA7100BF0C37BD4680BC7047EC
S32D0000F91080B487B000AFF860B9607A60FB687B61BB683B617B685A1E7A60002B14BF01230023DBB2002B08D05C
S32D0000F9383A69531C3B617B69591C796112781A70ECE700BF1C37BD4680BC704780B487B000AFF860B9607A606C
S32D0000F960FB687B617B685A1E7A60002B14BF01230023DBB2002B06D07B695A1C7A61BA68D2B21A70EEE700BF39
S32D0000F9881C37BD4680BC704780B489B000AFF860B9607A60FB68FB61BB68BB6100237B617B685A1E7A60002B44
S32D0000F9B00FD0FB695A1CFA611B781946BB695A1CBA611B78CB1A7B617B69002B01D1012300E00023002B00D017
S32D0000F9D8E6E77B6918462437BD4680BC704780B483B000AF786039607B681B78002B09D07B681B781A463B6827
S32D0000FA00934203D07B6801337B60F1E77B681B7818460C37BD4680BC704780B584B000AF786039607B681B6B67
S32D0000FA28FB60FA683B689A4252D07B681B79002B35D07B6858787B6803F134010123FA6803F050FD0346002BB2
S32D0000FA5014BF01230023DBB2002B01D001233CE07B6800221A717B685A6A7B681B6A1344FA689A4217D27B68A5
S32D0000FA78DB78FB72FB7A012B11D97B681B6AFA681344FB607B6858787B6803F134010123FA6803F027FDFB7AC8
S32D0000FAA0013BFB72EAE73B68002B15D07B6858787B6803F1340101233A6803F033FC0346002B14BF01230023D6
S32D0000FAC8DBB2002B01D0012303E07B683A681A63002318461037BD4680BD80B584B000AF786000217868FFF78F
S32D0000FAF094FF0346FB73FB7B002B40F093807B681B78032B7DD17B685B79002B79D07B6800221A637B683433D1
S32D0000FB184FF4007200211846FFF718FF7B68552283F832227B68AA2283F833227B68522283F834207B68522259
S32D0000FB4083F835207B68612283F836207B68412283F837207B68722283F818227B68722283F819227B684122D9
S32D0000FB6883F81A227B68612283F81B227B681B69DAB27B6883F81C227B681B699BB21B0A9BB2DAB27B6883F8FB
S32D0000FB901D227B681B691B0CDAB27B6883F81E227B681B691B0EDAB27B6883F81F227B68DB68DAB27B6883F885
S32D0000FBB820227B68DB689BB21B0A9BB2DAB27B6883F821227B68DB681B0CDAB27B6883F822227B68DB681B0E01
S32D0000FBE0DAB27B6883F823227B6858787B6803F134017B685A69012303F078FC7B6800225A717B685B78002230
S32D0000FC080021184603F03AFD0346002B14BF01230023DBB2002B01D00123FB73FB7B18461037BD4680BD80B4ED
S32D0000FC3083B000AF786039603B68023B3B607B68DB69023B3A689A4201D3002308E07B689B781A463B6803FB20
S32D0000FC5802F27B68DB6A134418460C37BD4680BC704780B586B000AF786039603B68012B04D97B68DB693A6874
S32D0000FC809A4201D30123B5E07B681B78032B7AD0032B00F3AD80012B02D0022B4DD0A7E03B683B613B695B089C
S32D0000FCA83A6913443B617B685A6A3B695B0A134419467868FFF7ADFE0346002B14BF01230023DBB2002B40F03B
S32D0000FCD088803B69C3F308037A68134493F83430FB603B6901333B617B685A6A3B695B0A134419467868FFF766
S32D0000FCF890FE0346002B14BF01230023DBB2002B6DD13B69C3F308037A68134493F834301B021A46FB68134309
S32D0000FD20FB603B6803F00103002B02D0FB681B0960E0FB68C3F30B035CE07B685A6A3B681B0A13441946786894
S32D0000FD48FFF767FE0346002B14BF01230023DBB2002B46D13B685B0003F4FF7330337A68134404337B617B69DB
S32D0000FD7001331B781B021AB27B691B781BB213431BB29BB236E07B685A6A3B68DB09134419467868FFF741FEF2
S32D0000FD980346002B14BF01230023DBB2002B22D13B689B0003F4FE7330337A68134404337B617B6903331B7802
S32D0000FDC01A067B6902331B781B0413437A6901321278120213437A691278134323F0704308E000BF04E000BFF7
S32D0000FDE802E000BF00E000BF4FF0FF3318461837BD4680BD80B588B000AFF860B9607A60BB68012B04D9FB6859
S32D0000FE10DB69BA689A4202D30223FB77EEE0FB681B78032B00F09780032B00F3DA80012B02D0022B6BD0D4E088
S32D0000FE38BB687B617B695B087A6913447B61FB685A6A7B695B0A13441946F868FFF7E1FD0346FB77FB7F002B86
S32D0000FE6040F0C2807B69C3F308033033FA6813440433BB61BB6803F00103002B0DD0BB691B785BB203F00F0303
S32D0000FE885AB27B68DBB21B015BB213435BB2DBB201E07B68DBB2BA6913707B6901337B61FB6801221A71FB6858
S32D0000FEB05A6A7B695B0A13441946F868FFF7ADFD0346FB77FB7F002B40F090807B69C3F308033033FA68134400
S32D0000FED80433BB61BB6803F00103002B03D07B681B09DBB20CE0BB691B7823F00F03DAB27B681B0ADBB203F021
S32D0000FF000F03DBB21343DBB2BA69137073E0FB685A6ABB681B0A13441946F868FFF77DFD0346FB77FB7F002B03
S32D0000FF2862D1BB685B0003F4FF733033FA6813440433BB617B68DAB2BB691A707B689BB21B0A9AB2BB6901330C
S32D0000FF50D2B21A704FE0FB685A6ABB68DB0913441946F868FFF759FD0346FB77FB7F002B40D1BB689B0003F490
S32D0000FF78FE733033FA6813440433BB61BB6903331B781A06BB6902331B781B041343BA690132127812021343C3
S32D0000FFA0BA691278134303F070437A6813437B607B68DAB2BB691A707B689BB21B0A9AB2BB690133D2B21A7053
S32D0000FFC87B681A0CBB690233D2B21A707B681A0EBB690333D2B21A7009E00223FB7706E000BF04E000BF02E07E
S32D0000FFF000BF00E000BFFB6801221A71FB7F18462037BD4680BD80B584B000AF786039603B68012B04D97B68ED
S32D00010018DB693A689A4202D30223FB7338E00023FB737B68DB693A689A4231D239687868FFF717FEB860BB6877
S32D00010040002B26D0BB68012B02D10223FB7323E0BB68B3F1FF3F02D10123FB731CE0002239687868FFF7CAFEF1
S32D000100680346FB73FB7B002B11D17B681B69B3F1FF3F07D07B681B695A1C7B681A617B6801225A71BB683B6045
S32D00010090CBE700BF00E000BFFB7B18461037BD4680BD80B586B000AF786039603B68002B0DD17B68DB683B61DD
S32D000100B83B69002B04D07B68DB693A699A4215D301233B6112E039687868FFF7CAFDB860BB68012B01D8012394
S32D000100E064E07B68DB69BA689A4201D2BB685DE03B683B613B697B617B6901337B617B68DB697A699A4207D3E2
S32D0001010802237B617A693B699A4201D9002349E079697868FFF7A5FDB860BB68002B0ED0BB68B3F1FF3F02D0C9
S32D00010130BB68012B01D1BB6838E07A693B699A42DAD1002332E000BF6FF0704279697868FFF754FE0346FB7370
S32D00010158FB7B002B09D13B68002B06D07A6939687868FFF747FE0346FB73FB7B002B10D17B687A69DA607B689E
S32D000101801B69B3F1FF3F10D07B681B695A1E7B681A617B6801225A7107E0FB7B012B02D14FF0FF3300E001232B
S32D000101A87B617B6918461837BD4680BD80B487B000AF786039607B685B6A04333B613B685B0A7A681268927807
S32D000101D0B3FBF2F37B613B691A1D3A611B68FB60FB68002B01D1002310E07A69FB689A4207D37A69FB68D31A9B
S32D000101F87B613B6904333B61E9E700BF3B691A687B69134418461C37BD4680BC704780B584B000AF78600B46AD
S32D000102207B807B687A88DA807B689B68FB60FB68012B05D07B681B68DB69FA689A4201D3022364E0FB68002B1D
S32D0001024808D17B681B681B78032B03D17B681B689B6AFB60FB68002B13D17B68FA68DA607B681B681B897A88F0
S32D000102709A4201D302234AE07B681B689A6A7B881B091A447B681A6135E07B681B689B789BB21B017B817A881E
S32D000102987B899A421CD37B681B68F9681846FFF7E0FCF860FB68B3F1FF3F01D101232AE0FB68012B05D97B6884
S32D000102C01B68DB69FA689A4201D302231FE07A887B89D31A7B80DEE77B68FA68DA607B681B68F9681846FFF7C5
S32D000102E8A2FC02467B881B091A447B681A617B681B6803F134027B8803F00F035B011A447B685A6100231846AD
S32D000103101037BD4680BD90B585B000AF786039607B68DB8801333B813B89002B03D07B681B69002B01D104231A
S32D00010338C4E03B8903F00F03002B40F0B0807B681B695A1C7B681A617B68DB68002B08D17B681B681B893A896C
S32D000103609A42C0F0A0800423ACE03B891B097A6812689278013A1340002B40F094807B681A687B68DB681946DA
S32D000103881046FFF76EFCF860FB68012B01D8022394E0FB68B3F1FF3F01D101238EE07B681B68DB69FA689A42A6
S32D000103B06DD33B68002B01D1042383E07B681A687B68DB6819461046FFF76BFEF860FB68002B01D1072375E0DE
S32D000103D8FB68012B01D1022370E0FB68B3F1FF3F01D101236AE07B681B6800211846FFF710FB0346002B14BF6E
S32D0001040001230023DBB2002B01D001235AE07B681B6834334FF4007200211846FFF79AFA7B681A687B681C6848
S32D00010428F9681046FFF7FFFB034623630023FB727B681B689B78FA7A9A421CD27B681B6801221A717B681B686E
S32D0001045000211846FFF7E1FA0346002B14BF01230023DBB2002B01D001232BE07B681B681A6B01321A63FB7AD7
S32D000104780133FB72DCE77B681B68196BFA7A7B681B688A1A1A637B68FA68DA607B681B68F9681846FFF7C7FBB0
S32D000104A002467B681A617B683A89DA807B681B6803F134023B8903F00F035B011A447B685A610023184614370A
S32D000104C8BD4690BD80B586B000AF786000217868FFF79DFE0346FB75FB7D002B01D0FB7D3CE07B681A687B6828
S32D000104F01B6919461046FFF790FA0346FB75FB7D002B2BD17B685B693B613B691B78FB73FB7B002B02D1042349
S32D00010518FB7522E03B690B331B7803F00803002B0BD17B689B690B2219463869FFF72CFA0346002B01D101232E
S32D0001054000E00023002B0BD100217868FFF7E3FE0346FB75FB7D002B03D1C6E700BF00E000BFFB7D184618374A
S32D00010568BD4680BD80B584B000AF786000217868FFF74DFE0346FB73FB7B002B21D17B681A687B681B6919467D
S32D000105901046FFF742FA0346FB73FB7B002B13D17B685B691B78BB73BB7BE52B0DD0BB7B002B0AD001217868B0
S32D000105B8FFF7ADFE0346FB73FB7B002B01D1DEE700BFFB7B002B1FD17B681A687B681B6919461046FFF71DFAA6
S32D000105E00346FB73FB7B002B12D17B685B69BB6020220021B868FFF7ADF97B689B690B221946B868FFF784F9CA
S32D000106087B681B6801221A71FB7B18461037BD4680BD000080B588B000AF786039603B681B68FB60FB681B7850
S32D000106302F2B03D0FB681B785C2B03D1FB680133FB60F3E77B689B69BB600B222021B868FFF780F90023FB77BD
S32D0001065800233B613B697B610823BB61FA687B6913441B782E2B2FD17B695A1C7A61FA6813441B78BB77BB7F77
S32D000106802E2B0AD17B69022B07D83B695A1C3A61BA681344BA7F1A70EAE7BB7F2F2B07D0BB7F5C2B04D0BB7F2B
S32D000106A8202B01D90623A7E0FA687B691A443B681A60BB7F202B01D8242200E02022BB680B331A70002397E042
S32D000106D07B695A1C7A61FA6813441B78BB77BB7F202B58D9BB7F2F2B55D0BB7F5C2B52D0BB7F2E2B03D03A69ED
S32D000106F8BB699A420FD3BB69082B02D1BB7F2E2B01D0062378E008233B610B23BB61FB7F9B00FB773AE097F9A0
S32D000107201E30002B08DAFB7F43F00303FB77BB7F803B354AD35CBB77BB7F19463348FFF752F90346002B14BFB9
S32D0001074801230023DBB2002B01D0062354E0BB7F402B07D9BB7F5A2B04D8FB7F43F00203FB770CE0BB7F602B60
S32D0001077009D9BB7F7A2B06D8FB7F43F00103FB77BB7F203BBB773B695A1C3A61BA681344BA7F1A709CE7FA68FB
S32D000107987B691A443B681A60BB7F202B01D8042300E00023BB773B69002B01D1062323E0BB681B78E52B02D1B3
S32D000107C0BB6805221A70BB69082B02D1FB7F9B00FB77FB7F03F00303012B03D1BB7F43F01003BB77FB7F03F0F3
S32D000107E80C03042B03D1BB7F43F00803BB77BB680B33BA7F1A70002318462037BD4680BD88930200089402002F
S32D0001081080B584B000AF786039603B681B782F2B03D03B681B785C2B06D13B6801333B607B6800229A6004E0E4
S32D000108387B681B689A697B689A603B681B781F2B09D800217868FFF7E2FC0346FB737B6800225A6169E03B46D4
S32D0001086019467868FFF7DAFE0346FB73FB7B002B58D17868FFF72AFE0346FB737B689B69DB7ABB73FB7B002B1B
S32D000108881DD0FB7B042B4BD1BB7B03F02003002B0DD07B6800229A607B6800225A610023FB73BB7B03F00403BF
S32D000108B0002B3BD135E0BB7B03F00403002B35D10523FB7332E0BB7B03F00403002B2FD17B685B69BB60BB6884
S32D000108D80B331B7803F01003002B02D10523FB7323E0BB6815331B781B021AB2BB6814331B781BB213431BB2AF
S32D000109009BB21B04BA681B321278120211B2BA681A32127812B20A4312B292B21A437B689A609CE700BF04E01B
S32D0001092800BF02E000BF00E000BFFB7B18461037BD4680BD80B582B000AF786039607B6858787B6803F1340100
S32D0001095001233A6802F0E6FC0346002B14BF01230023DBB2002B01D003234AE07B6803F2322301331B781B0266
S32D000109781AB27B6893F832321BB213431BB2214A934201D0022338E07B686A3303331B781A067B686A33023356
S32D000109A01B781B0413437A686A3201321278120213437A6892F86A20134323F07F43144A934201D100231CE036
S32D000109C87B68863303331B781A067B68863302331B781B0413437A68863201321278120213437A6892F88620CF
S32D000109F0134323F07F43064A934201D1002300E0012318460837BD4680BD00BF55AAFFFF4641540080B592B0A4
S32D00010A1800AFF860B9601346FB71FB681B68FB62FB6A1B78303B3B643B6C092B0BD8FB6A01331B783A2B06D15F
S32D00010A40FB6A0233FB62FB68FA6A1A6002E0A34B1B783B643B6C002B01D00B2367E2A04A3B6C52F82330BB62E8
S32D00010A68BB68BA6A1A60BB6A002B01D10C235AE2BB6A1B78002B1AD0BB6A5B78184602F07FFE034687F8273060
S32D00010A9097F8273003F00103002B0CD1FB79002B07D097F8273003F00403002B01D00A233DE200233BE2BB6A4F
S32D00010AB800221A703B6CDAB2BB6A5A70BB6A5B78184602F0F1F9034687F8273097F8273003F00103002B01D017
S32D00010AE0032324E2FB79002B07D097F8273003F00403002B01D00A2319E20023FB63F96BB86AFFF71BFF0346E1
S32D00010B0887F8473097F84730012B22D1BB6A03F5F9733B623B6A04331B78002B19D03B6A0B331B781A063B6ABF
S32D00010B300A331B781B0413433A6A09321278120213433A6A083212781343FB63F96BB86AFFF7F4FE034687F82C
S32D00010B58473097F84730032B01D10123E3E197F84730002B01D00D23DDE1BB6A93F840301B021AB2BB6A93F860
S32D00010B803F301BB213431BB2B3F5007F01D00D23CDE1BB6A93F84B301B021AB2BB6A93F84A301BB213431BB2E3
S32D00010BA89BB2BB63BB6B002B12D1BB6A93F85B301A06BB6A93F85A301B041343BA6A92F8592012021343BA6AC0
S32D00010BD092F858201343BB63BB6ABA6B1A62BB6A93F84430FB77BB6AFA7FDA70FB7F012B04D0FB7F022B01D04A
S32D00010BF80D2398E1FA7FBB6B02FB03F3BB63BB6A93F84130FB77BB6AFA7F9A70FB7F002B05D0FA7FFB7F013B91
S32D00010C201340002B01D00D2381E1BB6A93F846301B021AB2BB6A93F845301BB213431BB29AB2BB6A1A81BB6A6F
S32D00010C481B8903F00F03002B01D00D236BE1BB6A93F848301B021AB2BB6A93F847301BB213431BB29BB27B6309
S32D00010C707B6B002B12D1BB6A93F857301A06BB6A93F856301B041343BA6A92F8552012021343BA6A92F85420B0
S32D00010C9813437B63BB6A93F843301B021AB2BB6A93F842301BB213431BB2BB83BB8B002B01D10D2337E1BA8BCD
S32D00010CC0BB6B1A44BB6A1B891B091344BB617A6BBB699A4206D20D2329E100BF4A170020441700207A6BBB6966
S32D00010CE8D31ABA6A9278B3FBF2F37B617B69002B01D10D2317E1012387F847307B6940F6F572934202D90223DA
S32D00010D1087F847307B694FF6F572934202D9032387F847307B699A1CBB6ADA61FA6BBB691A44BB6ADA62BA8BDB
S32D00010D38FB6B1A44BB6A5A6297F84730032B1ED1BB6A1B89002B01D00D23ECE0BB6A93F863301A06BB6A93F8F0
S32D00010D6062301B041343BA6A92F8612012021343BA6A92F860201A43BB6A9A62BB6ADB699B003B631FE0BB6A52
S32D00010D881B89002B01D10D23CDE0BB6A5A6ABB6B1A44BB6A9A6297F84730022B03D1BB6ADB695B000AE0BB6A56
S32D00010DB0DA6913465B0013445A08BB6ADB6903F0010313443B63BB6A1A6A3B6B03F2FF135B0A9A4201D20D2375
S32D00010DD8A9E0BB6A4FF0FF321A61BB6A0022DA6097F84730032B40F08680BB6A00225A71BB6A93F865301B02F4
S32D00010E001AB2BB6A93F864301BB213431BB29BB21A46FB6B1A44BB6A5A61BB6A5878BB6A03F13401BB6A5A6947
S32D00010E28012302F07BFA0346002B39D1BB6A93F833321B021AB2BB6A93F832321BB213431BB23B4A93422BD13A
S32D00010E50BB6A93F837301A06BB6A93F836301B041343BA6A92F8352012021343BA6A92F834201343314A93429C
S32D00010E7816D1BB6A93F81B321A06BB6A93F81A321B041343BA6A92F8192212021343BA6A92F818221343284AD3
S32D00010EA0934201D1012300E00023002B27D0BB6A93F823321A06BB6A93F822321B041343BA6A92F82122120290
S32D00010EC81343BA6A92F820221A43BB6ADA60BB6A93F81F321A06BB6A93F81E321B041343BA6A92F81D22120262
S32D00010EF01343BA6A92F81C221A43BB6A1A61BB6A97F847201A700F4B1B8801339AB20D4B1A800C4B1A88BB6A62
S32D00010F18DA80BB6A00221A63BB6A00221A71BB6A00229A61002318464837BD4680BD00BF55AAFFFF5252614136
S32D00010F40727241614817002080B582B000AF78600B467B807B68002B08D07B681B78002B04D07B68DB887A88A0
S32D00010F689A4201D0092311E07B685B78184602F007FC034603F00103002B14BF01230023DBB2002B01D0032353
S32D00010F9000E0002318460837BD4680BD80B485B000AF03463960FB71FB79002B01D00B2316E0FB790D4A52F843
S32D00010FB82330FB60FB68002B02D0FB6800221A703B68002B02D03B6800221A70FB7905493A6841F823200023FB
S32D00010FE018461437BD4680BC704700BF4417002080B592B000AFF860B9601346FB71FB6800221A60FB7903F047
S32D000110081F03FB71FB7923F00103DAB207F11C0107F108031846FFF7F9FC034687F8473007F110037B6397F8FC
S32D000110304730002B09D1BA6807F11C0311461846FFF7E6FB034687F847303B6B3B6497F84730002B05D13B6C1E
S32D00011058002B02D1062387F84730FB7903F01C03002B00F0B18097F84730002B12D097F84730042B07D107F162
S32D000110801C031846FFF772FA034687F84730FB7943F00803FB713B6B3B6412E03B6C0B331B7803F01103002B24
S32D000110A803D0072387F8473007E0FB7903F00403002B02D0082387F8473097F84730002B40F0A080FB7903F0CB
S32D000110D00803002B00F09A800023FB633B6C0E33FA6BD2B21A70FB6B9BB21B0A9AB23B6C0F33D2B21A70FB6B54
S32D000110F81A0C3B6C1033D2B21A70FB6B1A0E3B6C1133D2B21A703B6C0B3300221A703B6C1C3300221A703B6C4A
S32D000111201D3300221A703B6C1E3300221A703B6C1F3300221A703B6C15331B781B021AB23B6C14331B781BB2A2
S32D0001114813431BB29BB21B043A6C1B321278120211B23A6C1A32127812B20A4312B292B21343BB633B6C1A3398
S32D0001117000221A703B6C1B3300221A703B6C143300221A703B6C153300221A70FB6901221A71BB6B002B39D062
S32D00011198FB691B6BFB63FB69B96B1846FEF72FFF034687F8473097F84730002B2AD1FB69BA6B013ADA60FB690A
S32D000111C0F96B1846FEF729FC034687F847301DE097F84730002B19D13B6C0B331B7803F01003002B03D004232A
S32D000111E887F847300EE0FB7903F00203002B09D03B6C0B331B7803F00103002B02D0072387F8473097F84730F2
S32D00011210002B0FD1FB7903F00803002B03D0FB7943F02003FB71FB691A6BFB68DA61FB683A6C1A6297F84730EC
S32D00011238002B42D1FB68FA799A713B6C15331B781B021AB23B6C14331B781BB213431BB29BB21B043A6C1B322D
S32D000112601278120211B23A6C1A32127812B20A4312B292B21A43FB681A613B6C1F331B781A063B6C1E331B78F7
S32D000112881B0413433A6C1D321278120213433A6C1C3212781A43FB68DA60FB6800229A60FB6800229A61FB68FF
S32D000112B000225A62FA69FB681A60FB69DA88FB689A8097F8473018464837BD4680BD80B58AB000AFF860B960FC
S32D000112D87A603B60BB68BB613B6800221A60FB681A68FB689B8819461046FFF729FE0346FB75FB7D002B01D08A
S32D00011300FB7D7EE1FB689B795BB2002B01DA022377E1FB689B7903F00203002B01D107236FE1FB68DA687B6872
S32D000113281A44FB68DB689A4201D200237B607B68002B00F05081FB689B68C3F30803002B40F01381FB689B689A
S32D000113505B0ADAB2FB681B689B78013BDBB21340BB75BB7D002B49D1FB689B68002B10D1FB681B697B627B6AA0
S32D00011378002B1FD1FB681B6800211846FEF78DFE7862FB687A6A1A6114E0FB685B6A002B07D0FB689B681946C7
S32D000113A0F868FEF707FF786208E0FB681A68FB685B6919461046FEF774FE78627B6A002B00F00C817B6A012B61
S32D000113C808D1FB689B7963F07F03DAB2FB689A71022312E17B6AB3F1FF3F08D1FB689B7963F07F03DAB2FB68E4
S32D000113F09A71012305E1FB687A6A5A61FB689B7903F04003002B22D0FB681B685878FB6803F12801FB689A6951
S32D00011418012302F067F80346002B14BF01230023DBB2002B08D0FB689B7963F07F03DAB2FB689A710123E0E0E8
S32D00011440FB689B7923F04003DAB2FB689A71FB681A68FB685B6919461046FEF7E8FB38613B69002B08D1FB6879
S32D000114689B7963F07F03DAB2FB689A710223C4E0BB7D3A6913443B617B685B0AFB61FB69002B49D0BA7DFB69F4
S32D000114901344FA6812689278934206D9FB681B689B781A46BB7DD31AFB61FB681B685878FB69DBB23A69B969F6
S32D000114B802F018F80346002B14BF01230023DBB2002B08D0FB689B7963F07F03DAB2FB689A71012391E0FB68A7
S32D000114E09A693B69D31AFA699A4215D9FB6803F12800FB689A693B69D31A5B02BA6913444FF400721946FEF7C6
S32D0001150803FAFB689B7923F04003DAB2FB689A71FB695B023B6248E0FB689B693A699A4220D0FB689A68FB68CC
S32D00011530DB689A420ED2FB681B685878FB6803F1280101233A6901F0EDFE0346002B01D0012300E00023002B1D
S32D0001155808D0FB689B7963F07F03DAB2FB689A7101234AE0FB683A699A61FB689B68C3F30803C3F500733B6208
S32D000115803A6A7B689A4201D97B683B62FB689B68C3F308032833FA6813443A6AB9691846FEF7B6F9FB689B7905
S32D000115A843F04003DAB2FB689A71BA693B6A1344BB61FB689A683B6A1A44FB689A603B681A683B6A1A443B68D9
S32D000115D01A607A683B6AD31A7B60ACE600BFFB689A68FB68DB689A4203D9FB689A68FB68DA60FB689B7943F063
S32D000115F82003DAB2FB689A71002318462837BD4680BD80B586B000AF78607B681A687B689B8819461046FFF77F
S32D0001162093FC0346FB75FB7D002B40F0AC807B689B7903F02003002B00F0A5807B689B7903F04003002B1BD0C4
S32D000116487B681B6858787B6803F128017B689A69012301F047FF0346002B14BF01230023DBB2002B01D00123C1
S32D000116708AE07B689B7923F04003DAB27B689A717B681A687B68DB6919461046FEF7C5F90346FB75FB7D002BCA
S32D0001169875D17B681B6A3B613B690B331A783B690B3342F02002D2B21A707B68DA683B691C33D2B21A707B6818
S32D000116C0DB689BB21B0A9AB23B691D33D2B21A707B68DB681A0C3B691E33D2B21A707B68DB681A0E3B691F3365
S32D000116E8D2B21A707B681A693B691A33D2B21A707B681B699BB21B0A9AB23B691B33D2B21A707B681B691A0CAE
S32D000117103B691433D2B21A707B681B691B0C9BB21B0A9AB23B691533D2B21A700023FB603B691633FA68D2B21A
S32D000117381A70FB689BB21B0A9AB23B691733D2B21A70FB681A0C3B691833D2B21A70FB681A0E3B691933D2B256
S32D000117601A707B689B7923F02003DAB27B689A717B681B6801221A717B681B681846FEF7B0F90346FB75FB7D82
S32D0001178818461837BD4680BD80B584B000AF78607868FFF736FF0346FB73FB7B002B02D17B6800221A60FB7B2A
S32D000117B018461037BD4680BD80B590B000AF786039607B681A687B689B8819461046FFF7BBFB034687F83F308D
S32D000117D897F83F30002B02D097F83F3043E27B689B795BB2002B01DA02233CE27B685B6A002B00F0F8803B6899
S32D00011800B3F1FF3F66D17B685B6AFB62FB6A1A1DFA621B687B6102233B637B681B69BB63BB6B002B46D0BB6B6F
S32D000118283B6100237B633B6B02333B63BB6BFB607B6B01337B637B681B68B96B1846FEF710FAB863BB6B012BAE
S32D0001185008D87B689B7963F07F03DAB27B689A71022304E2BB6BB3F1FF3F08D17B689B7963F07F03DAB27B681C
S32D000118789A710123F7E1FB680133BA6B9A4200D1D4E73A6B7B699A4209D8FB6A1A1DFA627A6B1A60FB6A1A1DDD
S32D000118A0FA623A691A607B681B68DB69BA6B9A4200D2B8E77B685B6A3A6B1A603A6B7B699A4203D8FB6A0022F6
S32D000118C81A60CEE1112387F83F30CAE17B68DB683A689A4202D97B68DB683B607B683A689A603B68002B00F07E
S32D000118F0BC813B68013B19467868FEF75BFC02467B685A617B681A687B685B6919461046FEF78DF9B861BB69C3
S32D00011918002B08D17B689B7963F07F03DAB27B689A7102239FE13B68013B5B0A7A6812689278013A1340BA6956
S32D000119401344BB617B689B68C3F30803002B00F08C817B689B69BA699A4200F086817B689B7903F04003002B01
S32D0001196822D07B681B6858787B6803F128017B689A69012301F0B6FD0346002B14BF01230023DBB2002B08D05C
S32D000119907B689B7963F07F03DAB27B689A71012365E17B689B7923F04003DAB27B689A717B681B6858787B6898
S32D000119B803F128010123BA6901F0B0FC0346002B14BF01230023DBB2002B08D07B689B7963F07F03DAB27B68A6
S32D000119E09A71012343E17B68BA699A613DE17B68DB683A689A4208D97B689B7903F00203002B02D17B68DB68CE
S32D00011A083B607B689B683B6200237B627B687A6A9A603B68002B00F0C1807B681B689B785B02FB613B6A002BCF
S32D00011A301BD03B685A1EFB69B2FBF3F23B6A591EFB69B1FBF3F39A420FD33B6A5A1EFB695B421A407B689A6066
S32D00011A587B689B683A68D31A3B607B685B69BB622BE07B681B69BB62BB6A002B22D17B681B6800211846FEF7DF
S32D00011A8010FBB862BB6A012B08D17B689B7963F07F03DAB27B689A710223E8E0BB6AB3F1FF3F08D17B689B79DE
S32D00011AA863F07F03DAB27B689A710123DBE07B68BA6A1A617B68BA6A5A61BB6A002B6DD03A68FB699A4246D90F
S32D00011AD07B689B7903F00203002B0CD07B681B68B96A1846FEF7DDFAB862BB6A002B09D1FB693B6033E07B6805
S32D00011AF81B68B96A1846FEF7B4F8B862BB6AB3F1FF3F08D17B689B7963F07F03DAB27B689A710123A7E0BB6A0A
S32D00011B20012B05D97B681B68DB69BA6A9A4208D37B689B7963F07F03DAB27B689A71022395E07B68BA6A5A6165
S32D00011B487B689A68FB691A447B689A603A68FB69D31A3B60B4E77B689A683B681A447B689A603B68C3F308039A
S32D00011B70002B17D07B681B68B96A1846FEF757F878627B6A002B08D17B689B7963F07F03DAB27B689A710223DB
S32D00011B9869E03B685B0A7A6A13447B627B689B68C3F30803002B4BD07B689B697A6A9A4246D07B689B7903F021
S32D00011BC04003002B22D07B681B6858787B6803F128017B689A69012301F088FC0346002B14BF01230023DBB2C6
S32D00011BE8002B08D07B689B7963F07F03DAB27B689A71012337E07B689B7923F04003DAB27B689A717B681B681D
S32D00011C1058787B6803F1280101237A6A01F082FB0346002B14BF01230023DBB2002B08D07B689B7963F07F0375
S32D00011C38DAB27B689A71012315E07B687A6A9A617B689A687B68DB689A420AD97B689A687B68DA607B689B7965
S32D00011C6043F02003DAB27B689A7197F83F3018464037BD4680BD80B586B000AF03463960FB71FB793B730123C4
S32D00011C887B6107F1100307F10C017A693868FFF71AFB3B697A699A4201D1012301E04FF0FF3318461837BD4658
S32D00011CB080BD80B584B000AF786039600023FB607B681B78002B18D07B681B7839681846FFF7D1FF0346B3F110
S32D00011CD8FF3F0CBF01230023DBB2002B02D04FF0FF3307E07B6801337B60FB680133FB60E2E7FB6818461037F6
S32D00011D00BD4680BD80B485B000AF786039600123FB600023BB600023BB60BA683B689A4208DAFB687A6802FB2B
S32D00011D2803F3FB60BB680133BB60F2E7FB6818461437BD4680BC7047B0B59AB000AF78613961FA600023BB6481
S32D00011D50BB6C7B647B6CB3F1FF3F00F0F5823B695A1C3A611B7887F84F3097F84F30002B00F0E78297F84F3048
S32D00011D78252B0ED097F84F3079691846FFF777FF78647B6CB3F1FF3F00F0CD8201237B64C9E2002387F8673089
S32D00011DA00023BB653B695A1C3A611B7887F84F3097F84F30302B09D1012387F867303B695A1C3A611B7887F847
S32D00011DC84F300CE097F84F302D2B08D1022387F867303B695A1C3A611B7887F84F3097F84F302E2B05D13B69E0
S32D00011DF05A1C3A611B7887F84F3097F84F302F2B15D997F84F30392B11D8BA6D13469B0013445B001A4697F8B5
S32D00011E184F301344303BBB653B695A1C3A611B7887F84F30E5E797F84F306C2B03D097F84F304C2B0BD197F8C0
S32D00011E40673043F0040387F867303B695A1C3A611B7887F84F3097F84F30002B00F0738297F84F3087F84E301D
S32D00011E6897F84E30602B08D997F84E307A2B04D897F84E30203B87F84E3097F84E30423B162B00F2788101A286
S32D00011E9052F823F05F210100492101006F2101007F210100991F01007F2101007F2101007F2101007F2101006B
S32D00011EB87F2101007F2101007F2101007F210100672101007F2101007F2101007F210100F11E01007F2101005A
S32D00011EE06F2101007F2101007F21010077210100FB681A1DFA601B68FB620023FB65FA6AFB6D13441B78002B2F
S32D00011F0803D0FB6D0133FB65F5E70023BB6497F8673003F00203002B07D1FB6D5A1CFA65BA6D9A4201D901235E
S32D00011F3000E00023002B09D079692020FFF79BFE78647B6CBA6C1344BB64E4E77969F86AFFF7AFFE78647B6CF6
S32D00011F58BA6C1344BB64FB6D5A1CFA65BA6D9A428CBF01230023DBB2002B09D079692020FFF77DFE78647B6C05
S32D00011F80BA6C1344BB64EAE77B6CB3F1FF3F00F0D081BB6C7B64CCE1FB68073323F0070303F10802FA60D3E93A
S32D00011FA80023C7E90E23D7E90E23C7E90C2300237B654FF000024FF00003D7E90E010EF097FE0346002B18D0F2
S32D00011FD079692D20FFF74FFE78647B6CBA6C1344BB64BC6BFB6B83F00045C7E90E453B6B3B607B6B83F00043EC
S32D00011FF87B60D7E90023C7E90C23D7E90C010EF0B5FE0346002B0ED04FF00002AB4BD7E90C010EF025FD0246E1
S32D000120200B46C7E90C237B6D01337B65E9E77B6D013BFB65FB6DB3F1FF3F35D0FB6D19460A20FFF75FFE034635
S32D0001204818460EF079FB02460B46D7E90E010EF007FD02460B46104619460EF087FE0346BB62BA6A964B83FB75
S32D0001207002139910D317C91A0B469B000B445B00D31ABB62BB6A3033BB62BB6ADBB279691846FFF7F0FD7864C0
S32D000120987B6CBA6C1344BB64FB6D013BFB65C5E779692E20FFF7E3FD78647B6CBA6C1344BB64BB6D002B01D15C
S32D000120C00323BB6501233B663A6EBB6D9A4233D83B6E19460A20FFF715FE034618460EF02FFBD7E90E230EF036
S32D000120E895FB02460B46104619460EF03FFE0346BB62BA6A724B83FB02139910D317C91A0B469B000B445B00CA
S32D00012110D31ABB62BB6A3033BB62BB6ADBB279691846FFF7A8FD78647B6CBA6C1344BB643B6E01333B66C7E7D9
S32D000121387B6CB3F1FF3F00F0FA80BB6C7B64F6E0FB681A1DFA601B68DBB279691846FFF78EFD7864ECE00223D7
S32D0001216087F8663013E0082387F866300FE00A2387F866300BE0102387F8663007E097F84F3079691846FFF779
S32D0001218876FD7864D4E097F8673003F00403002B04D0FB681A1DFA601B680CE097F84E30442B04D1FB681A1DB8
S32D000121B0FA601B6803E0FB681A1DFA601B683B6597F84E30442B0BD13B6D002B08DA3B6D5B423B6597F8673011
S32D000121D843F0080387F8673000233B6697F866203B6DB3FBF2F101FB02F29B1A87F84E3097F866303A6DB2FB57
S32D00012200F3F33B6597F84E30092B0BD997F84F30782B01D1272200E0072297F84E30134487F84E303B6E5A1CAF
S32D000122283A6697F84E203032D2B2603307F108010B4403F8502C3B6D002B03D03B6E0F2B00D8CBE797F8673071
S32D0001225003F00803002B09D03B6E5A1C3A66603307F1080213442D2203F8502C3B6EFB6597F8673003F00103C6
S32D00012278002B01D0302300E0202387F84E300023BB6497F8673003F00203002B07D1FB6D5A1CFA65BA6D9A4225
S32D000122A001D9012300E00023002B0FD097F84E3079691846FFF7DFFC78647B6CBA6C1344BB64E2E7000024405A
S32D000122C8676666663B6E013B3B6607F118023B6E13441B7879691846FFF7C9FC78647B6CBA6C1344BB643B6E20
S32D000122F0002B00D0EAE7FB6D5A1CFA65BA6D9A428CBF01230023DBB2002B09D079692020FFF7B1FC78647B6C08
S32D00012318BA6C1344BB64EAE77B6CB3F1FF3F07D0BB6C7B6404E000BF02E000BF00E000BFBA6C7B6C1344BB641D
S32D0001234008E500BF00E000BF7B6CB3F1FF3F01D17B6C00E0BB6C18466837BD46B0BD00BF80B588B000AF78607A
S32D00012368396080233B610F23FB604FF0FF337B610223FB61FB69B3F5807F23D80123BB61BB69102B1AD8FB6918
S32D00012390BA6902FB03F33A6803FB02F27B68D31ABB60BB68002B09DBBB687A699A4205D9BB687B61FB693B6198
S32D000123B8BB69FB60BB690133BB61E1E7FB695B00FB61D7E71D4BDB6A1C4A23F00803D3621A4BDB6A23F47F2399
S32D000123E023F47F63BB613B695B081B029AB2FB68013B1B01DBB21A43BB691343114A43F46023D3620F4B5B6AC1
S32D0001240803F00803002B0CBF01230023DBB2002B03D00A2001F0DCFAF0E7084BDB6A074A43F00803D362054B6B
S32D000124301B6B044A43F48013136300BF2037BD4680BD00BF00100B4080B582B000AF786039607B6800221A60F3
S32D00012458414B424ADA62404BDB6A03F08073002B14BF01230023DBB2002B00D0F3E73A4B0022C3F8C020384BDF
S32D000124804FF481325A60364B28229A62344B4FF001125A643B689B6833491846FFF760FF2F4B5B6A03F003031A
S32D000124A8002B14BF01230023DBB2002B00D0F3E72C4B40F243421A602A4B40F243425A60284B4FF488629A6036
S32D000124D0264B40F24342DA60244B40F243421A61224B40F243425A61214B03F580531B6B1F4A43F4003302F574
S32D000124F880521363184B4FF6FF721A63164B1B4A5A63154BDB6A144A43F00063D362124BDB6A03F00063002B63
S32D0001252014BF01230023DBB2002B00D0F3E70C4B5B6A03F48033002B14BF01230023DBB2002B02D07B68012275
S32D000125481A60054B1B6B044A43F080031363002318460837BD4680BD00100B400080000160CC050000D0044079
S32D0001257000700440B3007F0080B400AF064B5A6A40F207331340002B14BF01230023DBB21846BD4680BC704779
S32D0001259800100B4080B485B000AF7860074B1B6B7A681340FB60FB68002B00D1F6E7FB6818461437BD4680BCDA
S32D000125C0704700BF00100B4080B584B000AF78607B681B7803F03F03764A52F82330FB60FB68002B05D17B6881
S32D000125E81B78002B01D00123DCE0714B1B6B704A43F0800313636E4B5B6A03F00103002B14BF01230023DBB2E6
S32D00012610002B00D0F3E7684A7B685B689360FB6823F44003FB607B685B789B0503F44003FA681343FB607B68DD
S32D000126385B78022B03D1FB6843F40013FB607B685B78042B16D1FB6803F44033B3F5003F08D1FB6823F4403351
S32D00012660FB60FB6843F44033FB6007E0FB6823F44033FB60FB6843F40033FB604E4B5B684D4A9BB253607B685B
S32D00012688DB68002B2AD0FB6803F44033B3F5403F03D0FB6843F40013FB607B681B7A002B03D0FB6843F01003CD
S32D000126B0FB607B68DB68012B03D9FB6843F02003FB607B68DB68B3F1FF3F0BD03A4B5A687B68DB681B0438496E
S32D000126D813434B60FB6843F00203FB60344B00221A60334AFB68D3603248FFF753FF0346012B14BF012300235D
S32D00012700DBB2002B09D02C4B1B6B2B4A43F4702343F001031363012348E0274B1B6B03F08003002B14BF012354
S32D000127280023DBB2002B07D0214B1B6B204A43F001131363012335E01D4B1B6B03F48033002B14BF01230023A1
S32D00012750DBB2002B08D0184B1B6B174A43F0011313634FF0FF3321E0FB6803F44033002B15D0114B1A697B68B2
S32D000127781A61FB6803F44033B3F5803F0BD10C4B5A697B685A610A4B9A697B689A61084BDA697B68DA61064BB4
S32D000127A01B6B054A43F001031363002318461037BD4680BD2494020000100B4001000E0080B592B000AF78605E
S32D000127C8396000237B643B68BB63994B7B637B6B002B02D140F601235FE3964B3B633B6B002B02D140F60B23BD
S32D000127F057E33B6B1B68FB62FB6A002B02D140F60B234EE37B6841F20932934200F23F837B68B3F5985F08D8C6
S32D000128187B68032B00F01A837B68092B00F0098331E37B68A3F59853013B082B00F22B8301A252F823F000BF18
S32D0001284065280100512B0100AD2D0100672B0100A52B0100CB2C0100132D0100552C01006F2C01007649786B26
S32D00012868FFF7EEFD78647B6C002B40F01083002387F84330002387F82B30002387F82A30002387F82930002383
S32D0001289087F84230002387F8283000233B7200237B720023FB6000233B7400237B6107F108031846FFF788FE22
S32D000128B80346002B14BF01230023DBB2002B02D001237B64E8E240F24C4001F081F808233B7200237B724FF4B9
S32D000128E0D573FB6000233B7400237B6107F108031846FFF769FEF863FB6B002B09D1BA69FB689A4202D0012379
S32D000129087B64C9E2012387F84230012387F8283097F82830002B00F0A58037233B7200237B720023FB60002327
S32D000129303B7400237B6107F108031846FFF744FEF863FB6B002B02D001237B64A8E269233B7200237B7200237A
