S01100002E2E2F50726F746575732E73313966
S32D0000C000000000205DC2000011C3000017C300001DC3000023C3000029C3000000000000000000000000000073
S32D0000C028000000002FC3000035C30000000000003BC3000041C300009DD70000A9D70000B5D70000C1D70000E6
S32D0000C050CDD70000D9D70000E5D70000F1D70000FDD7000009D8000015D8000021D800002DD8000039D8000039
S32D0000C07845D8000051D800005DD8000069D8000075D8000081D800008DD8000099D80000A5D80000B1D800005C
S32D0000C0A0BDD80000C9D80000D5D80000E1D80000EDD80000F9D8000005D9000011D900001DD9000029D9000080
S32D0000C0C835D9000041D900004DD9000059D9000065D9000071D900007DD9000089D9000095D90000A1D90000A2
S32D0000C0F0ADD900005D510100B9D90000C5D90000D1D90000DDD90000E9D90000F5D9000001DA00000DDA00000B
S32D0000C11819DA000025DA000031DA00003DDA000049DA000055DA000061DA00006DDA000079DA000085DA00005F
S32D0000C14091DA00009DDA0000A9DA0000B5DA0000A1270100C1DA0000CDDA0000D9DA0000E5DA0000F1DA000095
S32D0000C168FDDA000009DB000015DB000021DB00002DDB000039DB000045DB000051DB00005DDB000069DB00001E
S32D0000C19075DB000081DB00008DDB0000E1230100A92201004523010021D500008124010099DB0000A5DB0000A3
S32D0000C1B8B1DB0000D086020000000020E0160000D08602000000FF1F00000000E0160020EC0600000000FF1FC3
S32D0000C1E00000000080B489B000AFF860B9607A60BB68FB61FB68BB6100237B617A697B689A420BD2BA69131DFB
S32D0000C208BB61FB69191DF96112681A607B6904337B61EFE700BF2437BD4680BC704780B485B000AF786039609E
S32D0000C2307B68FB600023BB60BA683B689A4208D2FB681A1DFA6000221A60BB680433BB60F2E700BF1437BD46FE
S32D0000C25880BC704780B586B000AF72B6234B4CF220521A80214B4DF628121A80204B4FF4E9721A801F4B7B615F
S32D0000C2807B691F4A934214D27B691A1D7A611B683B617B691A1D7A611B68FB607B691A1D7A611B68BB60BA68E9
S32D0000C2A8F9683869FFF79AFFE6E77B69134A93420ED27B691A1D7A611B68FB607B691A1D7A611B68BB60B9688B
S32D0000C2D0F868FFF7A8FFECE70B4B7B600B4A7B681A6013F0BDFC62B601F0E2F900F0CCFEFEE700BF0E2005401C
S32D0000C2F800200540BCC10000D4C10000E4C1000008ED00E000C0000080B400AFFEE780B400AFFEE780B400AFF4
S32D0000C320FEE780B400AFFEE780B400AFFEE780B400AFFEE780B400AFFEE780B400AFFEE780B400AFFEE780B426
S32D0000C34800AFFEE7FFFFFFFFFFFFFFFFFFFFFFFFFFFFFFFFFFFFFFFFFFFFFFFFFFFFFFFFFFFFFFFFFFFFFFFF57
S32D0000C370FFFFFFFFFFFFFFFFFFFFFFFFFFFFFFFFFFFFFFFFFFFFFFFFFFFFFFFFFFFFFFFFFFFFFFFFFFFFFFFFC7
S32D0000C398FFFFFFFFFFFFFFFFFFFFFFFFFFFFFFFFFFFFFFFFFFFFFFFFFFFFFFFFFFFFFFFFFFFFFFFFFFFFFFFF9F
S32D0000C3C0FFFFFFFFFFFFFFFFFFFFFFFFFFFFFFFFFFFFFFFFFFFFFFFFFFFFFFFFFFFFFFFFFFFFFFFFFFFFFFFF77
S32D0000C3E8FFFFFFFFFFFFFFFFFFFFFFFFFFFFFFFFFFFFFFFFFFFFFFFFFFFFFFFFFFFFFFFFFFFFFFFFFEFFFFFF50
S32D0000C41010B5054C237833B9044B13B10448AFF300800123237010BDE0160020000000004085020008B5034B74
S32D0000C4381BB103490348AFF3008008BD00000000E41600204085020080B483B000AF78607B6823F00043184626
S32D0000C4600C37BD4680BC704780B582B000AF7860786811F08DF8034618460837BD4680BD80B582B000AF78600D
S32D0000C488786811F09DF9034618460837BD4680BD80B483B000AF786039607B68084ADA607B683A681A607B6811
S32D0000C4B000225A607B6800229A607B6818460C37BD4680BC704700BF295C2341B0B590B000AFF860B960134643
S32D0000C4D8FB71FB68DB681946B86812F09DF803461C46FB681B68184611F08EFF03461946204611F0DDFF03465D
S32D0000C500184612F0B5F90346FB63FB6800225A60FB6800229A600023BB638A4805F040FE03467B63884805F068
S32D0000C5283BFE03463B630023FB620023BB6205F00DFDC7E9080105F009FDC7E90601814B1B681946804801F034
S32D0000C550B7FB804B1B6819467F4801F0B1FBFB685A68FB689B681344DA0F13445B101A46FB6B934240F3F4802B
S32D0000C578724805F011FE03461A467B6B934214BF01230023DBB2002B0CD06C4805F004FE03467B63FB685B68CD
S32D0000C5A05A1CFB685A60BB6A0133BB62664805F0F7FD03461A463B6B934214BF01230023DBB2002B0CD0604853
S32D0000C5C805F0EAFD03463B63FB689B685A1CFB689A60FB6A0133FB6205F0B8FCD7E9082311F06EF902460B46BE
S32D0000C5F01046194601231C464FF00002574B11F0A1FD0346002B01D100231C46E3B2002B00F09180BB6A002B84
S32D0000C61805D1FB6A002B02D1BB6B0133BB63FB6A002B01D10123FB62BB6A002B01D10123BB62FB79002B66D028
S32D0000C640FA6ABB6A9A4230DDF86A11F0E1FE0446B86A11F0DDFE03461946204611F0E0FF03461A46394B1B6832
S32D0000C6681946104611F01CFE03461A46354B1A60F86A11F0C9FE0446B86A11F0C5FE03461946204611F0C8FF01
S32D0000C69003461A462F4B1B681946104611F004FE03461A462B4B1A6031E0BA6AFB6A9A422DDD264B1C68B86AEE
S32D0000C6B811F0AAFE0546F86A11F0A6FE03461946284611F0A9FF03461946204611F0E6FD03461A461B4B1A601F
S32D0000C6E01C4B1C68B86A11F093FE0546F86A11F08FFE03461946284611F092FF03461946204611F0CFFD034686
S32D0000C7081A46124B1A600F4B1B6819460E4801F0D3FA0E4B1B6819460D4801F0CDFA0023FB620023BB6205F07F
S32D0000C73011FCC7E90801BB6B042B7FF710AF0023FB630CE70C17002010170020000000201417002004000020FE
S32D0000C7581C1700200000D03F1B4801F06BFA1B4801F068FA05F0F2FBD7E9062311F0A8F802460B46C7E9042306
S32D0000C780154806F030FE1549134807F0C2F8144B1B681946104807F0CFF812490E4807F0B8F8114B1B681946B3
S32D0000C7A80B4807F0C5F80F49094807F0AEF8B968074807F0BDF8D7E90423054807F0CBF800BF4037BD46B0BD66
S32D0000C7D0141700201C170020281A0020DC63020000000020F0630200040000200064020090B58BB000AF7860F4
S32D0000C7F839607B68DB681946386811F00DFF03461C467B681B68184611F0FEFD03461946204611F04DFE03463A
S32D0000C820184612F025F80346FB617B6800225A607B6800229A603E4805F0B2FC03467B623C4805F0ADFC034650
S32D0000C8483B6205F083FBC7E90401394B1B6883F000431946374801F02FFA374B1B6883F000431946354801F0C0
S32D0000C87027FA7B685A687B689B681344DA0F13445B101A46FB6993422EDD294805F088FC03461A467B6A9342FB
S32D0000C89814BF01230023DBB2002B09D0224805F07BFC03467B627B685B685A1C7B685A601E4805F071FC034601
S32D0000C8C01A463B6A934214BF01230023DBB2002BCFD0184805F064FC03463B627B689B685A1C7B689A60C4E780
S32D0000C8E8144801F0A7F9154801F0A4F905F02EFBD7E9042310F0E4FF02460B46C7E902230F4806F06CFD0F49E6
S32D0000C9100D4806F0FEFF39680B4807F00DF8D7E90223094807F01BF800BF2C37BD4690BD0C1700201017002085
S32D0000C9380000002014170020040000201C170020281A00200064020080B58AB000AFF860B9601346FB71FB6870
S32D0000C96000225A60FB6800229A60574BFB61B86811F00AF952A3D3E9002311F05DF902460B46104619464FF074
S32D0000C9880002504B11F07EFA02460B461046194611F030FC0346BB61B969F86911F088FD03461A46FB68DB6833
S32D0000C9B01946104611F034FE03467B61FB681B68184611F025FD03467969184611F074FD0346184611F04CFFF7
S32D0000C9D803463B613C4805F0DFFB03467B623B4805F0DAFB03463B62FB79002B0ED1384B1B6883F00043194607
S32D0000CA00364801F05DF9364B1B681946354801F057F90DE0304B1B681946304801F050F92F4B1B6883F0004373
S32D0000CA2819462E4801F048F9FB685A68FB689B681344DA0F13445B101A463B6993422EDD214805F0A9FB03461D
S32D0000CA501A467B6A934214BF01230023DBB2002B09D01B4805F09CFB03467B62FB685B685A1CFB685A601748C6
S32D0000CA7805F092FB03461A463B6A934214BF01230023DBB2002BCFD0104805F085FB03463B62FB689B685A1CEB
S32D0000CAA0FB689A60C4E70D4801F0C8F80D4801F0C5F800BF2837BD4680BD00BFAFF300806F1283C0CA21094020
S32D0000CAC800007840008066400C170020101700200000002014170020040000201C1700202DE9B04394B006AFF4
S32D0000CAF0F860B9607A603B60002387F82F30A04A3968A04809F0E8FB9F4809F075F903469E49184611F078FE8F
S32D0000CB180346002B0AD19A4809F078F903469949184611F06DFE0346002B01D0012300E00023002B00D0E3E72E
S32D0000CB40914809F059F978628F4809F063F938628D4809F06DF978638D49786B11F0A4FB03467B638B49786BBD
S32D0000CB6811F058FE0346002B05D08849786B11F095FB03467B63796AB86811F08FFB0346FB61396A786811F0DC
S32D0000CB9089FB0346BB61B86810F0F6FF04460D46786810F0F1FF02460B46CDE90223CDE90045794A396873487E
S32D0000CBB809F08EFB786A10F0E3FF04460D46386A10F0DEFF80468946786B10F0D9FF02460B46CDE90423CDE971
S32D0000CBE00289CDE900456D4A3968664809F074FB4FF00001F86911F011FE0346002B00F082804FF00001F8697B
S32D0000CC0811F0EAFD0346002B1BD04FF00001B86911F00AFE0346002B02D05B4B3B63F9E04FF00001B86911F088
S32D0000CC30E1FD0346002B02D0594B3B63EEE07B6B3B63012387F82F30E8E04FF00001B86911F0EEFD0346002B93
S32D0000CC5819D0F969B86911F0DFFC03461846FFF7FFFB3863386B10F08BFF41A3D3E9002310F0DEFF02460B46CE
S32D0000CC801046194611F0BAFA03463B63C6E04FF00001B86911F0AEFD0346002B2FD0F969B86911F0BDFC034689
S32D0000CCA81846FFF7DDFB3863386B10F069FF30A3D3E9002310F0BCFF02460B461046194611F098FA03463B6357
S32D0000CCD0386BFFF7BDFB0346184610F055FF02460B464FF000002F4910F0EEFD02460B461046194611F082FAE4
S32D0000CCF803463B638EE04FF000033B638AE04FF00001B86911F090FD0346002B4AD0F969B86911F081FC0346A8
S32D0000CD201846FFF7A1FB3863386B10F02DFF12A3D3E9002310F080FF02460B461046194611F05CFA03463B63EC
S32D0000CD48386BFFF781FB0346184610F019FF02460B464FF00000124910F0B2FD02460B461046194611F046FA78
S32D0000CD7003463B6352E000BFF8C1631ADCA54C4024640200B01A0020901A0020000080BF0000B4420000B44310
S32D0000CD9828640200406402000000874300807640008066404FF00001B86911F01FFD0346002B2DD0F969B869A1
S32D0000CDC011F02EFC03461846FFF74EFB3863386B10F0DAFE82A3D3E9002310F02DFF02460B461046194611F09F
S32D0000CDE809FA03463B63386BFFF72EFB0346184610F0C6FE4FF00002794B10F063FD02460B461046194611F052
S32D0000CE10F5F903463B6301E0744B3B6397F82F3083F00103DBB2002B00F0D280396B786B11F038FA03467B61A3
S32D0000CE384FF00001786911F0F7FC0346002B1FD0F86910F09DFE04460D46B86910F098FE80468946786910F08E
S32D0000CE6093FE02460B46CDE90423CDE90289CDE900455F4A39685F4809F02EFA01227969F868FFF765FD2EE084
S32D0000CE884FF00001786911F0B1FC0346002B26D0F86910F075FE04460D46B86910F070FE804689467869FFF7D7
S32D0000CEB0CFFA0346184610F067FE02460B46CDE90423CDE90289CDE900454B4A3968494809F002FA7869FFF73A
S32D0000CED8BBFA034600221946F868FFF735FD454808F086FF7862434808F090FF3862796AB86811F0D3F903467C
S32D0000CF00FB61396A786811F0CDF90346BB61F969F86911F0D1FA03461C46B969B86911F0CBFA034619462046A7
S32D0000CF2811F0BEF903461846FFF7A6FA386101223969F868FFF7C6FA4FF000002E4904F0DFFF2C4808F070FF0F
S32D0000CF500346184610F018FE4FF00002294B10F0B5FC02460B461046194611F047F90346BB622549B86A11F00A
S32D0000CF7851FC0346002B05D02149B86A11F08EF90346BB621B4808F033FF0346184610F0F7FD04460D46174857
S32D0000CFA008F038FF0346184610F0EEFD80468946B86A10F0E9FD02460B46CDE90423CDE90289CDE90045114AF8
S32D0000CFC839680A4809F084F900BF3837BD46BDE8B08300BFAFF30080F8C1631ADCA54C40008066400000344308
S32D0000CFF06C640200B01A0020B0640200901A00200000F03F008056400000B443F464020080B582B000AF1A4869
S32D0000D01806F0E5F9194805F08BFA78607968164806F086FC4FF00001786811F0F3FB0346002B11D0786810F068
S32D0000D040A3FD0DA3D3E9002311F072F80346002B06D04FF47F010A4806F0E4F9012304E0FF21074806F0DEF9B2
S32D0000D068022318460837BD4680BD00BFAFF30080333333333333EB3F281A0020FC16002090B58DB000AF354819
S32D0000D09007F00AFF03461946334806F04DFC3B1D14211846FFF7F8F9304A3149314808F0B7FFF8622D4A3049D9
S32D0000D0B82E4808F0B1FFB86240F205212D4805F035FD40F6C4112B4805F04DFD4FF4FA71294805F02BFD40F6EF
S32D0000D0E0B101274805F043FD2649254805F05CFD4FF00001214805F057FD234808F034FC07F1180207F11C03F4
S32D0000D1081946174806F028FA034683F00103DBB2002B00D0F0E707F1180207F11C0319460F4806F019FA0346D3
S32D0000D130002B00D0F3E73B1D012214491846FFF7C5F9134B1B687B62124B1B683B62FFF75FFF0346012B14BF3B
S32D0000D15801230023DBB2002B1AD0F4E7741A0020281A0020986502009C650200B01A0020A8650200241700207F
S32D0000D180301700200000C842901A0020000070410000002004000020381DBB6A974A9849FFF7A2FC381DBB6A07
S32D0000D1A8964A9749FFF79CFC381DBB6A954A9649FFF796FC954A7B6A1360954A3B6A1360944808F023FE0246E0
S32D0000D1D0381DBB6A9249FFF787FC904808F00CFE03464FF08041184611F05EF803461C468A4808F00FFE0346C0
S32D0000D1F88A49184611F054F803461A46381DBB6A2146FFF76DFC4FF00001854805F0C8FC804808F0EDFD0146EB
S32D0000D220381DBB6A814AFFF75FFC3B1D012280491846FFF78DFB7F497B4805F0B5FC4FF000004FF0804104F0C6
S32D0000D2485FFE7B4800F0F6FC4FF00001744805F0A7FC3B1D002277491846FFF775FB73496F4805F09DFC6A4B6E
S32D0000D2701B686F49184611F017F803461A46664B1A60644B1B686A49184611F00BF803461A46604B1A603B1DA6
S32D0000D29865491846FFF7A8FA381DBB6A664A6749FFF71EFC381DFB6A654A6649FFF718FC584808F09DFD03463D
S32D0000D2C0184610F061FC4FF00002614B10F0FCFA02460B461046194610F090FF04464F4808F098FD03461846B0
S32D0000D2E810F04EFC4FF00002574B10F0EBFA02460B461046194610F07DFF0246381DBB6A2146FFF7EDFB3B1DDD
S32D0000D310002250491846FFF7D9F84F494F4805F043FC4FF000004A4904F0EEFD4FF000014A4805F039FC4FF0C0
S32D0000D3380000494904F0E4FD3B1D01223A491846FFF702FB4249434805F02AFC4FF000003D4904F0D5FD4FF016
S32D0000D36000013E4805F020FC4FF000003C4904F0CBFD3B1D00223B491846FFF7E9FA4FF00000334904F0C0FDE6
S32D0000D3884FF00001334805F00BFC4FF00000324904F0B6FD3B1D002223491846FFF7D4FA2B492C4805F0FCFB83
S32D0000D3B04FF00000264904F0A7FD4FF00001274805F0F2FB4FF00000254904F09DFD3B1D002217491846FFF70F
S32D0000D3D8BBFA1F491F4805F0E3FBB96A204808F0E7FEF96A1E4808F0E3FE002318463437BD4690BD6666AE41CF
S32D0000D400000090419A99434200008841CDCC4A42000002420000002004000020901A002066660A420000A0403D
S32D0000D4283017002000008142000020410000DC421C1700200000B44266664642CDCCC041CDCC5E42CDCC904153
S32D0000D4500000F03F0000C0400000C842241700200000E03F0000A041B01A002080B582B000AF786039607B68C6
S32D0000D478012B2ED13B684FF6FF72934229D10821164805F045F80221154805F041F80121144805F03DF8002103
S32D0000D4A0134805F039F81921124804F09DFD1821114804F099FD114A0021114800F080FB0E4A03210F4800F09C
S32D0000D4C87BFB00210E4805F015FB07210D4805F011FB00BF0837BD4680BD00BFFC160020001700200417002025
S32D0000D4F0081700200C170020101700206666E640141700201C170020241700203017002080B500AF4FF6FF715A
S32D0000D5180120FFF7A7FF80BD80B500AF0F4BD3F8A03003F48053002B14BF01230023DBB2002B10D0094BD3F84C
S32D0000D540A030084A23F48053C2F8A030064808F08DFE064B1B68054A23F40053136000BF80BD00BF00C0044097
S32D0000D568B01A0020C0F00F4080B400AF124B4FF480725A63114B5B69104A43F4005353610E4B1B680D4A43F458
S32D0000D590005313600A4B0C4A1A630C4BD3F888310A4A43F08063C2F88831084B9B68074A43F08063936000BF58
S32D0000D5B8BD4680BC704700BF00C00440C0F00F4003010A0000E100E080B400AF334B00225A70324B98221A70B0
S32D0000D5E0304B9B79DBB203F01003002B14BF01230023DBB2002B00D0F2E72A4B9B79DBB29B08DBB203F0030316
S32D0000D608022B14BF01230023DBB2002B00D0F0E7224B18221A71214B00225A71204B03F580531A461F4B53640C
S32D0000D6301C4B54225A711B4B9B79DBB203F02003002B0CBF01230023DBB2002B00D0F2E7144B9B79DBB203F076
S32D0000D6584003002B0CBF01230023DBB2002B00D0F2E70E4B1B78DBB20C4A03F03F03DBB213700A4B9B79DBB2B9
S32D0000D6809B08DBB203F00303032B14BF01230023DBB2002B00D0F0E700231846BD4680BC704700BF00400640F0
S32D0000D6A8007004400000130180B500AF314B03F580539B6B2F4A43F4785302F580529363FFF752FFFFF780FF65
S32D0000D6D02B4B58221A602A4B1B684FF47A7202FB03F3284A1360274B1B681A46234B03F580535B6C1B0E03F052
S32D0000D6F80F030133B2FBF3F31A46214B1A601D4B03F58053DB6B1B4A43F0225302F58052D363184B03F5805332
S32D0000D7201B6B164A43F0006302F580521363174B4FF480721A61642004F0BCFA134B5B69124A23F01003536188
S32D0000D748104B00221A600F4B10225A610E4805F0D3FC04F0D5FF05F033F80C4804F008FB0B4808F06FFE4FF42D
S32D0000D770FA6004F0B3FB00BF80BD00BF0070044074190020701900207819002000D00340281A00206C190020FF
S32D0000D798581D002080B500AFFEF7D1FD00BF80BD80B500AFFEF7CBFD00BF80BD80B500AFFEF7C5FD00BF80BDF7
S32D0000D7C080B500AFFEF7BFFD00BF80BD80B500AFFEF7B9FD00BF80BD80B500AFFEF7B3FD00BF80BD80B500AFB6
S32D0000D7E8FEF7ADFD00BF80BD80B500AFFEF7A7FD00BF80BD80B500AFFEF7A1FD00BF80BD80B500AFFEF79BFD1B
S32D0000D81000BF80BD80B500AFFEF795FD00BF80BD80B500AFFEF78FFD00BF80BD80B500AFFEF789FD00BF80BDCB
S32D0000D83880B500AFFEF783FD00BF80BD80B500AFFEF77DFD00BF80BD80B500AFFEF777FD00BF80BD80B500AFF1
S32D0000D860FEF771FD00BF80BD80B500AFFEF76BFD00BF80BD80B500AFFEF765FD00BF80BD80B500AFFEF75FFD92
S32D0000D88800BF80BD80B500AFFEF759FD00BF80BD80B500AFFEF753FD00BF80BD80B500AFFEF74DFD00BF80BD07
S32D0000D8B080B500AFFEF747FD00BF80BD80B500AFFEF741FD00BF80BD80B500AFFEF73BFD00BF80BD80B500AF2D
S32D0000D8D8FEF735FD00BF80BD80B500AFFEF72FFD00BF80BD80B500AFFEF729FD00BF80BD80B500AFFEF723FD0A
S32D0000D90000BF80BD80B500AFFEF71DFD00BF80BD80B500AFFEF717FD00BF80BD80B500AFFEF711FD00BF80BD42
S32D0000D92880B500AFFEF70BFD00BF80BD80B500AFFEF705FD00BF80BD80B500AFFEF7FFFC00BF80BD80B500AF69
S32D0000D950FEF7F9FC00BF80BD80B500AFFEF7F3FC00BF80BD80B500AFFEF7EDFC00BF80BD80B500AFFEF7E7FC85
S32D0000D97800BF80BD80B500AFFEF7E1FC00BF80BD80B500AFFEF7DBFC00BF80BD80B500AFFEF7D5FC00BF80BD81
S32D0000D9A080B500AFFEF7CFFC00BF80BD80B500AFFEF7C9FC00BF80BD80B500AFFEF7C3FC00BF80BD80B500AFA7
S32D0000D9C8FEF7BDFC00BF80BD80B500AFFEF7B7FC00BF80BD80B500AFFEF7B1FC00BF80BD80B500AFFEF7ABFCFD
S32D0000D9F000BF80BD80B500AFFEF7A5FC00BF80BD80B500AFFEF79FFC00BF80BD80B500AFFEF799FC00BF80BDBD
S32D0000DA1880B500AFFEF793FC00BF80BD80B500AFFEF78DFC00BF80BD80B500AFFEF787FC00BF80BD80B500AFE2
S32D0000DA40FEF781FC00BF80BD80B500AFFEF77BFC00BF80BD80B500AFFEF775FC00BF80BD80B500AFFEF76FFC74
S32D0000DA6800BF80BD80B500AFFEF769FC00BF80BD80B500AFFEF763FC00BF80BD80B500AFFEF75DFC00BF80BDF8
S32D0000DA9080B500AFFEF757FC00BF80BD80B500AFFEF751FC00BF80BD80B500AFFEF74BFC00BF80BD80B500AF1E
S32D0000DAB8FEF745FC00BF80BD80B500AFFEF73FFC00BF80BD80B500AFFEF739FC00BF80BD80B500AFFEF733FCEC
S32D0000DAE000BF80BD80B500AFFEF72DFC00BF80BD80B500AFFEF727FC00BF80BD80B500AFFEF721FC00BF80BD34
S32D0000DB0880B500AFFEF71BFC00BF80BD80B500AFFEF715FC00BF80BD80B500AFFEF70FFC00BF80BD80B500AF59
S32D0000DB30FEF709FC00BF80BD80B500AFFEF703FC00BF80BD80B500AFFEF7FDFB00BF80BD80B500AFFEF7F7FB65
S32D0000DB5800BF80BD80B500AFFEF7F1FB00BF80BD80B500AFFEF7EBFB00BF80BD80B500AFFEF7E5FB00BF80BD72
S32D0000DB8080B500AFFEF7DFFB00BF80BD80B500AFFEF7D9FB00BF80BD80B500AFFEF7D3FB00BF80BD80B500AF98
S32D0000DBA8FEF7CDFB00BF80BD80B500AFFEF7C7FB00BF80BDFFFFFFFF80B584B000AFF8600B467A60FB72FB6898
S32D0000DBD0FA7A1A71FB6800225A711749786810F027FE0346002B02D0134B7B600AE04FF07E51786810F008FE16
S32D0000DBF80346002B02D04FF07E537B6078680FF0BFFF09A3D3E9002310F012F802460B461046194610F0EEFA66
S32D0000DC200246FB681A60FB6818461037BD4680BDABAAAAAAAAAA20400000404180B582B000AF78607B685B79E6
S32D0000DC48002B09D07B6800225A717B6819791E230022034804F0C6F800BF0837BD4680BD6C19002080B584B0B9
S32D0000DC7000AF786039603B687F2B02DD7F23FB7308E03B6813F1800F02DA8023FB7301E03B68FB737B685B7976
S32D0000DC98FA7B9A4209D07B68FA7B5A717B681979FA7B1E23034804F09DF800BF1037BD4680BD00BF6C19002068
S32D0000DCC0B0B584B000AF786039603749386810F091FD0346002B02D0334B3B6008E03349386810F0A5FD034681
S32D0000DCE8002B01D02F4B3B6038680FF049FF04460D467B681B6818460FF042FF4FF00002294B10F0BFF80246C1
S32D0000DD100B46204629460FF08FFF02460B461046194610F06BFA03463B604FF00001386810F074FD0346002BD6
S32D0000DD3810D038680FF024FF17A3D3E900230FF077FF02460B461046194610F00BFA0346FB6018E038680FF07F
S32D0000DD6013FF4FF00002134B0FF066FF02460B46104619464FF000020D4B10F087F802460B461046194610F0CC
S32D0000DD88F1F90346FB60F9687868FFF76BFF00BF1037BD46B0BD00BF52B81E85EB51F43F0000C8C20000C84259
S32D0000DDB0000059400000604080B483B000AF03460A46FB711346BB71BB79002B03D1134B00221A7002E0114BF1
S32D0000DDD801221A703823FB710E4B1A78FB791343FB710D4B9B78DBB20B4A43F01003DBB29370094B9B78DBB271
S32D0000DE00074A43F02003DBB29370054AFB79137100BF0C37BD4680BC704700BF3C1700200060064080B483B03F
S32D0000DE2800AF01237B607B68312B04DC00BF7B6801337B60F7E700BF0C37BD4680BC704780B582B000AF034619
S32D0000DE500A46FB711346BB71134B1B7800211846FFF7AAFF00F024F8104AFB79137100F01FF80E4ABB791371DF
S32D0000DE7800F01AF80B4B9B78DBB20A4A23F02003DBB29370074B9B78DBB2064A23F01003DBB29370FFF7C2FFBB
S32D0000DEA000BF0837BD4680BD3D1700200060064080B483B000AF174B1B78002B24D100237B60154BDB78DBB293
S32D0000DEC803F00203002B0CBF01230023DBB2002B0DD07B6842F21072934203DD0B4B01221A7004E07B68013316
S32D0000DEF07B6000BFE5E7084BDB78DBB2064A43F00203DBB2D37000E000BF0C37BD4680BC704700BF3E17002007
S32D0000DF180060064080B582B000AF0346FB71FB79184600F05FF800BF0837BD4680BD80B582B000AF03460A4664
S32D0000DF40FB711346BB7100F035F8FB795B00DBB21846FFF7E3FFBB791846FFF7DFFF00F037F800BF0837BD468D
S32D0000DF6880BD80B500AFFF2000F03CF80346184680BD80B584B000AF0346FB7100F016F8FB795B005BB243F069
S32D0000DF9001035BB2DBB21846FFF7C0FFFFF7E5FF0346FB7300F014F8FB7B18461037BD4680BDFFFF80B400AFE9
S32D0000DFB8044B9B68034A43F48013936000BFBD4680BC704740F00F4080B400AF044B5B68034A43F480135360EC
S32D0000DFE000BFBD4680BC704740F00F4080B485B000AF0346FB710023BB73164BDB6A03F00043012B0CBF0123CA
S32D0000E0080023DBB2002B03D0FB7B0133FB73F0E70E4BDB6A0D4A43F00043D3620B4AFB7953630A4BDB6A03F49D
S32D0000E0300033002B0CBF01230023DBB2002B00D0F3E7044B9B6BBB73BB7B18461437BD4680BC704700C00A408E
S32D0000E05880B582B000AF204B03F580531B6B1E4A43F4805302F5805213631C4B4FF480721A651B4B5B691A4A6E
S32D0000E08043F480135361FFF7A3FF164B4FF400725A65144B4FF400729A65124B4FF40072DA65124B124A1A60F0
S32D0000E0A8104B124ADA6000237B607B68092B06DCFF20FFF72FFF7B6801337B60F5E704A1D1E9000103F01CFFE3
S32D0000E0D000BF0837BD4680BD9A9999999999B93F0070044000A0044040F00F4000C00A40000C00800500003E65
S32D0000E0F890B486B000AFF860B9607A60FB68534A93420AD1524B03F580535B6B504A43F4806302F58052536375
S32D0000E12045E0FB684D4A93420AD14B4B03F580535B6B494A43F4006302F58052536336E0FB68474A93420AD175
S32D0000E148434B03F580535B6B414A43F4805302F58052536327E0FB68404A93420AD13C4B03F580535B6B3A4A36
S32D0000E17043F4005302F58052536318E0FB683A4A93420AD1344B03F580539B6A324A43F4806302F58052936246
S32D0000E19809E02F4B03F580539B6A2D4A43F4006302F580529362FB68DB78DBB223F00C03DAB2FB68DA70FB6856
S32D0000E1C000229A70BB684FF47A7203FB02F27B681B0192FBF3F39CB2FB681B78DBB223F01F03FB75230A9BB25F
S32D0000E1E8DBB203F01F03DAB2FB7D1343DAB2FB681A70E2B2FB685A70BB684FF4FA4203FB02F27B681B0192FBB3
S32D0000E210F3F39AB263019BB2D31A9CB2FB689B7ADBB223F01F03FB75E3B203F01F03DAB2FB7D1343DAB2FB6825
S32D0000E2389A72FB68DB78DBB243F00C03DAB2FB68DA7000BF1837BD4690BC704700A006400070044000B006404A
S32D0000E26000C0064000D0064000A00E4080B483B000AF78607B681B79DBB203F02003002B0CBF01230023DBB2B4
S32D0000E288002B00D0F2E77B68DB79DBB218460C37BD4680BC704780B483B000AF78600B46FB707B681B79DBB28B
S32D0000E2B05BB2DB43DBB2DB09DBB2002B00D0F4E77B68FA78DA7100BF0C37BD4680BC704780B487B000AFF86037
S32D0000E2D8B9607A60FB687B61BB683B617B685A1E7A60002B14BF01230023DBB2002B08D03A69531C3B617B698B
S32D0000E300591C796112781A70ECE700BF1C37BD4680BC704780B487B000AFF860B9607A60FB687B617B685A1EB2
S32D0000E3287A60002B14BF01230023DBB2002B06D07B695A1C7A61BA68D2B21A70EEE700BF1C37BD4680BC7047D8
S32D0000E35080B489B000AFF860B9607A60FB68FB61BB68BB6100237B617B685A1E7A60002B0FD0FB695A1CFA61C7
S32D0000E3781B781946BB695A1CBA611B78CB1A7B617B69002B01D1012300E00023002B00D0E6E77B69184624370F
S32D0000E3A0BD4680BC704780B483B000AF786039607B681B78002B09D07B681B781A463B68934203D07B68013320
S32D0000E3C87B60F1E77B681B7818460C37BD4680BC704780B584B000AF786039607B681B6BFB60FA683B689A4239
S32D0000E3F052D07B681B79002B35D07B6858787B6803F134010123FA6803F0F2FA0346002B14BF01230023DBB2F7
S32D0000E418002B01D001233CE07B6800221A717B685A6A7B681B6A1344FA689A4217D27B68DB78FB72FB7A012B39
S32D0000E44011D97B681B6AFA681344FB607B6858787B6803F134010123FA6803F0C9FAFB7A013BFB72EAE73B68BB
S32D0000E468002B15D07B6858787B6803F1340101233A6803F0D5F90346002B14BF01230023DBB2002B01D00123F5
S32D0000E49003E07B683A681A63002318461037BD4680BD80B584B000AF786000217868FFF794FF0346FB73FB7BCA
S32D0000E4B8002B40F093807B681B78032B7DD17B685B79002B79D07B6800221A637B6834334FF4007200211846AB
S32D0000E4E0FFF718FF7B68552283F832227B68AA2283F833227B68522283F834207B68522283F835207B686122A6
S32D0000E50883F836207B68412283F837207B68722283F818227B68722283F819227B68412283F81A227B68612240
S32D0000E53083F81B227B681B69DAB27B6883F81C227B681B699BB21B0A9BB2DAB27B6883F81D227B681B691B0C99
S32D0000E558DAB27B6883F81E227B681B691B0EDAB27B6883F81F227B68DB68DAB27B6883F820227B68DB689BB2EB
S32D0000E5801B0A9BB2DAB27B6883F821227B68DB681B0CDAB27B6883F822227B68DB681B0EDAB27B6883F82322D5
S32D0000E5A87B6858787B6803F134017B685A69012303F01AFA7B6800225A717B685B7800220021184603F0DCFAC5
S32D0000E5D00346002B14BF01230023DBB2002B01D00123FB73FB7B18461037BD4680BD80B483B000AF7860396092
S32D0000E5F83B68023B3B607B68DB69023B3A689A4201D3002308E07B689B781A463B6803FB02F27B68DB6A13444F
S32D0000E62018460C37BD4680BC704780B586B000AF786039603B68012B04D97B68DB693A689A4201D30123B5E0CC
S32D0000E6487B681B78032B7AD0032B00F3AD80012B02D0022B4DD0A7E03B683B613B695B083A6913443B617B68DA
S32D0000E6705A6A3B695B0A134419467868FFF7ADFE0346002B14BF01230023DBB2002B40F088803B69C3F3080395
S32D0000E6987A68134493F83430FB603B6901333B617B685A6A3B695B0A134419467868FFF790FE0346002B14BF4C
S32D0000E6C001230023DBB2002B6DD13B69C3F308037A68134493F834301B021A46FB681343FB603B6803F0010337
S32D0000E6E8002B02D0FB681B0960E0FB68C3F30B035CE07B685A6A3B681B0A134419467868FFF767FE0346002B09
S32D0000E71014BF01230023DBB2002B46D13B685B0003F4FF7330337A68134404337B617B6901331B781B021AB248
S32D0000E7387B691B781BB213431BB29BB236E07B685A6A3B68DB09134419467868FFF741FE0346002B14BF012385
S32D0000E7600023DBB2002B22D13B689B0003F4FE7330337A68134404337B617B6903331B781A067B6902331B78EF
S32D0000E7881B0413437A6901321278120213437A691278134323F0704308E000BF04E000BF02E000BF00E000BFD1
S32D0000E7B04FF0FF3318461837BD4680BD80B588B000AFF860B9607A60BB68012B04D9FB68DB69BA689A4202D3D0
S32D0000E7D80223FB77EEE0FB681B78032B00F09780032B00F3DA80012B02D0022B6BD0D4E0BB687B617B695B08A8
S32D0000E8007A6913447B61FB685A6A7B695B0A13441946F868FFF7E1FD0346FB77FB7F002B40F0C2807B69C3F30E
S32D0000E82808033033FA6813440433BB61BB6803F00103002B0DD0BB691B785BB203F00F035AB27B68DBB21B01C5
S32D0000E8505BB213435BB2DBB201E07B68DBB2BA6913707B6901337B61FB6801221A71FB685A6A7B695B0A1344DA
S32D0000E8781946F868FFF7ADFD0346FB77FB7F002B40F090807B69C3F308033033FA6813440433BB61BB6803F049
S32D0000E8A00103002B03D07B681B09DBB20CE0BB691B7823F00F03DAB27B681B0ADBB203F00F03DBB21343DBB256
S32D0000E8C8BA69137073E0FB685A6ABB681B0A13441946F868FFF77DFD0346FB77FB7F002B62D1BB685B0003F42C
S32D0000E8F0FF733033FA6813440433BB617B68DAB2BB691A707B689BB21B0A9AB2BB690133D2B21A704FE0FB6863
S32D0000E9185A6ABB68DB0913441946F868FFF759FD0346FB77FB7F002B40D1BB689B0003F4FE733033FA681344F1
S32D0000E9400433BB61BB6903331B781A06BB6902331B781B041343BA690132127812021343BA691278134303F0A8
S32D0000E96870437A6813437B607B68DAB2BB691A707B689BB21B0A9AB2BB690133D2B21A707B681A0CBB69023335
S32D0000E990D2B21A707B681A0EBB690333D2B21A7009E00223FB7706E000BF04E000BF02E000BF00E000BFFB686D
S32D0000E9B801221A71FB7F18462037BD4680BD80B584B000AF786039603B68012B04D97B68DB693A689A4202D365
S32D0000E9E00223FB7338E00023FB737B68DB693A689A4231D239687868FFF717FEB860BB68002B26D0BB68012BEE
S32D0000EA0802D10223FB7323E0BB68B3F1FF3F02D10123FB731CE0002239687868FFF7CAFE0346FB73FB7B002B58
S32D0000EA3011D17B681B69B3F1FF3F07D07B681B695A1C7B681A617B6801225A71BB683B60CBE700BF00E000BFDC
S32D0000EA58FB7B18461037BD4680BD80B586B000AF786039603B68002B0DD17B68DB683B613B69002B04D07B68B6
S32D0000EA80DB693A699A4215D301233B6112E039687868FFF7CAFDB860BB68012B01D8012364E07B68DB69BA68DC
S32D0000EAA89A4201D2BB685DE03B683B613B697B617B6901337B617B68DB697A699A4207D302237B617A693B6936
S32D0000EAD09A4201D9002349E079697868FFF7A5FDB860BB68002B0ED0BB68B3F1FF3F02D0BB68012B01D1BB685D
S32D0000EAF838E07A693B699A42DAD1002332E000BF6FF0704279697868FFF754FE0346FB73FB7B002B09D13B68E6
S32D0000EB20002B06D07A6939687868FFF747FE0346FB73FB7B002B10D17B687A69DA607B681B69B3F1FF3F10D0C5
S32D0000EB487B681B695A1E7B681A617B6801225A7107E0FB7B012B02D14FF0FF3300E001237B617B691846183753
S32D0000EB70BD4680BD80B487B000AF786039607B685B6A04333B613B685B0A7A6812689278B3FBF2F37B613B69B0
S32D0000EB981A1D3A611B68FB60FB68002B01D1002310E07A69FB689A4207D37A69FB68D31A7B613B6904333B61AA
S32D0000EBC0E9E700BF3B691A687B69134418461C37BD4680BC704780B584B000AF78600B467B807B687A88DA8015
S32D0000EBE87B689B68FB60FB68012B05D07B681B68DB69FA689A4201D3022364E0FB68002B08D17B681B681B78D5
S32D0000EC10032B03D17B681B689B6AFB60FB68002B13D17B68FA68DA607B681B681B897A889A4201D302234AE012
S32D0000EC387B681B689A6A7B881B091A447B681A6135E07B681B689B789BB21B017B817A887B899A421CD37B68BA
S32D0000EC601B68F9681846FFF7E0FCF860FB68B3F1FF3F01D101232AE0FB68012B05D97B681B68DB69FA689A4280
S32D0000EC8801D302231FE07A887B89D31A7B80DEE77B68FA68DA607B681B68F9681846FFF7A2FC02467B881B090C
S32D0000ECB01A447B681A617B681B6803F134027B8803F00F035B011A447B685A61002318461037BD4680BD90B53D
S32D0000ECD885B000AF786039607B68DB8801333B813B89002B03D07B681B69002B01D10423C4E03B8903F00F03C9
S32D0000ED00002B40F0B0807B681B695A1C7B681A617B68DB68002B08D17B681B681B893A899A42C0F0A080042355
S32D0000ED28ACE03B891B097A6812689278013A1340002B40F094807B681A687B68DB6819461046FFF76EFCF860EE
S32D0000ED50FB68012B01D8022394E0FB68B3F1FF3F01D101238EE07B681B68DB69FA689A426DD33B68002B01D123
S32D0000ED78042383E07B681A687B68DB6819461046FFF76BFEF860FB68002B01D1072375E0FB68012B01D1022387
S32D0000EDA070E0FB68B3F1FF3F01D101236AE07B681B6800211846FFF710FB0346002B14BF01230023DBB2002B44
S32D0000EDC801D001235AE07B681B6834334FF4007200211846FFF79AFA7B681A687B681C68F9681046FFF7FFFBF0
S32D0000EDF0034623630023FB727B681B689B78FA7A9A421CD27B681B6801221A717B681B6800211846FFF7E1FA15
S32D0000EE180346002B14BF01230023DBB2002B01D001232BE07B681B681A6B01321A63FB7A0133FB72DCE77B682F
S32D0000EE401B68196BFA7A7B681B688A1A1A637B68FA68DA607B681B68F9681846FFF7C7FB02467B681A617B68BD
S32D0000EE683A89DA807B681B6803F134023B8903F00F035B011A447B685A61002318461437BD4690BD80B586B027
S32D0000EE9000AF786000217868FFF79DFE0346FB75FB7D002B01D0FB7D3CE07B681A687B681B6919461046FFF703
S32D0000EEB890FA0346FB75FB7D002B2BD17B685B693B613B691B78FB73FB7B002B02D10423FB7522E03B690B3373
S32D0000EEE01B7803F00803002B0BD17B689B690B2219463869FFF72CFA0346002B01D1012300E00023002B0BD1C8
S32D0000EF0800217868FFF7E3FE0346FB75FB7D002B03D1C6E700BF00E000BFFB7D18461837BD4680BD80B584B0FA
S32D0000EF3000AF786000217868FFF74DFE0346FB73FB7B002B21D17B681A687B681B6919461046FFF742FA0346A4
S32D0000EF58FB73FB7B002B13D17B685B691B78BB73BB7BE52B0DD0BB7B002B0AD001217868FFF7ADFE0346FB7378
S32D0000EF80FB7B002B01D1DEE700BFFB7B002B1FD17B681A687B681B6919461046FFF71DFA0346FB73FB7B002BF5
S32D0000EFA812D17B685B69BB6020220021B868FFF7ADF97B689B690B221946B868FFF784F97B681B6801221A715D
S32D0000EFD0FB7B18461037BD4680BDFFFF80B588B000AF786039603B681B68FB60FB681B782F2B03D0FB681B7893
S32D0000EFF85C2B03D1FB680133FB60F3E77B689B69BB600B222021B868FFF780F90023FB7700233B613B697B61F1
S32D0000F0200823BB61FA687B6913441B782E2B2FD17B695A1C7A61FA6813441B78BB77BB7F2E2B0AD17B69022BC0
S32D0000F04807D83B695A1C3A61BA681344BA7F1A70EAE7BB7F2F2B07D0BB7F5C2B04D0BB7F202B01D90623A7E0EA
S32D0000F070FA687B691A443B681A60BB7F202B01D8242200E02022BB680B331A70002397E07B695A1C7A61FA68CF
S32D0000F09813441B78BB77BB7F202B58D9BB7F2F2B55D0BB7F5C2B52D0BB7F2E2B03D03A69BB699A420FD3BB69CD
S32D0000F0C0082B02D1BB7F2E2B01D0062378E008233B610B23BB61FB7F9B00FB773AE097F91E30002B08DAFB7F20
S32D0000F0E843F00303FB77BB7F803B354AD35CBB77BB7F19463348FFF752F90346002B14BF01230023DBB2002BDF
S32D0000F11001D0062354E0BB7F402B07D9BB7F5A2B04D8FB7F43F00203FB770CE0BB7F602B09D9BB7F7A2B06D80F
S32D0000F138FB7F43F00103FB77BB7F203BBB773B695A1C3A61BA681344BA7F1A709CE7FA687B691A443B681A608A
S32D0000F160BB7F202B01D8042300E00023BB773B69002B01D1062323E0BB681B78E52B02D1BB6805221A70BB6969
S32D0000F188082B02D1FB7F9B00FB77FB7F03F00303012B03D1BB7F43F01003BB77FB7F03F00C03042B03D1BB7FEE
S32D0000F1B043F00803BB77BB680B33BA7F1A70002318462037BD4680BDB46502003466020080B584B000AF7860DE
S32D0000F1D839603B681B782F2B03D03B681B785C2B06D13B6801333B607B6800229A6004E07B681B689A697B68D8
S32D0000F2009A603B681B781F2B09D800217868FFF7E2FC0346FB737B6800225A6169E03B4619467868FFF7DAFE62
S32D0000F2280346FB73FB7B002B58D17868FFF72AFE0346FB737B689B69DB7ABB73FB7B002B1DD0FB7B042B4BD1C9
S32D0000F250BB7B03F02003002B0DD07B6800229A607B6800225A610023FB73BB7B03F00403002B3BD135E0BB7B3A
S32D0000F27803F00403002B35D10523FB7332E0BB7B03F00403002B2FD17B685B69BB60BB680B331B7803F010037E
S32D0000F2A0002B02D10523FB7323E0BB6815331B781B021AB2BB6814331B781BB213431BB29BB21B04BA681B32FA
S32D0000F2C81278120211B2BA681A32127812B20A4312B292B21A437B689A609CE700BF04E000BF02E000BF00E006
S32D0000F2F000BFFB7B18461037BD4680BD80B582B000AF786039607B6858787B6803F1340101233A6802F088FA56
S32D0000F3180346002B14BF01230023DBB2002B01D003234AE07B6803F2322301331B781B021AB27B6893F83232B1
S32D0000F3401BB213431BB2214A934201D0022338E07B686A3303331B781A067B686A3302331B781B0413437A6859
S32D0000F3686A3201321278120213437A6892F86A20134323F07F43144A934201D100231CE07B68863303331B780A
S32D0000F3901A067B68863302331B781B0413437A68863201321278120213437A6892F88620134323F07F43064A08
S32D0000F3B8934201D1002300E0012318460837BD4680BD00BF55AAFFFF4641540080B592B000AFF860B9601346F5
S32D0000F3E0FB71FB681B68FB62FB6A1B78303B3B643B6C092B0BD8FB6A01331B783A2B06D1FB6A0233FB62FB68CE
S32D0000F408FA6A1A6002E0A34B1B783B643B6C002B01D00B2367E2A04A3B6C52F82330BB62BB68BA6A1A60BB6AAB
S32D0000F430002B01D10C235AE2BB6A1B78002B1AD0BB6A5B78184602F021FC034687F8273097F8273003F0010318
S32D0000F458002B0CD1FB79002B07D097F8273003F00403002B01D00A233DE200233BE2BB6A00221A703B6CDAB29C
S32D0000F480BB6A5A70BB6A5B78184601F093FF034687F8273097F8273003F00103002B01D0032324E2FB79002BD3
S32D0000F4A807D097F8273003F00403002B01D00A2319E20023FB63F96BB86AFFF71BFF034687F8473097F84730FF
S32D0000F4D0012B22D1BB6A03F5F9733B623B6A04331B78002B19D03B6A0B331B781A063B6A0A331B781B041343C6
S32D0000F4F83A6A09321278120213433A6A083212781343FB63F96BB86AFFF7F4FE034687F8473097F84730032B16
S32D0000F52001D10123E3E197F84730002B01D00D23DDE1BB6A93F840301B021AB2BB6A93F83F301BB213431BB2FB
S32D0000F548B3F5007F01D00D23CDE1BB6A93F84B301B021AB2BB6A93F84A301BB213431BB29BB2BB63BB6B002BD5
S32D0000F57012D1BB6A93F85B301A06BB6A93F85A301B041343BA6A92F8592012021343BA6A92F858201343BB6355
S32D0000F598BB6ABA6B1A62BB6A93F84430FB77BB6AFA7FDA70FB7F012B04D0FB7F022B01D00D2398E1FA7FBB6BC7
S32D0000F5C002FB03F3BB63BB6A93F84130FB77BB6AFA7F9A70FB7F002B05D0FA7FFB7F013B1340002B01D00D23A9
S32D0000F5E881E1BB6A93F846301B021AB2BB6A93F845301BB213431BB29AB2BB6A1A81BB6A1B8903F00F03002B6A
S32D0000F61001D00D236BE1BB6A93F848301B021AB2BB6A93F847301BB213431BB29BB27B637B6B002B12D1BB6A13
S32D0000F63893F857301A06BB6A93F856301B041343BA6A92F8552012021343BA6A92F8542013437B63BB6A93F834
S32D0000F66043301B021AB2BB6A93F842301BB213431BB2BB83BB8B002B01D10D2337E1BA8BBB6B1A44BB6A1B89B3
S32D0000F6881B091344BB617A6BBB699A4206D20D2329E100BF46170020401700207A6BBB69D31ABA6A9278B3FB41
S32D0000F6B0F2F37B617B69002B01D10D2317E1012387F847307B6940F6F572934202D9022387F847307B694FF6D3
S32D0000F6D8F572934202D9032387F847307B699A1CBB6ADA61FA6BBB691A44BB6ADA62BA8BFB6B1A44BB6A5A62A5
S32D0000F70097F84730032B1ED1BB6A1B89002B01D00D23ECE0BB6A93F863301A06BB6A93F862301B041343BA6AB9
S32D0000F72892F8612012021343BA6A92F860201A43BB6A9A62BB6ADB699B003B631FE0BB6A1B89002B01D10D23FB
S32D0000F750CDE0BB6A5A6ABB6B1A44BB6A9A6297F84730022B03D1BB6ADB695B000AE0BB6ADA6913465B00134428
S32D0000F7785A08BB6ADB6903F0010313443B63BB6A1A6A3B6B03F2FF135B0A9A4201D20D23A9E0BB6A4FF0FF32F4
S32D0000F7A01A61BB6A0022DA6097F84730032B40F08680BB6A00225A71BB6A93F865301B021AB2BB6A93F8643051
S32D0000F7C81BB213431BB29BB21A46FB6B1A44BB6A5A61BB6A5878BB6A03F13401BB6A5A69012302F01DF8034633
S32D0000F7F0002B39D1BB6A93F833321B021AB2BB6A93F832321BB213431BB23B4A93422BD1BB6A93F837301A0627
S32D0000F818BB6A93F836301B041343BA6A92F8352012021343BA6A92F834201343314A934216D1BB6A93F81B323E
S32D0000F8401A06BB6A93F81A321B041343BA6A92F8192212021343BA6A92F818221343284A934201D1012300E05B
S32D0000F8680023002B27D0BB6A93F823321A06BB6A93F822321B041343BA6A92F8212212021343BA6A92F8202244
S32D0000F8901A43BB6ADA60BB6A93F81F321A06BB6A93F81E321B041343BA6A92F81D2212021343BA6A92F81C22B5
S32D0000F8B81A43BB6A1A61BB6A97F847201A700F4B1B8801339AB20D4B1A800C4B1A88BB6ADA80BB6A00221A63D5
S32D0000F8E0BB6A00221A71BB6A00229A61002318464837BD4680BD00BF55AAFFFF525261417272416144170020A3
S32D0000F90880B582B000AF78600B467B807B68002B08D07B681B78002B04D07B68DB887A889A4201D0092311E02A
S32D0000F9307B685B78184602F0A9F9034603F00103002B14BF01230023DBB2002B01D0032300E00023184608372D
S32D0000F958BD4680BD80B485B000AF03463960FB71FB79002B01D00B2316E0FB790D4A52F82330FB60FB68002BF6
S32D0000F98002D0FB6800221A703B68002B02D03B6800221A70FB7905493A6841F82320002318461437BD4680BC9E
S32D0000F9A8704700BF4017002080B592B000AFF860B9601346FB71FB6800221A60FB7903F01F03FB71FB7923F06D
S32D0000F9D00103DAB207F11C0107F108031846FFF7F9FC034687F8473007F110037B6397F84730002B09D1BA68C3
S32D0000F9F807F11C0311461846FFF7E6FB034687F847303B6B3B6497F84730002B05D13B6C002B02D1062387F866
S32D0000FA204730FB7903F01C03002B00F0B18097F84730002B12D097F84730042B07D107F11C031846FFF772FA78
S32D0000FA48034687F84730FB7943F00803FB713B6B3B6412E03B6C0B331B7803F01103002B03D0072387F847305F
S32D0000FA7007E0FB7903F00403002B02D0082387F8473097F84730002B40F0A080FB7903F00803002B00F09A80CD
S32D0000FA980023FB633B6C0E33FA6BD2B21A70FB6B9BB21B0A9AB23B6C0F33D2B21A70FB6B1A0C3B6C1033D2B24F
S32D0000FAC01A70FB6B1A0E3B6C1133D2B21A703B6C0B3300221A703B6C1C3300221A703B6C1D3300221A703B6C8A
S32D0000FAE81E3300221A703B6C1F3300221A703B6C15331B781B021AB23B6C14331B781BB213431BB29BB21B0406
S32D0000FB103A6C1B321278120211B23A6C1A32127812B20A4312B292B21343BB633B6C1A3300221A703B6C1B33D5
S32D0000FB3800221A703B6C143300221A703B6C153300221A70FB6901221A71BB6B002B39D0FB691B6BFB63FB69A6
S32D0000FB60B96B1846FEF72FFF034687F8473097F84730002B2AD1FB69BA6B013ADA60FB69F96B1846FEF729FC29
S32D0000FB88034687F847301DE097F84730002B19D13B6C0B331B7803F01003002B03D0042387F847300EE0FB79FD
S32D0000FBB003F00203002B09D03B6C0B331B7803F00103002B02D0072387F8473097F84730002B0FD1FB7903F027
S32D0000FBD80803002B03D0FB7943F02003FB71FB691A6BFB68DA61FB683A6C1A6297F84730002B42D1FB68FA799A
S32D0000FC009A713B6C15331B781B021AB23B6C14331B781BB213431BB29BB21B043A6C1B321278120211B23A6C89
S32D0000FC281A32127812B20A4312B292B21A43FB681A613B6C1F331B781A063B6C1E331B781B0413433A6C1D32E3
S32D0000FC501278120213433A6C1C3212781A43FB68DA60FB6800229A60FB6800229A61FB6800225A62FA69FB6814
S32D0000FC781A60FB69DA88FB689A8097F8473018464837BD4680BD80B58AB000AFF860B9607A603B60BB68BB613B
S32D0000FCA03B6800221A60FB681A68FB689B8819461046FFF729FE0346FB75FB7D002B01D0FB7D7EE1FB689B793F
S32D0000FCC85BB2002B01DA022377E1FB689B7903F00203002B01D107236FE1FB68DA687B681A44FB68DB689A4230
S32D0000FCF001D200237B607B68002B00F05081FB689B68C3F30803002B40F01381FB689B685B0ADAB2FB681B68F3
S32D0000FD189B78013BDBB21340BB75BB7D002B49D1FB689B68002B10D1FB681B697B627B6A002B1FD1FB681B68C5
S32D0000FD4000211846FEF78DFE7862FB687A6A1A6114E0FB685B6A002B07D0FB689B681946F868FEF707FF7862E2
S32D0000FD6808E0FB681A68FB685B6919461046FEF774FE78627B6A002B00F00C817B6A012B08D1FB689B7963F042
S32D0000FD907F03DAB2FB689A71022312E17B6AB3F1FF3F08D1FB689B7963F07F03DAB2FB689A71012305E1FB685E
S32D0000FDB87A6A5A61FB689B7903F04003002B22D0FB681B685878FB6803F12801FB689A69012301F009FE0346B3
S32D0000FDE0002B14BF01230023DBB2002B08D0FB689B7963F07F03DAB2FB689A710123E0E0FB689B7923F0400329
S32D0000FE08DAB2FB689A71FB681A68FB685B6919461046FEF7E8FB38613B69002B08D1FB689B7963F07F03DAB220
S32D0000FE30FB689A710223C4E0BB7D3A6913443B617B685B0AFB61FB69002B49D0BA7DFB691344FA68126892787B
S32D0000FE58934206D9FB681B689B781A46BB7DD31AFB61FB681B685878FB69DBB23A69B96901F0BAFD0346002B66
S32D0000FE8014BF01230023DBB2002B08D0FB689B7963F07F03DAB2FB689A71012391E0FB689A693B69D31AFA6975
S32D0000FEA89A4215D9FB6803F12800FB689A693B69D31A5B02BA6913444FF400721946FEF703FAFB689B7923F085
S32D0000FED04003DAB2FB689A71FB695B023B6248E0FB689B693A699A4220D0FB689A68FB68DB689A420ED2FB6841
S32D0000FEF81B685878FB6803F1280101233A6901F08FFC0346002B01D0012300E00023002B08D0FB689B7963F08D
S32D0000FF207F03DAB2FB689A7101234AE0FB683A699A61FB689B68C3F30803C3F500733B623A6A7B689A4201D9BC
S32D0000FF487B683B62FB689B68C3F308032833FA6813443A6AB9691846FEF7B6F9FB689B7943F04003DAB2FB682C
S32D0000FF709A71BA693B6A1344BB61FB689A683B6A1A44FB689A603B681A683B6A1A443B681A607A683B6AD31A9F
S32D0000FF987B60ACE600BFFB689A68FB68DB689A4203D9FB689A68FB68DA60FB689B7943F02003DAB2FB689A7183
S32D0000FFC0002318462837BD4680BD80B586B000AF78607B681A687B689B8819461046FFF793FC0346FB75FB7D2B
S32D0000FFE8002B40F0AC807B689B7903F02003002B00F0A5807B689B7903F04003002B1BD07B681B6858787B68BB
S32D0001001003F128017B689A69012301F0E9FC0346002B14BF01230023DBB2002B01D001238AE07B689B7923F015
S32D000100384003DAB27B689A717B681A687B68DB6919461046FEF7C5F90346FB75FB7D002B75D17B681B6A3B6142
S32D000100603B690B331A783B690B3342F02002D2B21A707B68DA683B691C33D2B21A707B68DB689BB21B0A9AB2AF
S32D000100883B691D33D2B21A707B68DB681A0C3B691E33D2B21A707B68DB681A0E3B691F33D2B21A707B681A6940
S32D000100B03B691A33D2B21A707B681B699BB21B0A9AB23B691B33D2B21A707B681B691A0C3B691433D2B21A7077
S32D000100D87B681B691B0C9BB21B0A9AB23B691533D2B21A700023FB603B691633FA68D2B21A70FB689BB21B0A03
S32D000101009AB23B691733D2B21A70FB681A0C3B691833D2B21A70FB681A0E3B691933D2B21A707B689B7923F06F
S32D000101282003DAB27B689A717B681B6801221A717B681B681846FEF7B0F90346FB75FB7D18461837BD4680BD77
S32D0001015080B584B000AF78607868FFF736FF0346FB73FB7B002B02D17B6800221A60FB7B18461037BD4680BD80
S32D0001017880B586B000AF03463960FB71FB793B7301237B6107F1100307F10C017A693868FFF779FD3B697A6948
S32D000101A09A4201D1012301E04FF0FF3318461837BD4680BD80B584B000AF786039600023FB607B681B78002B77
S32D000101C818D07B681B7839681846FFF7D1FF0346B3F1FF3F0CBF01230023DBB2002B02D04FF0FF3307E07B68E3
S32D000101F001337B60FB680133FB60E2E7FB6818461037BD4680BD80B485B000AF786039600123FB600023BB6088
S32D000102180023BB60BA683B689A4208DAFB687A6802FB03F3FB60BB680133BB60F2E7FB6818461437BD4680BCCD
S32D000102407047FFFFB0B59AB000AF78613961FA600023BB64BB6C7B647B6CB3F1FF3F00F0F5823B695A1C3A6182
S32D000102681B7887F84F3097F84F30002B00F0E78297F84F30252B0ED097F84F3079691846FFF776FF78647B6C8C
S32D00010290B3F1FF3F00F0CD8201237B64C9E2002387F867300023BB653B695A1C3A611B7887F84F3097F84F30A0
S32D000102B8302B09D1012387F867303B695A1C3A611B7887F84F300CE097F84F302D2B08D1022387F867303B6958
S32D000102E05A1C3A611B7887F84F3097F84F302E2B05D13B695A1C3A611B7887F84F3097F84F302F2B15D997F8E5
S32D000103084F30392B11D8BA6D13469B0013445B001A4697F84F301344303BBB653B695A1C3A611B7887F84F3097
S32D00010330E5E797F84F306C2B03D097F84F304C2B0BD197F8673043F0040387F867303B695A1C3A611B7887F8BC
S32D000103584F3097F84F30002B00F0738297F84F3087F84E3097F84E30602B08D997F84E307A2B04D897F84E30BA
S32D00010380203B87F84E3097F84E30423B162B00F2788101A252F823F0630601004D06010073060100830601007E
S32D000103A89D04010083060100830601008306010083060100830601008306010083060100830601006B060100C2
S32D000103D0830601008306010083060100F5030100830601007306010083060100830601007B060100FB681A1D33
S32D000103F8FA601B68FB620023FB65FA6AFB6D13441B78002B03D0FB6D0133FB65F5E70023BB6497F8673003F032
S32D000104200203002B07D1FB6D5A1CFA65BA6D9A4201D9012300E00023002B09D079692020FFF79AFE78647B6CED
S32D00010448BA6C1344BB64E4E77969F86AFFF7AEFE78647B6CBA6C1344BB64FB6D5A1CFA65BA6D9A428CBF01232A
S32D000104700023DBB2002B09D079692020FFF77CFE78647B6CBA6C1344BB64EAE77B6CB3F1FF3F00F0D081BB6CB6
S32D000104987B64CCE1FB68073323F0070303F10802FA60D3E90023C7E90E23D7E90E23C7E90C2300237B654FF0C5
S32D000104C000024FF00003D7E90E010DF027FE0346002B18D079692D20FFF74EFE78647B6CBA6C1344BB64BC6B85
S32D000104E8FB6B83F00045C7E90E453B6B3B607B6B83F000437B60D7E90023C7E90C23D7E90C010DF02FFE03460A
S32D00010510002B0ED04FF00002AB4BD7E90C010DF0B5FC02460B46C7E90C237B6D01337B65E9E77B6D013BFB6539
S32D00010538FB6DB3F1FF3F35D0FB6D19460A20FFF75EFE034618460DF009FB02460B46D7E90E010DF097FC02461A
S32D000105600B46104619460DF001FE0346BB62BA6A964B83FB02139910D317C91A0B469B000B445B00D31ABB6256
S32D00010588BB6A3033BB62BB6ADBB279691846FFF7EFFD78647B6CBA6C1344BB64FB6D013BFB65C5E779692E208C
S32D000105B0FFF7E2FD78647B6CBA6C1344BB64BB6D002B01D10323BB6501233B663A6EBB6D9A4233D83B6E1946F9
S32D000105D80A20FFF714FE034618460DF0BFFAD7E90E230DF025FB02460B46104619460DF0B9FD0346BB62BA6ACC
S32D00010600724B83FB02139910D317C91A0B469B000B445B00D31ABB62BB6A3033BB62BB6ADBB279691846FFF7D8
S32D00010628A7FD78647B6CBA6C1344BB643B6E01333B66C7E77B6CB3F1FF3F00F0FA80BB6C7B64F6E0FB681A1DCB
S32D00010650FA601B68DBB279691846FFF78DFD7864ECE0022387F8663013E0082387F866300FE00A2387F866300B
S32D000106780BE0102387F8663007E097F84F3079691846FFF775FD7864D4E097F8673003F00403002B04D0FB6871
S32D000106A01A1DFA601B680CE097F84E30442B04D1FB681A1DFA601B6803E0FB681A1DFA601B683B6597F84E305C
S32D000106C8442B0BD13B6D002B08DA3B6D5B423B6597F8673043F0080387F8673000233B6697F866203B6DB3FB75
S32D000106F0F2F101FB02F29B1A87F84E3097F866303A6DB2FBF3F33B6597F84E30092B0BD997F84F30782B01D1AF
S32D00010718272200E0072297F84E30134487F84E303B6E5A1C3A6697F84E203032D2B2603307F108010B4403F87F
S32D00010740502C3B6D002B03D03B6E0F2B00D8CBE797F8673003F00803002B09D03B6E5A1C3A66603307F108027F
S32D0001076813442D2203F8502C3B6EFB6597F8673003F00103002B01D0302300E0202387F84E300023BB6497F8DF
S32D00010790673003F00203002B07D1FB6D5A1CFA65BA6D9A4201D9012300E00023002B0FD097F84E307969184610
S32D000107B8FFF7DEFC78647B6CBA6C1344BB64E2E700002440676666663B6E013B3B6607F118023B6E13441B78F2
S32D000107E079691846FFF7C8FC78647B6CBA6C1344BB643B6E002B00D0EAE7FB6D5A1CFA65BA6D9A428CBF01236D
S32D000108080023DBB2002B09D079692020FFF7B0FC78647B6CBA6C1344BB64EAE77B6CB3F1FF3F07D0BB6C7B6473
S32D0001083004E000BF02E000BF00E000BFBA6C7B6C1344BB6408E500BF00E000BF7B6CB3F1FF3F01D17B6C00E086
S32D00010858BB6C18466837BD46B0BD00BF80B588B000AF7860396080233B610F23FB604FF0FF337B610223FB61F7
S32D00010880FB69B3F5807F23D80123BB61BB69102B1AD8FB69BA6902FB03F33A6803FB02F27B68D31ABB60BB6896
S32D000108A8002B09DBBB687A699A4205D9BB687B61FB693B61BB69FB60BB690133BB61E1E7FB695B00FB61D7E7BF
S32D000108D01D4BDB6A1C4A23F00803D3621A4BDB6A23F47F2323F47F63BB613B695B081B029AB2FB68013B1B01F0
S32D000108F8DBB21A43BB691343114A43F46023D3620F4B5B6A03F00803002B0CBF01230023DBB2002B03D00A2014
S32D0001092001F0DCFAF0E7084BDB6A074A43F00803D362054B1B6B044A43F48013136300BF2037BD4680BD00BF35
S32D0001094800100B4080B582B000AF786039607B6800221A60414B424ADA62404BDB6A03F08073002B14BF0123F3
S32D000109700023DBB2002B00D0F3E73A4B0022C3F8C020384B4FF481325A60364B28229A62344B4FF001125A6408
S32D000109983B689B6833491846FFF760FF2F4B5B6A03F00303002B14BF01230023DBB2002B00D0F3E72C4B40F2D3
S32D000109C043421A602A4B40F243425A60284B4FF488629A60264B40F24342DA60244B40F243421A61224B40F2E7
S32D000109E843425A61214B03F580531B6B1F4A43F4003302F580521363184B4FF6FF721A63164B1B4A5A63154B58
S32D00010A10DB6A144A43F00063D362124BDB6A03F00063002B14BF01230023DBB2002B00D0F3E70C4B5B6A03F497
S32D00010A388033002B14BF01230023DBB2002B02D07B6801221A60054B1B6B044A43F0800313630023184608377D
S32D00010A60BD4680BD00100B400080000160CC050000D0044000700440B3007F0080B400AF064B5A6A40F20733BC
S32D00010A881340002B14BF01230023DBB21846BD4680BC704700100B4080B485B000AF7860074B1B6B7A6813406E
S32D00010AB0FB60FB68002B00D1F6E7FB6818461437BD4680BC704700BF00100B4080B584B000AF78607B681B78FE
S32D00010AD803F03F03764A52F82330FB60FB68002B05D17B681B78002B01D00123DCE0714B1B6B704A43F080039A
S32D00010B0013636E4B5B6A03F00103002B14BF01230023DBB2002B00D0F3E7684A7B685B689360FB6823F440032C
S32D00010B28FB607B685B789B0503F44003FA681343FB607B685B78022B03D1FB6843F40013FB607B685B78042BFC
S32D00010B5016D1FB6803F44033B3F5003F08D1FB6823F44033FB60FB6843F44033FB6007E0FB6823F44033FB6023
S32D00010B78FB6843F40033FB604E4B5B684D4A9BB253607B68DB68002B2AD0FB6803F44033B3F5403F03D0FB68BE
S32D00010BA043F40013FB607B681B7A002B03D0FB6843F01003FB607B68DB68012B03D9FB6843F02003FB607B68E2
S32D00010BC8DB68B3F1FF3F0BD03A4B5A687B68DB681B04384913434B60FB6843F00203FB60344B00221A60334A62
S32D00010BF0FB68D3603248FFF753FF0346012B14BF01230023DBB2002B09D02C4B1B6B2B4A43F4702343F00103EB
S32D00010C181363012348E0274B1B6B03F08003002B14BF01230023DBB2002B07D0214B1B6B204A43F00113136390
S32D00010C40012335E01D4B1B6B03F48033002B14BF01230023DBB2002B08D0184B1B6B174A43F0011313634FF099
S32D00010C68FF3321E0FB6803F44033002B15D0114B1A697B681A61FB6803F44033B3F5803F0BD10C4B5A697B6803
S32D00010C905A610A4B9A697B689A61084BDA697B68DA61064B1B6B054A43F001031363002318461037BD4680BDB5
S32D00010CB85066020000100B4001000E0080B592B000AF7860396000237B643B68BB63994B7B637B6B002B02D1EB
S32D00010CE040F601235FE3964B3B633B6B002B02D140F60B2357E33B6B1B68FB62FB6A002B02D140F60B234EE30A
S32D00010D087B6841F20932934200F23F837B68B3F5985F08D87B68032B00F01A837B68092B00F0098331E37B6858
S32D00010D30A3F59853013B082B00F22B8301A252F823F000BF690D010055100100B11201006B100100A91001006C
S32D00010D58CF1101001712010059110100731101007649786BFFF7EEFD78647B6C002B40F01083002387F8433028
S32D00010D80002387F82B30002387F82A30002387F82930002387F84230002387F8283000233B7200237B7200233F
S32D00010DA8FB6000233B7400237B6107F108031846FFF788FE0346002B14BF01230023DBB2002B02D001237B64F8
S32D00010DD0E8E240F24C4001F081F808233B7200237B724FF4D573FB6000233B7400237B6107F108031846FFF70C
S32D00010DF869FEF863FB6B002B09D1BA69FB689A4202D001237B64C9E2012387F84230012387F8283097F82830C6
S32D00010E20002B00F0A58037233B7200237B720023FB6000233B7400237B6107F108031846FFF744FEF863FB6BA3
S32D00010E48002B02D001237B64A8E269233B7200237B720023FB6000233B7400237B6107F108031846FFF72EFED6
S32D00010E700346002B14BF01230023DBB2002B02D001237B648EE2BB6903F44013002B6FD00023FB630A2001F054
S32D00010E9821F8FB6B0133FB6337233B7200237B720023FB6000233B7400237B6107F108031846FFF707FE03460F
S32D00010EC0002B14BF01230023DBB2002B02D001237B6428E069233B7200237B7297F84230002B02D0184BFB6024
S32D00010EE802E04FF44013FB6000233B7400237B6107F108031846FFF7E5FD0346002B14BF01230023DBB2002BB8
S32D00010F1002D001237B6406E0BB69002B03DBFB6B632B00D8B6E77B6C002B40F03882FB6B632B0BD9002387F8EB
S32D00010F38423019E060170020641900204466020000003040012387F8433097F84230002B0AD0002387F842309F
S32D00010F60BB6903F08043002B02D0012387F8423097F82A30002B02D07B6B07221A6097F82930002B02D07B6B3C
S32D00010F8808221A6097F82B30002B02D07B6B04221A6097F84330002B09D07B6B02221A6097F84230002B02D0A1
S32D00010FB07B6B03221A6097F82B30002B0DD097F84330002B09D07B6B05221A6097F84230002B02D07B6B062202
S32D00010FD81A60924B00221A60904B00225A608F4B00229A608D4B0022DA608C4B00221A618A4B00225A61FB6A8B
S32D000110009A68FB6A5B6819461046FFF72BFC854B40F243421A60834B40F243425A60814B4FF488629A607F4BC8
S32D0001102840F24342DA607D4B40F243421A617B4B40F243425A617A4B03F580531B6B784A43F4003302F580526B
S32D000110501363A7E1B86BFFF739FDF863FB6B002B00F09F8102237B649BE1BB6B002B02D10C237B6496E16D4B47
S32D00011078DB6A1B0A5B0003F4FF73FB63694BDB6A1B0903F00F035A1CFB6B02FB03F3FB63FB6A9A68FB6BB2FBF4
S32D000110A0F3F2BB6B1A607DE1BB6B002B02D10C237B6477E1BB6B1B68002B02D10C237B6470E1FFF7DBFC034698
S32D000110C8002B0CBF01230023DBB2002B3CD0534B00221A60514B00225A60504B00229A604E4B0022DA604D4B02
S32D000110F000221A614B4B00225A61FB6A9A68BB6B1B6819461046FFF7ADFB464B40F243421A60444B40F2434256
S32D000111185A60424B4FF488629A60404B40F24342DA603E4B40F243421A613C4B40F243425A613B4B03F58053B9
S32D000111401B6B394A43F4003302F58052136329E140F60A237B6425E1BB6B002B02D10C237B641FE1314B5B680B
S32D00011168C3F30C02BB6B1A6018E1BB6B002B02D10C237B6412E1FFF77DFC0346002B0CBF01230023DBB2002B29
S32D0001119019D0BB6B1B68B3F5805F02D30C237B6400E1224B5B68214A23F4FF5323F01F0353601E4B5A68BB6B16
S32D000111B81B68C3F30C031B4913434B60EEE040F60A237B64EAE0BB6B002B02D10C237B64E4E0144B9B6A5B08C4
S32D000111E003F00303FB63FB6B002B03D1BB6B00221A60D7E0FB6B012B03D1BB6B01221A60D0E0FB6B102B03D15D
S32D00011208BB6B02221A60C9E005237B64C6E0BB6B002B09D10C237B64C0E000BF00D004400070044000100B40E2
S32D00011230FFF724FC0346002B0CBF01230023DBB2002B31D0BB6B1B68002B0AD1584B9B6A574A23F00603936231
S32D00011258554B554A9B6A9362A0E0BB6B1B68012B0CD1514B9B6A504A23F0060393624E4B9B6A4D4A43F0020343
S32D0001128093628FE0BB6B1B68022B0AD1484B9B6A474A23F006039362454B454A9B6A936280E005237B647DE013
S32D000112A840F60A237B6479E0BB6B002B02D10C237B6473E03C4BDB6A3B4A43F00063D362394BDB6A03F00063BC
S32D000112D0002B14BF01230023DBB2002B00D0F3E7334B1B6B03F08003002B14BF01230023DBB2002B08D02E4B80
S32D000112F81B6B2D4A43F0800313637B6B00221A60294B5B6A03F48033002B14BF01230023DBB2002B07D07B6B7F
S32D000113201B68002B06D17B6B01221A6002E07B6B00221A607B6B1A68BB6B1A6032E0BB6B1C221A60BB6B0433DD
S32D0001134804221A60BB6B08334FF41E721A6025E00220FFF7A1FB144B1B6B03F4E003002B14BF01230023DBB2DE
S32D00011370002B07D00E4B1B6B0D4A43F4E003136304237B640A4B1B6B094A43F03203136308E040F609237B644B
S32D0001139804E000BF02E000BF00E000BF7B6C18464837BD4680BD00BF00100B4080B590B000AF0346FB71A64B5B
S32D000113C0FB63A64BBB63BB6BA54A1A60FB79002B01D00123A9E1A34B1B78DBB203F00203002B14BF0123002399
S32D000113E8DBB2002B03D09D4B1B78DBB299E19B4B1B78DBB203F00303002B0CBF01230023DBB2002B01D00023E1
S32D000114108BE1BB6B002B03D0BB6B1B68002B01D1002382E1FB6B904A1A60FB6B01225A60BB6B00225A60BB6BCC
S32D0001143800229A60BB6B00221A61BB6B00221A73BB6B00225A73874B03F580531B6B854A43F4003302F5805297
S32D000114601363002141F20130FFF72CFC0346002B14BF01230023DBB2002B01D0002354E10023BB6207F1280372
S32D00011488194641F20330FFF719FC0346002B14BF01230023DBB2002B01D0002341E1BB6A022B08D0BB6A032B8C
S32D000114B005D0BB6A052B02D0BB6A062B09D1BB6A032B02D0BB6A062B05D1BB6B01221A7301E0002329E100BFED
S32D000114D802233B7200237B720023FB6000233B7400237B6107F10803194641F20230FFF7E5FB0346002B14BFD0
S32D0001150001230023DBB2002B01D000230DE103233B7200237B720023FB6000233B7400237B6107F10803194647
S32D0001152841F20230FFF7CAFB0346002B14BF01230023DBB2002B01D00023F2E0BB691B0C1B04BA6B1361092339
S32D000115503B7200237B72BB6B1B69FB6000233B7400237B6107F10803194641F20230FFF7A9FB0346002B14BF31
S32D0001157801230023DBB2002B01D00023D1E07B6A03F44003002B1ED13B6A1B0A03F00F033B633B6A03F003035C
S32D000115A07B637B6B9A02FB699B0D13437B63FB69DB0903F00703FB627B6B5A1CFB6A02339A403B6B093B9A4046
S32D000115C8BB6B9A600CE0BB6B01225A73FB691B0AC3F315037B637B6B01339A02BB6B9A6007233B7200237B72E0
S32D000115F0BB6B1B69FB6000233B7400237B6107F10803194641F20230FFF75CFB0346002B14BF01230023DBB2C7
S32D00011618002B01D0002384E010233B7200237B724FF40073FB6000233B7400237B6107F10803194641F2023087
S32D00011640FFF740FB0346002B14BF01230023DBB2002B0DD0002368E064190020481700205C17002008000020E5
S32D000116684466020000700440BB6B1B681B68012B49D137233B7200237B72BB6B1B69FB6000233B7400237B6194
S32D0001169007F10803194641F20230FFF713FB0346002B14BF01230023DBB2002B01D000233BE046233B720023D2
S32D000116B87B720223FB6000233B7400237B6107F10803194641F20230FFF7F8FA0346002B14BF01230023DBB2FB
S32D000116E0002B01D0002320E00123BB6207F12803194641F20730FFF7E5FA0346002B14BF01230023DBB2002B74
S32D0001170801D000230DE0094B1B78DBB223F00103DAB2064B1A70054B1B78DBB203F00303DBB218464037BD4611
S32D0001173080BD00BF0800002080B489B000AF786039607B687B61364B3B613B69002B01D100235FE03B691B68D3
S32D00011758022B0BD03B691B68032B07D03B691B68072B03D03B691B68082B0BD12B4B5B6A03F00403002B14BF99
S32D0001178001230023DBB2002B00D0F3E73B68FB61FB69002B3DD0FB69B3F5007F28BF4FF40073FB60FB680333DA
S32D000117A89B08BB61BB69002B2AD01C4B1B6B03F4E003002B14BF01230023DBB2002B09D0164B1B6B154A43F4F0
S32D000117D0E00343F02003136300231BE0114B5B6A03F40063002B0CBF01230023DBB2002B00D0F3E70B497B69CB
S32D000117F81A1D7A610A6A1A60BB69013BBB61D1E7FA69FB68D31AFB61BEE7012318462437BD4680BC704700BF48
S32D000118206017002000100B4080B58EB000AFB9607A601A460346FB731346BB73414B7B63FB7B002B02D1BB7BE0
S32D00011848002B01D1042375E03D4B1B78DBB203F00103002B14BF01230023DBB2002B01D0032367E0BB68002BD0
S32D0001187001D1002362E07B6B1B7B002B02D17B685B027B60BB7B012B28D111233B7500237B757B68BB61012308
S32D000118983B77BB7B3B6207F11403194641F20230FFF70CFA0346002B0CBF01230023DBB2002B38D04FF40071D3
S32D000118C0B868FFF739FF0346002B14BF01230023DBB2002B2BD00023BB7328E012233B7500237B757B68BB611A
S32D000118E801233B77BB7B3B6207F11403194641F20230FFF7E3F90346002B0CBF01230023DBB2002B0FD0BB7B30
S32D000119105B021946B868FFF70FFF0346002B14BF01230023DBB2002B01D00023BB73BB7B002B01D0012300E02A
S32D00011938002300BF18463837BD4680BD481700200800002080B487B000AF786039607B68FB603B687B617B69BE
S32D00011960002B3DD07B69B3F5007F28BF4FF400733B617A693B69D31A7B613B6903339B083B613B69002BEAD0EA
S32D00011988184B1B6B03F4E003002B14BF01230023DBB2002B0AD0134B1B6B124A43F4E00343F0100313634FF041
S32D000119B0FF3316E00D4B5B6A03F48063002B0CBF01230023DBB2002B00D0F3E7FB681A1DFA60064A1B6813620E
S32D000119D83B69013B3B61D0E7012318461C37BD4680BC704700100B4080B58EB000AFB9607A601A460346FB735B
S32D00011A001346BB735D4B7B63FB7B002B02D1BB7B002B01D10423ADE0594B1B78DBB203F00103002B14BF012372
S32D00011A280023DBB2002B01D003239FE0524B1B78DBB203F00403002B14BF01230023DBB2002B01D0022391E023
S32D00011A50BB68002B01D100238CE07B6B1B7B002B02D17B685B027B60BB7B012B28D118233B7500237B757B68E7
S32D00011A78BB6100233B77BB7B3B6207F11403194641F20230FFF71AF90346002B0CBF01230023DBB2002B38D059
S32D00011AA04FF40071B868FFF751FF0346002B14BF01230023DBB2002B2BD00023BB7328E019233B7500237B7564
S32D00011AC87B68BB6100233B77BB7B3B6207F11403194641F20230FFF7F1F80346002B0CBF01230023DBB2002B58
S32D00011AF00FD0BB7B5B021946B868FFF727FF0346002B14BF01230023DBB2002B01D00023BB730D233B7500234F
S32D00011B187B757B6B1B69BB6100233B7700233B6207F11403194641F20230FFF7C7F80346002B14BF012300237D
S32D00011B40DBB2002B01D0012314E07A6A0D4B1340002B01D001230DE07B6A03F4F853B3F5106F00D0D5E7BB7B29
S32D00011B68002B01D0012300E0002300BF18463837BD4680BD48170020080000200880D9FF80B58CB000AF0346EF
S32D00011B903A60FB710B46BB713A4BBB62FB79002B01D0042369E0012387F82F30364B1B78DBB203F00103002B5C
S32D00011BB814BF01230023DBB2002B01D0032358E0BB79032B50D801A252F823F0E51B0100ED1B0100FD1B010050
S32D00011BE00D1C0100002387F82F3044E0BB6A9A683B681A60002387F82F303CE03B684FF400721A80002387F892
S32D00011C082F3034E009233B7200237B72BB6A1B69FB6000233B7400237B6107F10803194641F20230FFF74AF87D
S32D00011C300346002B14BF01230023DBB2002B01D001231AE07B6A03F44003002B0CD13B6A9B0C03F07F035A1CF2
S32D00011C587B6A1B0A03F00303013B9A403B681A60002387F82F3002E0042387F82F3097F82F3018463037BD4689
S32D00011C8080BD00BF481700200800002080B483B000AF0346FB71FB79002B01D0012302E0034B1B78DBB2184685
S32D00011CA80C37BD4680BC70470800002080B483B000AF7860164B03F580539B6B144A43F0010302F58052936338
S32D00011CD0124A7B689360114B05225A600F4B1B680E4A43F0010313600C4B1B6803F08003002B0CBF012300230A
S32D00011CF8DBB2002B00D0F3E7064B1B68054A23F00103136000BF0C37BD4680BC704700BF0070044000000440FF
S32D00011D2080B582B000AF786039607B68012B07D13B684FF6FF72934202D1034800F00EF800BF0837BD4680BDA6
S32D00011D486C19002080B500AF4FF6FF710120FFF7E3FF80BD80B483B000AF78607B6800221A707B6818460C37F7
S32D00011D70BD4680BC7047FFFF80B582B000AF78607B681B7883F00103DBB2002B21D0134B03F580531A464FF400
S32D00011D9800639362104B4FF440721A620E4B4FF440725A620D4B1B68DA0F13445B104FF4614219460A48FCF7DE
S32D00011DC09BF9642000F08AF87B6801221A70012300E0002318460837BD4680BD0070044000D004407019002065
S32D00011DE800B00E4080B582B000AF7860084611461A460346FB700B46BB7013467B707F210E48FCF748FA082113
S32D00011E100C48FCF744FAFB7819460A48FCF73FFABB7819460748FCF73AFA7B7819460548FCF735FAFF2103489A
S32D00011E38FCF731FA00BF0837BD4680BD00B00E4080B487B000AFF860B9607A60FB681F4AA2FB03239B09BA6867
S32D00011E6013447B61FB681B4AA2FB031292094FF47A7101FB02F29B1AFB60FB68DB03154AA2FB03239B097A68F4
S32D00011E8813443B613B69DB0B7A6913447B613B69C3F30E033B610E4B1B687A699A4209D80B4B1B687A699A427D
S32D00011EB006D1094B5B683A699A4201D9012300E00023002B00D0EAE700BF1C37BD4680BC704700BFD34D621070
S32D00011ED800D0034080B584B000AF7860074B1B68FB60064B5B68BB607B68BA68F9681846FFF7A6FF00BF103714
S32D00011F00BD4680BD00D0034080B584B000AFC7E900010E4B1B68FB600C4B5B68BB604FF000020B4BD7E90001D2
S32D00011F280BF086FE02460B46104619460CF042F90346BA68F9681846FFF782FF00BF1037BD4680BD00D003408C
S32D00011F5000408F4080B584B000AF134B1B68FB60114B5B68BB60F8680BF0ECFD02460B46C7E90023B8680BF0FA
S32D00011F78E5FD4FF000020B4B0BF084FF02460B46D7E900010BF09EFC02460B46C7E90023D7E900231046194650
S32D00011FA01037BD4680BD00BF00D003400000E04080B483B000AF0B4B1B684FF47A7202FB03F37B60074B5B6898
S32D00011FC84FF47A7202FB03F3DB0B7A6813447B607B6818460C37BD4680BC704700D0034080B582B000AF786053
S32D00011FF00B46FB70FB781946786800F005F87B6818460837BD4680BD80B483B000AF78600B46FB707B68FA78A8
S32D000120181A707B681B781A46534B9B5C042B00F29E8001A252F823F0452001007F200100B9200100F320010071
S32D000120402D2101004B4A7B681B7819464A4B53F8213040F2031142F82310484B5A697B681B781946444B53F8CF
S32D00012068213003F01F03012101FA03F3DB43414913404B6173E0404A7B681B7819463C4B53F8213040F203110E
S32D0001209042F823103B4B5A697B681B781946364B53F8213003F01F03012101FA03F3DB43344913404B6156E081
S32D000120B8334A7B681B7819462D4B53F8213040F2031142F823102F4B5A697B681B781946274B53F8213003F0CD
S32D000120E01F03012101FA03F3DB43284913404B6139E0274A7B681B7819461F4B53F8213040F2031142F82310F6
S32D00012108224B5A697B681B781946194B53F8213003F01F03012101FA03F3DB431B4913404B611CE01A4A7B68B7
S32D000121301B781946104B53F8213040F2031142F82310164B5A697B681B7819460A4B53F8213003F01F030121C3
S32D0001215801FA03F3DB430F4913404B6100BF00BF0C37BD4680BC704750670200009004409467020000F00F4072
S32D0001218000A0044040F00F4000B0044080F00F4000C00440C0F00F4000D0044000F10F4080B485B000AF7860D3
S32D000121A80023FB607B681B781A46364B9B5C042B5CD801A252F823F0D5210100F521010015220100352201003B
S32D000121D0552201002E4B1B697A68127811462D4A52F8212002F01F02012101FA02F21340FB603FE0284B1B69BE
S32D000121F87A6812781146254A52F8212002F01F02012101FA02F21340FB602FE0214B1B697A68127811461D4A00
S32D0001222052F8212002F01F02012101FA02F21340FB601FE01A4B1B697A6812781146154A52F8212002F01F028A
S32D00012248012101FA02F21340FB600FE0134B1B697A68127811460D4A52F8212002F01F02012101FA02F21340BB
S32D00012270FB6000BFFB68002B14BF01230023DBB218461437BD4680BC704700BF5067020000F00F40946702009D
S32D0001229840F00F4080F00F40C0F00F4000F10F40B0B48BB000AF224B3C1D1D460FCD0FC495E80F0084E80F006D
S32D000122C000237B627B6A072B30DC1C4BD3F8A0207B6A9B0028333B4453F8243C012101FA03F31340002B14BF71
S32D000122E801230023DBB2002B18D0134A7B6A52F823305A1C10497B6A41F823200D4BD3F8A0207B6A9B00283313
S32D000123103B4453F8243C012101FA03F307491340C1F8A0307B6A01337B62CBE700BF2C37BD46B0BC704700BF86
S32D000123389868020000A004409C190020B0B489B000AF224B3C1D1D460FCD0FC495E8030084E803000023FB6129
S32D00012360FB69052B30DC1C4BD3F8A020FB699B0020333B4453F81C3C012101FA03F31340002B14BF012300239D
S32D00012388DBB2002B18D0FB690833124A52F823200132104941F823200D4BD3F8A020FB699B0020333B4453F8F7
S32D000123B01C3C012101FA03F307491340C1F8A030FB690133FB61CBE700BF2437BD46B0BC704700BFB8680200A0
S32D000123D800B004409C190020B0B48DB000AF234B3C461D460FCD0FC40FCD0FC495E8070084E807000023FB6295
S32D00012400FB6A0A2B30DC1C4BD3F8A020FB6A9B0030333B4453F8303C012101FA03F31340002B14BF01230023D1
S32D00012428DBB2002B18D0FB6A0E33124A52F823200132104941F823200D4BD3F8A020FB6A9B0030333B4453F83E
S32D00012450303C012101FA03F307491340C1F8A030FB6A0133FB62CBE700BF3437BD46B0BC704700BFD0680200C1
S32D00012478009004409C190020B0B487B000AF214B3C461D460FCD0FC42B68236000237B617B69042B30DC1C4BA7
S32D000124A0D3F8A0207B699B0018333B4453F8183C012101FA03F31340002B14BF01230023DBB2002B18D07B696B
S32D000124C81933124A52F823200132104941F823200D4BD3F8A0207B699B0018333B4453F8183C012101FA03F3CA
S32D000124F007491340C1F8A0307B6901337B61CBE700BF1C37BD46B0BC704700BFFC68020000D004409C190020A5
S32D0001251880B483B000AF78600B46FB707B68FA781A707B6818460C37BD4680BC7047FFFF80B586B000AF7860A1
S32D000125407B681B781A463E4B53F822303B617B681B781A463B4B9B5CFB733B69DBB203F01F03DAB2384B1A7232
S32D000125683B69DBB203F01F03DAB2354B5A72354B1022C3F88820FB7B002B13D13049324800F05AFA304B1B6857
S32D0001259003F08003802B14BF01230023DBB2002B00D0F3E72A4B1B697B6112E02649294800F046FA274B1B68B3
S32D000125B803F08003802B14BF01230023DBB2002B00D0F3E7214B1B697B611E4BD3F888311C4A43F01003C2F838
S32D000125E088311A4B9B68194A43F0100393607B699BB218460BF0A6FA0DA3D3E900230BF01BFB02460B46104656
S32D0001260819460BA3D3E900230BF03CFC02460B46104619460BF0EEFD0346BB60BB6818461837BD4680BD00BF1D
S32D00012630A4703D0AD7A30A4000000000E0FFEF4014680200706702007C19002000E100E000B0034000B00B4093
S32D0001265880B586B000AF78607B681B781A46234B53F822303B617B681B781A46204B9B5CFB733B69DBB203F01A
S32D000126801F03DAB21D4B1A723B69DBB203F01F03DAB21A4B5A72FB7B002B13D11749184800F0CEF9164B1B68A6
S32D000126A803F08003802B14BF01230023DBB2002B00D0F3E7104B1B697B6112E00D490F4800F0BAF90D4B1B688E
S32D000126D003F08003802B14BF01230023DBB2002B00D0F3E7074B1B697B617B6918461837BD4680BD146802003D
S32D000126F8706702008C19002000B0034000B00B4098B500AF204B5C221A701F4B10225A701D4B41F234225A8087
S32D000127201B4B45F278629A80194B10229A71184B0722DA71164B4FF4C022DA60144B1F221A72134B1F225A722A
S32D000127481149124800F078F90F49114800F074F90F4800F0D2F80D4800F0CFF80A490C4800F06AF90849094886
S32D0001277000F066F9094A064B14460FCB84E80F00064B5C221A70054B0422DA7100BF98BD7C19002000B00340C2
S32D0001279800B00B408C19002080B500AF064B1B680133054A136000F03DF8044B0122C3F80C2100BF80BD00BF6A
S32D000127C0201A00200070034080B500AF0C4B01221A600C4800F01AF8094B0322C3F80821094BD3F88831084A28
S32D000127E843F01003C2F88831054B9B68044A43F01003936000BF80BD00700340A086010000E100E080B483B031
S32D0001281000AF7860044A7B68C2F8003100BF0C37BD4680BC704700BF0070034080B584B000AF174B1B68FB6034
S32D00012838FB68002B24D0FB685B78FB71FB689B68184600F023F80346BB71BB79002B13D0FB685B68012B0FDD89
S32D00012860FB689B681B69BB60BB68002B08D0BB685B685A1CBB685A60BB681B69BB60F3E7FB68DB68FB60D7E78A
S32D0001288800BF1037BD4680BD1C1A002080B584B000AF78607868FFF7DBFEF8607B689B695B78FB72FB7A002BC7
S32D000128B00FD17B68DB68FA689A420ADD7B689B6901225A707B685B685A1C7B685A60012313E0FB7A012B0FD1A9
S32D000128D87B689B68FA689A420ADA7B689B6900225A707B685B685A1C7B685A60012300E0002318461037BD466E
S32D0001290080BD80B485B000AF78607B681B6A23F040027B681A627B685B6A23F00B027B685A627B685B6A43F01D
