S01100002E2E2F50726F746575732E73313966
S32D0000C000000000205DC2000011C3000017C300001DC3000023C3000029C3000000000000000000000000000073
S32D0000C028000000002FC3000035C30000000000003BC3000041C30000E1E30000EDE30000F9E3000005E40000A5
S32D0000C05011E400001DE4000029E4000035E4000041E400004DE4000059E4000065E4000071E400007DE4000014
S32D0000C07889E4000095E40000A1E40000ADE40000B9E40000C5E40000D1E40000DDE40000E9E40000F5E400003C
S32D0000C0A001E500000DE5000019E5000025E5000031E500003DE5000049E5000055E5000061E500006DE500005A
S32D0000C0C879E5000085E5000091E500009DE50000A9E50000B5E50000C1E50000CDE50000D9E50000E5E5000082
S32D0000C0F0F1E50000E55D0100FDE5000009E6000015E6000021E600002DE6000039E6000045E6000051E60000A2
S32D0000C1185DE6000069E6000075E6000081E600008DE6000099E60000A5E60000B1E60000BDE60000C9E600003F
S32D0000C140D5E60000E1E60000EDE60000F9E60000E133010005E7000011E700001DE7000029E7000035E7000074
S32D0000C16841E700004DE7000059E7000065E7000071E700007DE7000089E7000095E70000A1E70000ADE70000FD
S32D0000C190B9E70000C5E70000D1E7000021300100E92E0100852F010065E10000C1300100DDE70000E9E7000092
S32D0000C1B8F5E70000A893020000000020E0160000A89302000000FF1F00000000E0160020EC0600000000FF1FA9
S32D0000C1E00000000080B489B000AFF860B9607A60BB68FB61FB68BB6100237B617A697B689A420BD2BA69131DFB
S32D0000C208BB61FB69191DF96112681A607B6904337B61EFE700BF2437BD4680BC704780B485B000AF786039609E
S32D0000C2307B68FB600023BB60BA683B689A4208D2FB681A1DFA6000221A60BB680433BB60F2E700BF1437BD46FE
S32D0000C25880BC704780B586B000AF72B6234B4CF220521A80214B4DF628121A80204B4FF4E9721A801F4B7B615F
S32D0000C2807B691F4A934214D27B691A1D7A611B683B617B691A1D7A611B68FB607B691A1D7A611B68BB60BA68E9
S32D0000C2A8F9683869FFF79AFFE6E77B69134A93420ED27B691A1D7A611B68FB607B691A1D7A611B68BB60B9688B
S32D0000C2D0F868FFF7A8FFECE70B4B7B600B4A7B681A6014F001FB62B602F004F801F060FBFEE700BF0E20054024
S32D0000C2F800200540BCC10000D4C10000E4C1000008ED00E000C0000080B400AFFEE780B400AFFEE780B400AFF4
S32D0000C320FEE780B400AFFEE780B400AFFEE780B400AFFEE780B400AFFEE780B400AFFEE780B400AFFEE780B426
S32D0000C34800AFFEE7FFFFFFFFFFFFFFFFFFFFFFFFFFFFFFFFFFFFFFFFFFFFFFFFFFFFFFFFFFFFFFFFFFFFFFFF57
S32D0000C370FFFFFFFFFFFFFFFFFFFFFFFFFFFFFFFFFFFFFFFFFFFFFFFFFFFFFFFFFFFFFFFFFFFFFFFFFFFFFFFFC7
S32D0000C398FFFFFFFFFFFFFFFFFFFFFFFFFFFFFFFFFFFFFFFFFFFFFFFFFFFFFFFFFFFFFFFFFFFFFFFFFFFFFFFF9F
S32D0000C3C0FFFFFFFFFFFFFFFFFFFFFFFFFFFFFFFFFFFFFFFFFFFFFFFFFFFFFFFFFFFFFFFFFFFFFFFFFFFFFFFF77
S32D0000C3E8FFFFFFFFFFFFFFFFFFFFFFFFFFFFFFFFFFFFFFFFFFFFFFFFFFFFFFFFFFFFFFFFFFFFFFFFFEFFFFFF50
S32D0000C41010B5054C237833B9044B13B10448AFF300800123237010BDE0160020000000001892020008B5034B8F
S32D0000C4381BB103490348AFF3008008BD00000000E41600201892020080B483B000AF78607B6823F00043184641
S32D0000C4600C37BD4680BC704780B582B000AF7860786811F0D1FE034618460837BD4680BD80B582B000AF7860C3
S32D0000C488786811F0E1FF034618460837BD4680BD80B582B000AF786039607B680D4A5A617B683A681A607B6841
S32D0000C4B000225A607B6800229A607B680022DA60074A084908480AF0EFFB02467B681A617B6818460837BD4645
S32D0000C4D880BD00BFE25C23419C700200A0700200B01A0020FFFFFFFF2DE9B043A0B004AFF860B9601346FB7150
S32D0000C500FB68DB685A1CFB68DA60FB68DA6807F12803AD49184615F055F907F11C03AB4A1A6007F11003AA4A60
S32D0000C5281A6007F1280207F11C031146184615F065F907F1280207F110031146184615F05DF907F11C03A14ADB
S32D0000C5501946A1480AF0A8FB786407F110039D4A19469D480AF0A0FB3864FB685B691946B86812F099FE03460D
S32D0000C5781C46FB681B68184612F08AFD03461946204612F0D9FD0346184612F0B1FF0346FB66FB6800225A603E
S32D0000C5A0FB6800229A600023BB668C4806F018FC03467B668A4806F013FC03463B660023FB650023BB6506F025
S32D0000C5C8E5FAC7E9140106F0E1FAC7E9120106F0DDFAC7E90E01814B1B681946804802F08BF9804B1B681946E8
S32D0000C5F07F4802F085F9FB685A68FB689B681344DA0F13445B101A46FB6E934240F3C781724806F0E5FB034667
S32D0000C6181A467B6E934214BF01230023DBB2002B0CD06C4806F0D8FB03467B66FB685B685A1CFB685A60BB6DA0
S32D0000C6400133BB65664806F0CBFB03461A463B6E934214BF01230023DBB2002B0CD0604806F0BEFB03463B66F8
S32D0000C668FB689B685A1CFB689A60FB6D0133FB6506F08CFAD7E9122311F066FF02460B461046194601231C46C4
S32D0000C69049A3D3E9002312F099FB0346002B01D100231C46E3B2002B27D006F073FAD7E90E2311F04DFF0246B0
S32D0000C6B80B46F96849680291CDE900234B4A796C43480AF049FC06F061FAD7E90E2311F03BFF02460B46F968CA
S32D0000C6E089680291CDE90023424A396C3A480AF037FC06F04FFAC7E9120106F04BFAD7E9142311F025FF02464E
S32D0000C7080B461046194601231C462BA3D3E9002312F058FB0346002B01D100231C46E3B2002B00F03181BB6D20
S32D0000C730002B05D1FB6D002B02D1BB6E0133BB66FB6D002B02D1FB6D0133FB65BB6D002B02D1BB6D0133BB65F2
S32D0000C758FB79002B00F00481FA6DBB6D9A4240F38F801E4B1B68184612F04EF804460D46FA6DBB6DD31A1846E9
S32D0000C78012F08AFC0246174B1B681946104612F0D7FC0346184612F03BF880468946B86D12F024F802460B46FF
S32D0000C7A811F0D4FE02460B464046494620E000BF9A9999999999B93F9A9999999999D93FAC7002006C66740081
S32D0000C7D0726874009C700200B01A00200C170020101700200000002014170020040000201C170020B470020063
S32D0000C7F812F08CF902460B462046294611F0A6FE02460B461046194612F038FB0346824A1360824B1B681846C0
S32D0000C82011F0F6FF04460D46FA6DBB6DD31A184612F032FC02467B4B1B681946104612F07FFC0346184611F0E2
S32D0000C848E3FF80468946F86D11F0CCFF02460B4611F07CFE02460B464046494612F056F902460B462046294699
S32D0000C87011F06EFE02460B461046194612F002FB0346684A13606FE0BA6DFB6D9A426BDD634B1B68184611F0E0
S32D0000C898BBFF04460D46BA6DFB6DD31A184612F0F7FB02465C4B1B681946104612F044FC0346184611F0A8FF95
S32D0000C8C080468946B86D11F091FF02460B4611F041FE02460B464046494612F01BF902460B462046294611F0F3
S32D0000C8E833FE02460B461046194612F0C7FA0346494A1360494B1B68184611F085FF04460D46BA6DFB6DD31A7E
S32D0000C910184612F0C1FB0246424B1B681946104612F00EFC0346184611F072FF80468946F86D11F05BFF02460E
S32D0000C9380B4611F00BFE02460B464046494612F0E5F802460B462046294611F0FFFD02460B461046194612F02E
S32D0000C96091FA03462F4A13602D4B1B6819462E4801F0C6FF2B4B1B6819462C4801F0C0FF0023FB650023BB6521
S32D0000C98806F004F9C7E91401BB6E042B7FF72FAE0023FB662BE6224801F06CFF214801F069FF06F0F3F8D7E960
S32D0000C9B00E2311F0CDFD02460B46C7E90C231C4807F031FB1B491A4807F0C3FD144B1B681946174807F0D0FD7D
S32D0000C9D81749154807F0B9FD104B1B681946124807F0C6FD1349104807F0AFFDB9680E4807F0BEFDD7E90C2307
S32D0000CA000B4807F0CCFD796C0D480AF019FA396C0B480AF015FA00BF7037BD46BDE8B083000000200400002028
S32D0000CA28141700201C170020281A0020BC700200D0700200E0700200B01A002090B58BB000AF786039607B68B1
S32D0000CA505B691946386812F027FC03461C467B681B68184612F018FB03461946204612F067FB0346184612F031
S32D0000CA783FFD0346FB617B6800225A607B6800229A603E4806F0A8F903467B623C4806F0A3F903463B6206F0BC
S32D0000CAA079F8C7E90401394B1B6883F000431946374801F025FF374B1B6883F000431946354801F01DFF7B680B
S32D0000CAC85A687B689B681344DA0F13445B101A46FB6993422EDD294806F07EF903461A467B6A934214BF0123BA
S32D0000CAF00023DBB2002B09D0224806F071F903467B627B685B685A1C7B685A601E4806F067F903461A463B6AB1
S32D0000CB18934214BF01230023DBB2002BCFD0184806F05AF903463B627B689B685A1C7B689A60C4E7144801F0E9
S32D0000CB409DFE154801F09AFE06F024F8D7E9042311F0FEFC02460B46C7E902230F4807F062FA0F490D4807F096
S32D0000CB68F4FC39680B4807F003FDD7E90223094807F011FD00BF2C37BD4690BD0C17002010170020000000206D
S32D0000CB9014170020040000201C170020281A0020E0700200FFFFFFFFB0B58AB000AFF860B9601346FB71FB681E
S32D0000CBB800225A60FB6800229A608D4BFB61B86811F022FE88A3D3E9002311F075FE02460B46104619464FF074
S32D0000CBE00002864B11F096FF02460B461046194612F048F90346BB61B969F86912F0A0FA03461A46FB685B69D9
S32D0000CC081946104612F04CFB03467B61FB681B68184612F03DFA03467969184612F08CFA0346184612F064FC44
S32D0000CC3003463B61724806F0D3F803467B62714806F0CEF803463B62FB79002B3CD16E4B1B6883F000431846F9
S32D0000CC5811F0DAFD02460B4611F078FC02460B46104619464FF00002664B11F04FFF02460B461046194612F0E9
S32D0000CC8001F903461946624801F03AFE614B1B68184611F0BDFD02460B4611F05BFC02460B46104619464FF04B
S32D0000CCA80002584B11F032FF02460B461046194612F0E4F803461946554801F01DFE3BE04F4B1B68184611F073
S32D0000CCD09FFD02460B4611F03DFC02460B46104619464FF00002494B11F014FF02460B461046194612F0C6F882
S32D0000CCF803461946444801F0FFFD444B1B6883F00043184611F080FD02460B4611F01EFC02460B461046194647
S32D0000CD204FF00002394B11F0F5FE02460B461046194612F0A7F803461946374801F0E0FDFB685A68FB689B68BD
S32D0000CD481344184611F04EFD4FF000024FF0804311F0DCFE02460B4614461D46386911F041FD02460B46204669
S32D0000CD70294612F021F80346002B2ED0204806F02FF803461A467B6A934214BF01230023DBB2002B09D01A48A4
S32D0000CD9806F022F803467B62FB685B685A1CFB685A60164806F018F803461A463B6A934214BF01230023DBB250
S32D0000CDC0002BBDD00F4806F00BF803463B62FB689B685A1CFB689A60B2E70D4801F04EFD0D4801F04BFD00BFA7
S32D0000CDE82837BD46B0BD00BF182D4454FB21094000007840008066400C1700201017002000000020000008407D
S32D0000CE1014170020040000201C170020FFFFFFFF2DE9F04395B006AFF860B9607A60FB70002387F82F30FB68D9
S32D0000CE381B69A54A1946A5480AF08EF8A44809F01BFE0346A349184612F00AFB0346002B0AD19F4809F01EFEAA
S32D0000CE6003469E49184612F0FFFA0346002B01D0012300E00023002B00D0E3E7964809F0FFFD03464FF040410E
S32D0000CE88184612F0EDFA0346002B0BD1904809F001FE03464FF04041184612F0E1FA0346002B01D0012300E088
S32D0000CEB00023002B07D08A498A4807F04AFB8A49F868FFF7BFFD4FF00000884905F03CFE814809F0F1FD034631
S32D0000CED8184611F099FC4FF00002834B11F036FB02460B461046194611F0C8FF03467B637E49786B12F0D2FA42
S32D0000CF000346002B05D07B49786B12F00FF803467B63714809F0B4FD78626F4809F0BEFD3862796AB86812F09C
S32D0000CF2801F80346FB61396A786811F0FBFF0346BB61FB681E69B86811F066FC04460D46786811F061FC0246CA
S32D0000CF500B46CDE90223CDE90045674A31465D4809F0FEFFFB681E695B4809F089FD0346184611F04DFC044682
S32D0000CF780D46574809F08EFD0346184611F044FC80468946786B11F03FFC02460B46CDE90423CDE90289CDE90C
S32D0000CFA00045564A31464B4809F0DAFF4FF00001F86912F077FA0346002B00F0A7804FF00001F86912F050FA16
S32D0000CFC80346002B1BD04FF00001B86912F070FA0346002B02D0484B3B6303E14FF00001B86912F047FA0346C7
S32D0000CFF0002B02D0434B3B63F8E07B6B3B63012387F82F30F2E04FF00001B86912F054FA0346002B19D0F9694A
S32D0000D018B86912F045F903461846FFF721FA3863386B11F0F1FB26A3D3E9002311F044FC02460B46104619466F
S32D0000D04011F020FF03463B63D0E04FF00001B86912F014FA0346002B2FD0F969B86912F023F903461846FFF7E9
S32D0000D068FFF93863386B11F0CFFB15A3D3E9002311F022FC02460B461046194611F0FEFE03463B63386BFFF718
S32D0000D090DFF90346184611F0BBFB02460B464FF00000194911F054FA02460B461046194611F0E8FE03463B6397
S32D0000D0B898E04FF000033B6394E000BFAFF30080F8C1631ADCA54C4004710200B01A0020901A0020000080BFF0
S32D0000D0E008710200281A00200000C0400000E03F008056400000B443147102002C7102000000B4420000874333
S32D0000D108008076404FF00001B86912F0D1F90346002B2FD0F969B86912F0C2F803461846FFF79EF93863386B72
S32D0000D13011F06EFBA8A3D3E9002311F0C1FB02460B461046194611F09DFE03463B63386BFFF77EF903461846F8
S32D0000D15811F05AFB02460B464FF000009E4911F0F3F902460B461046194611F087FE03463B6337E04FF0000195
S32D0000D180B86912F07BF90346002B2DD0F969B86912F08AF803461846FFF766F93863386B11F036FB8CA3D3E91B
S32D0000D1A8002311F089FB02460B461046194611F065FE03463B63386BFFF746F90346184611F022FB4FF000023A
S32D0000D1D0834B11F0BFF902460B461046194611F051FE03463B6301E07E4B3B6397F82F3083F00103DBB2002BC0
S32D0000D1F800F0B381396B786B11F094FE03467B614FF00001786912F053F90346002B21D0FB681E69F86911F086
S32D0000D220F7FA04460D46B86911F0F2FA80468946786911F0EDFA02460B46CDE90423CDE90289CDE90045684A82
S32D0000D2483146684809F088FE01227969F868FFF7A7FC30E04FF00001786912F00BF90346002B28D0FB681E6987
S32D0000D270F86911F0CDFA04460D46B86911F0C8FA804689467869FFF7E3F80346184611F0BFFA02460B46CDE9EF
S32D0000D2980423CDE90289CDE90045534A3146514809F05AFE7869FFF7CFF8034600221946F868FFF775FC4FF099
S32D0000D2C000004C4905F040FC4B4809F0F5FB0346184611F09DFA4FF00002484B11F03AF902460B461046194669
S32D0000D2E811F0CCFD03467B634349786B12F0D6F80346002B05D04049786B11F013FE03467B63396B786B11F072
S32D0000D3100DFE03461846FFF79BF803463949184612F0CAF80346002B11D0396B786B11F0FDFD03461846FFF753
S32D0000D3388BF803463249184612F09CF80346002B01D0012300E00023002B00F08C802D492D4807F0FAF8396B81
S32D0000D360786B11F0E3FD03461846FFF771F80346012214461B49184612F080F80346002B01D100231C46E3B273
S32D0000D388002B14D0396B786B12F092F80346002B06D001224FF08041F868FFF701FC3BE000224FF08041F868F8
S32D0000D3B0FFF7FAFB34E0396B786B12F07DF80346002B27D000224FF08041F868FFF7ECFB26E000BFAFF30080A1
S32D0000D3D8F8C1631ADCA54C40008066400000344358710200B01A00209C7102000000E03F901A00200080564084
S32D0000D4000000B4430000A0400000B143E0710200281A002001224FF08041F868FFF7C4FB4FF00000514905F078
S32D0000D4288FFB514809F044FB0346184611F0ECF94FF000024D4B11F089F802460B461046194611F01BFD0346E3
S32D0000D4507B634949786B12F025F80346002B05D04549786B11F062FD03467B634DE7404809F006FB78623E48E5
S32D0000D47809F010FB3862796AB86811F053FD0346FB61396A786811F04DFD0346BB61F969F86911F051FE034660
S32D0000D4A01C46B969B86911F04BFE03461946204611F03EFD03461846FEF7E2FF3861FB78002B04D001223969D8
S32D0000D4C8F868FFF711F84FF00000264905F038FB254809F0EDFA0346184611F095F94FF00002224B11F032F8A5
S32D0000D4F002460B461046194611F0C4FC0346BB621D49B86A11F0CEFF0346002B05D01A49B86A11F00BFD034623
S32D0000D518BB62FB681E69144809F0AEFA0346184611F072F904460D460F4809F0B3FA0346184611F069F9804664
S32D0000D5408946B86A11F064F902460B46CDE90423CDE90289CDE90045084A3146084809F0FFFC00BF3C37BD467A
S32D0000D568BDE8F0830000E03F901A0020008056400000B443EC710200B01A0020FFFFFFFF90B583B000AF786043
S32D0000D5902B4805F0F1FD0346184611F039F901231C4623A3D3E9002311F010FC0346002B01D100231C46E3B2A5
S32D0000D5B8002B01D0012330E0204805F0D9FD0346184611F021F901231C4619A3D3E9002311F0F8FB0346002B97
S32D0000D5E001D100231C46E3B2002B01D0022318E0154805F0C1FD0346184611F009F901231C460DA3D3E9002349
S32D0000D60811F0E0FB0346002B01D100231C46E3B2002B01D0032300E0002318460C37BD4690BD00BFAFF30080C1
S32D0000D6309A9999999999F13FCDCCCCCCCCCCFC3F041700200817002000170020FFFFFFFF90B587B002AF78604F
S32D0000D6580023FB730023BB7300237B73444805F087FD0346184611F0CFF801231C463CA3D3E9002311F0A6FB57
S32D0000D6800346002B01D100231C46E3B2002B01D00123FB73394805F06FFD0346184611F0B7F801231C4632A3FA
S32D0000D6A8D3E9002311F08EFB0346002B01D100231C46E3B2002B01D00123BB732E4805F057FD0346184611F0D6
S32D0000D6D09FF801231C4626A3D3E9002311F076FB0346002B01D100231C46E3B2002B01D001237B73234806F026
S32D0000D6F896FC2349214806F0B1FCBB7B002B0CD04FF47F011D4806F0D0FC64230093322319224B21194807F065
S32D0000D7207DFAFB7B002B0CD04FF40041154806F0C0FC64230093322319227D21114807F06DFA7B7B002B0BD059
S32D0000D748FF210E4806F0B1FC6423009332231922AF210A4807F05EFA00BF1437BD4690BD9A9999999999F13F5E
S32D0000D770CDCCCCCCCCCCFC3F041700200817002000170020281A00206666660090B58FB000AFF860C7E90023E4
S32D0000D798D7E90023C7E9062305F0F8F9C7E90A0105F0F4F9C7E9040101237B6205F0EEF9D7E9042310F0C8FEE5
S32D0000D7C002460B4601210C46D7E9060111F0FEFA0346002B01D100231C46E3B2002B00F08780F868FFF7D0FEC8
S32D0000D7E878637B6B002B02D07B6B7B6204E07B6B002B01D17B6A7B6305F0C8F9D7E90A2310F0A2FE02460B462C
S32D0000D8101046194601231C464FF00002394B11F0D5FA0346002B01D100231C46E3B2002B06D0F868FFF70CFF58
S32D0000D83805F0ACF9C7E90A017B6B032BB6D801A252F823F0D3D800005DD8000077D80000A5D800002A4B1B6827
S32D0000D86019462A4801F04CF8294B1B681946294801F046F83BE0244B1B682749184611F057FB0346194621485F
S32D0000D88801F03AF8204B1B682149184611F04CFB034619461D4801F02FF824E0184B1B681B49184611F03EFB46
S32D0000D8B003461946154801F023F8154B1B681649184611F033FB03461946124801F018F80DE00D4B1B68194640
S32D0000D8D80C4801F011F80C4B1B6883F0004319460A4801F009F861E7084800F0C3FF054800F0C0FF00BF3C3729
S32D0000D900BD4690BD0000E03F0000002014170020040000201C1700200000A041FFFFFFFF80B582B000AF1E484F
S32D0000D92806F07DFB1D4805F023FC786079681A4806F01EFE4FF00001786811F0AFFD0346002B15D0786810F0B7
S32D0000D9505FFF11A3D3E9002311F02EFA0346002B0AD04FF47F010E4806F07CFB0E490C4806F0EFFD012308E022
S32D0000D978FF21094806F072FB0A49074806F0E5FD002318460837BD4680BD00BFAFF30080CDCCCCCCCCCCF43F56
S32D0000D9A0281A0020FC160020107202001472020090B595B002AF954808F0BAF803461946934806F0D9FD3B1D50
S32D0000D9C814211846FEF764FD904A9149914809F067F978648D4A90498E4809F061F938648E4A8F498B4809F095
S32D0000D9F05BF9F86340F205218C4805F0BBFE40F6C4118A4805F0D3FE4FF4FA71884805F0B1FE40F6B101864805
S32D0000DA1805F0C9FE8549844805F0E2FE4FF00001804805F0DDFE824808F0DEFD81497D4805F0D6FE07F12002CE
S32D0000DA4007F124031946724806F0AAFB034683F00103DBB2002B00D0F0E707F1200207F1240319466A4806F086
S32D0000DA689BFB0346002B00D0F3E73B1D012272491846FEF739FD714B1B68184610F0C4FE02460B46CDE900234C
S32D0000DA906D4AF96B614809F063FA6C4B1B68184610F0B6FE02460B46CDE90023684AF96B5A4809F055FAF96B2C
S32D0000DAB8584809F0C1F9614B1B68BB63614B1B687B63FFF729FF0346012B14BF01230023DBB2002B00D0F4E783
S32D0000DAE0381D01235B4A5C49FFF79AF94FF000005A4905F029F8FFF713FF38634FF00000564905F021F8381DF0
S32D0000DB080023554A5549FFF787F907F11C014FF00002534B0846FFF735FE4FF000004D4905F00EF83B1D4FF047
S32D0000DB307D511846FEF786FF3B1D01224B491846FFF732F84FF00000444904F0FDFF4849364805F049FE4FF04E
S32D0000DB580000464904F0F4FF4FF00001314805F03FFE334808F088FF0446314808F092FF0346184610F048FE0B
S32D0000DB804FF000023B4B10F0E3FC02460B461046194611F077F90246381D00232146FFF73FF93B6B012B6BD1AF
S32D0000DBA8381D0023324A3349FFF736F9381D01232F4A3049FFF730F91D4808F05DFF04461B4808F067FF034623
S32D0000DBD0184610F01DFE4FF00002264B10F0B8FC02460B461046194611F04CF90246381D00232146FFF714F98A
S32D0000DBF807F11C014FF000024FF080430846FFF7C1FD6AE0741A0020281A00202072020024720200B01A002035
S32D0000DC20307202009C7002003C72020024170020301700200000C842901A002000003442000070410000002097
S32D0000DC48487202000400002068720200000068419A9941410000E03F0000C0419A99D940000004400000204183
S32D0000DC700000BE420000F03F9A9981419A99F940381D0023B94ABA49FFF7CAF8381D0123B64AB749FFF7C4F895
S32D0000DC98B64808F0F1FE0446B44808F0FBFE0346184610F0B1FD4FF00002B14B10F04CFC02460B46104619461A
S32D0000DCC011F0E0F80246381D00232146FFF7A8F807F11C014FF000024FF080430846FFF755FD4FF00000A44986
S32D0000DCE804F02EFF3B1D4FF081411846FEF7A6FEA049A14805F074FD381D01239F4AA049FFF78AF8994808F0C9
S32D0000DD10B7FE0446974808F0C1FE03464FF07E51184611F005F903461A46381D00232146FFF776F8381D012337
S32D0000DD38944A9549FFF770F8944ABB6B1360944A7B6B1360894808F0A5FE0246381D01239049FFF761F88D4AC9
S32D0000DD60BB6B13608C4A7B6B1360824808F088FE03464FF08041184611F0DAF803461C467C4808F08BFE0346D2
S32D0000DD888549184611F0D0F803461A46381D01232146FFF741F84FF00001774805F020FD724808F069FE01464F
S32D0000DDB0381D01237B4AFFF733F83B1D01227A491846FEF7F1FE79496D4805F00DFD4FF000004FF0804104F0BD
S32D0000DDD8B7FE754800F04EFD4FF00001664805F0FFFC3B1D002271491846FEF7D9FE6D49614805F0F5FC3B1D97
S32D0000DE0069491846FEF71EFE624ABB6B1360624A7B6B1360381D0123674A6849FFF700F8544808F02DFE0346B8
S32D0000DE28184610F0F1FC4FF00002514B10F08CFB02460B461046194611F020F804464B4808F028FE0346184614
S32D0000DE5010F0DEFC4FF00002474B10F07BFB02460B461046194611F00DF80246381D00232146FEF7D5FF381DE8
S32D0000DE780023514A5149FEF7CFFF381D01234E4A4E49FEF7C9FF4FF000004D4904F058FE364808F0F1FD034630
S32D0000DEA0184610F0B5FC4FF00002334B10F050FB02460B461046194610F0E4FF04462D4808F0ECFD03461846C3
S32D0000DEC810F0A2FC4FF00002294B10F03FFB02460B461046194610F0D1FF0246381D01232146FEF799FF294A59
S32D0000DEF0BB6B1360284A7B6B136007F11C014FF00002324B0846FFF741FC2A49304805F06BFC04F03FFEC7E924
S32D0000DF180A014FF000002A4904F012FE3B1D2B491846FEF78BFD2A49274805F059FC04F02DFED7E90A2310F03B
S32D0000DF4007FB02460B461046194601231C464FF00002224B10F026FF0346002B01D100231C46E3B2002B3BD074
S32D0000DF68E5E700BF9A9981419A992941901A00200000F03F0000C842301700209A99A141333397419A992B4211
S32D0000DF9066668A41000000200400002066660A420000A04000008142000020410000DC421C1700200000B44205
S32D0000DFB8CDCC36426666CE4100005642CDCCA4410000E03F000008402417002000004040000002430000204052
S32D0000DFE03B1D00224FF080411846FEF781FA2249224805F0F9FB4FF00000214904F0A4FD20491E4805F0F0FB20
S32D0000E0083B1D4FF082411846FEF718FD4FF00001184805F0E5FB381D0123194A1949FEF7FBFE381D0123184AAC
S32D0000E0301849FEF7F5FE184ABB6B1360174A7B6B1360381D0123164A1649FEF7E9FE3B1D012215491846FEF784
S32D0000E0584BFA7B691946134808F0EEFE796C114808F0EAFE002318464C37BD4690BD00BF0000F0412417002016
S32D0000E0800000F03F0000024300002E42CDCC8C41CDCCA441666692410000002004000020000008419A99E54125
S32D0000E0A80000A040B01A002080B582B000AF786039607B68012B2ED13B684FF6FF72934229D10821164805F047
S32D0000E0D043F80221154805F03FF80121144805F03BF80021134805F037F81921124804F09BFD1821114804F04F
S32D0000E0F897FD114A0021114800F07EFB0E4A03210F4800F079FB00210E4805F013FB07210D4805F00FFB00BF3C
S32D0000E1200837BD4680BD00BFFC1600200017002004170020081700200C170020101700206666E64014170020E9
S32D0000E1481C170020241700203017002080B500AF4FF6FF710120FFF7A7FF80BD80B500AF0F4BD3F8A03003F431
S32D0000E1708053002B14BF01230023DBB2002B10D0094BD3F8A030084A23F48053C2F8A030064808F0AFFE064BD8
S32D0000E1981B68054A23F40053136000BF80BD00BF00C00440B01A0020C0F00F4080B400AF124B4FF480725A63D0
S32D0000E1C0114B5B69104A43F4005353610E4B1B680D4A43F4005313600A4B0C4A1A630C4BD3F888310A4A43F0BF
S32D0000E1E88063C2F88831084B9B68074A43F08063936000BFBD4680BC704700BF00C00440C0F00F4003010A007E
S32D0000E21000E100E080B400AF334B00225A70324B98221A70304B9B79DBB203F01003002B14BF01230023DBB21D
S32D0000E238002B00D0F2E72A4B9B79DBB29B08DBB203F00303022B14BF01230023DBB2002B00D0F0E7224B182258
S32D0000E2601A71214B00225A71204B03F580531A461F4B53641C4B54225A711B4B9B79DBB203F02003002B0CBF3A
S32D0000E28801230023DBB2002B00D0F2E7144B9B79DBB203F04003002B0CBF01230023DBB2002B00D0F2E70E4B93
S32D0000E2B01B78DBB20C4A03F03F03DBB213700A4B9B79DBB29B08DBB203F00303032B14BF01230023DBB2002B66
S32D0000E2D800D0F0E700231846BD4680BC704700BF00400640007004400000130180B500AF314B03F580539B6BBC
S32D0000E3002F4A43F4785302F580529363FFF752FFFFF780FF2B4B58221A602A4B1B684FF47A7202FB03F3284A03
S32D0000E3281360274B1B681A46234B03F580535B6C1B0E03F00F030133B2FBF3F31A46214B1A601D4B03F5805391
S32D0000E350DB6B1B4A43F0225302F58052D363184B03F580531B6B164A43F0006302F580521363174B4FF48072CD
S32D0000E3781A61642004F0BAFA134B5B69124A23F010035361104B00221A600F4B10225A610E4805F0D1FC04F02E
S32D0000E3A0D3FF05F031F80C4804F006FB0B4808F091FE4FF4FA6004F0B1FB00BF80BD00BF0070044074190020E3
S32D0000E3C8701900207819002000D00340281A00206C190020581D002080B500AFFDF7AFFF00BF80BD80B500AFB8
S32D0000E3F0FDF7A9FF00BF80BD80B500AFFDF7A3FF00BF80BD80B500AFFDF79DFF00BF80BD80B500AFFDF797FF13
S32D0000E41800BF80BD80B500AFFDF791FF00BF80BD80B500AFFDF78BFF00BF80BD80B500AFFDF785FF00BF80BDC0
S32D0000E44080B500AFFDF77FFF00BF80BD80B500AFFDF779FF00BF80BD80B500AFFDF773FF00BF80BD80B500AFE6
S32D0000E468FDF76DFF00BF80BD80B500AFFDF767FF00BF80BD80B500AFFDF761FF00BF80BD80B500AFFDF75BFF8A
S32D0000E49000BF80BD80B500AFFDF755FF00BF80BD80B500AFFDF74FFF00BF80BD80B500AFFDF749FF00BF80BDFC
S32D0000E4B880B500AFFDF743FF00BF80BD80B500AFFDF73DFF00BF80BD80B500AFFDF737FF00BF80BD80B500AF22
S32D0000E4E0FDF731FF00BF80BD80B500AFFDF72BFF00BF80BD80B500AFFDF725FF00BF80BD80B500AFFDF71FFF02
S32D0000E50800BF80BD80B500AFFDF719FF00BF80BD80B500AFFDF713FF00BF80BD80B500AFFDF70DFF00BF80BD37
S32D0000E53080B500AFFDF707FF00BF80BD80B500AFFDF701FF00BF80BD80B500AFFDF7FBFE00BF80BD80B500AF5E
S32D0000E558FDF7F5FE00BF80BD80B500AFFDF7EFFE00BF80BD80B500AFFDF7E9FE00BF80BD80B500AFFDF7E3FE7D
S32D0000E58000BF80BD80B500AFFDF7DDFE00BF80BD80B500AFFDF7D7FE00BF80BD80B500AFFDF7D1FE00BF80BD76
S32D0000E5A880B500AFFDF7CBFE00BF80BD80B500AFFDF7C5FE00BF80BD80B500AFFDF7BFFE00BF80BD80B500AF9C
S32D0000E5D0FDF7B9FE00BF80BD80B500AFFDF7B3FE00BF80BD80B500AFFDF7ADFE00BF80BD80B500AFFDF7A7FEF5
S32D0000E5F800BF80BD80B500AFFDF7A1FE00BF80BD80B500AFFDF79BFE00BF80BD80B500AFFDF795FE00BF80BDB2
S32D0000E62080B500AFFDF78FFE00BF80BD80B500AFFDF789FE00BF80BD80B500AFFDF783FE00BF80BD80B500AFD7
S32D0000E648FDF77DFE00BF80BD80B500AFFDF777FE00BF80BD80B500AFFDF771FE00BF80BD80B500AFFDF76BFE6C
S32D0000E67000BF80BD80B500AFFDF765FE00BF80BD80B500AFFDF75FFE00BF80BD80B500AFFDF759FE00BF80BDED
S32D0000E69880B500AFFDF753FE00BF80BD80B500AFFDF74DFE00BF80BD80B500AFFDF747FE00BF80BD80B500AF13
S32D0000E6C0FDF741FE00BF80BD80B500AFFDF73BFE00BF80BD80B500AFFDF735FE00BF80BD80B500AFFDF72FFEE4
S32D0000E6E800BF80BD80B500AFFDF729FE00BF80BD80B500AFFDF723FE00BF80BD80B500AFFDF71DFE00BF80BD29
S32D0000E71080B500AFFDF717FE00BF80BD80B500AFFDF711FE00BF80BD80B500AFFDF70BFE00BF80BD80B500AF4E
S32D0000E738FDF705FE00BF80BD80B500AFFDF7FFFD00BF80BD80B500AFFDF7F9FD00BF80BD80B500AFFDF7F3FD5E
S32D0000E76000BF80BD80B500AFFDF7EDFD00BF80BD80B500AFFDF7E7FD00BF80BD80B500AFFDF7E1FD00BF80BD67
S32D0000E78880B500AFFDF7DBFD00BF80BD80B500AFFDF7D5FD00BF80BD80B500AFFDF7CFFD00BF80BD80B500AF8D
S32D0000E7B0FDF7C9FD00BF80BD80B500AFFDF7C3FD00BF80BD80B500AFFDF7BDFD00BF80BD80B500AFFDF7B7FDD7
S32D0000E7D800BF80BD80B500AFFDF7B1FD00BF80BD80B500AFFDF7ABFD00BF80BD80B500AFFDF7A5FD00BF80BDA3
S32D0000E80080B584B000AFF8600B467A60FB72FB68FA7A1A71FB6800225A711749786810F04BFE0346002B02D061
S32D0000E828134B7B600AE04FF07E51786810F02CFE0346002B02D04FF07E537B6078680FF0E3FF09A3D3E900230A
S32D0000E85010F036F802460B461046194610F012FB0246FB681A60FB6818461037BD4680BDABAAAAAAAAAA204047
S32D0000E8780000404180B582B000AF78607B685B79002B09D07B6800225A717B6819791E230022034804F0C6F8A3
S32D0000E8A000BF0837BD4680BD6C19002080B584B000AF786039603B687F2B02DD7F23FB7308E03B6813F1800F84
S32D0000E8C802DA8023FB7301E03B68FB737B685B79FA7B9A4209D07B68FA7B5A717B681979FA7B1E23034804F0D5
S32D0000E8F09DF800BF1037BD4680BD00BF6C190020B0B584B000AF786039603749386810F0B5FD0346002B02D0EA
S32D0000E918334B3B6008E03349386810F0C9FD0346002B01D02F4B3B6038680FF06DFF04460D467B681B68184628
S32D0000E9400FF066FF4FF00002294B10F0E3F802460B46204629460FF0B3FF02460B461046194610F08FFA034676
S32D0000E9683B604FF00001386810F098FD0346002B10D038680FF048FF17A3D3E900230FF09BFF02460B46104616
S32D0000E990194610F02FFA0346FB6018E038680FF037FF4FF00002134B0FF08AFF02460B46104619464FF00002AA
S32D0000E9B80D4B10F0ABF802460B461046194610F015FA0346FB60F9687868FFF76BFF00BF1037BD46B0BD00BF5F
S32D0000E9E052B81E85EB51F43F0000C8C20000C842000059400000604080B483B000AF03460A46FB711346BB7180
S32D0000EA08BB79002B03D1134B00221A7002E0114B01221A703823FB710E4B1A78FB791343FB710D4B9B78DBB2D8
S32D0000EA300B4A43F01003DBB29370094B9B78DBB2074A43F02003DBB29370054AFB79137100BF0C37BD4680BCDA
S32D0000EA58704700BF3C1700200060064080B483B000AF01237B607B68312B04DC00BF7B6801337B60F7E700BF7F
S32D0000EA800C37BD4680BC704780B582B000AF03460A46FB711346BB71134B1B7800211846FFF7AAFF00F024F874
S32D0000EAA8104AFB79137100F01FF80E4ABB79137100F01AF80B4B9B78DBB20A4A23F02003DBB29370074B9B7860
S32D0000EAD0DBB2064A23F01003DBB29370FFF7C2FF00BF0837BD4680BD3D1700200060064080B483B000AF174BFE
S32D0000EAF81B78002B24D100237B60154BDB78DBB203F00203002B0CBF01230023DBB2002B0DD07B6842F210729C
S32D0000EB20934203DD0B4B01221A7004E07B6801337B6000BFE5E7084BDB78DBB2064A43F00203DBB2D37000E043
S32D0000EB4800BF0C37BD4680BC704700BF3E1700200060064080B582B000AF0346FB71FB79184600F05FF800BF2A
S32D0000EB700837BD4680BD80B582B000AF03460A46FB711346BB7100F035F8FB795B00DBB21846FFF7E3FFBB7975
S32D0000EB981846FFF7DFFF00F037F800BF0837BD4680BD80B500AFFF2000F03CF80346184680BD80B584B000AF9D
S32D0000EBC00346FB7100F016F8FB795B005BB243F001035BB2DBB21846FFF7C0FFFFF7E5FF0346FB7300F014F827
S32D0000EBE8FB7B18461037BD4680BDFFFF80B400AF044B9B68034A43F48013936000BFBD4680BC704740F00F4033
S32D0000EC1080B400AF044B5B68034A43F48013536000BFBD4680BC704740F00F4080B485B000AF0346FB710023F3
S32D0000EC38BB73164BDB6A03F00043012B0CBF01230023DBB2002B03D0FB7B0133FB73F0E70E4BDB6A0D4A43F0C4
S32D0000EC600043D3620B4AFB7953630A4BDB6A03F40033002B0CBF01230023DBB2002B00D0F3E7044B9B6BBB73A9
S32D0000EC88BB7B18461437BD4680BC704700C00A4080B582B000AF204B03F580531B6B1E4A43F4805302F5805272
S32D0000ECB013631C4B4FF480721A651B4B5B691A4A43F480135361FFF7A3FF164B4FF400725A65144B4FF4007218
S32D0000ECD89A65124B4FF40072DA65124B124A1A60104B124ADA6000237B607B68092B06DCFF20FFF72FFF7B687D
S32D0000ED0001337B60F5E704A1D1E9000103F01CFF00BF0837BD4680BD9A9999999999B93F0070044000A0044027
S32D0000ED2840F00F4000C00A40000C00800500003E90B486B000AFF860B9607A60FB68534A93420AD1524B03F5AC
S32D0000ED5080535B6B504A43F4806302F58052536345E0FB684D4A93420AD14B4B03F580535B6B494A43F40063A6
S32D0000ED7802F58052536336E0FB68474A93420AD1434B03F580535B6B414A43F4805302F58052536327E0FB6897
S32D0000EDA0404A93420AD13C4B03F580535B6B3A4A43F4005302F58052536318E0FB683A4A93420AD1344B03F560
S32D0000EDC880539B6A324A43F4806302F58052936209E02F4B03F580539B6A2D4A43F4006302F580529362FB688C
S32D0000EDF0DB78DBB223F00C03DAB2FB68DA70FB6800229A70BB684FF47A7203FB02F27B681B0192FBF3F39CB227
S32D0000EE18FB681B78DBB223F01F03FB75230A9BB2DBB203F01F03DAB2FB7D1343DAB2FB681A70E2B2FB685A70F4
S32D0000EE40BB684FF4FA4203FB02F27B681B0192FBF3F39AB263019BB2D31A9CB2FB689B7ADBB223F01F03FB75BC
S32D0000EE68E3B203F01F03DAB2FB7D1343DAB2FB689A72FB68DB78DBB243F00C03DAB2FB68DA7000BF1837BD46AE
S32D0000EE9090BC704700A006400070044000B0064000C0064000D0064000A00E4080B483B000AF78607B681B7952
S32D0000EEB8DBB203F02003002B0CBF01230023DBB2002B00D0F2E77B68DB79DBB218460C37BD4680BC704780B45C
S32D0000EEE083B000AF78600B46FB707B681B79DBB25BB2DB43DBB2DB09DBB2002B00D0F4E77B68FA78DA7100BF2C
S32D0000EF080C37BD4680BC704780B487B000AFF860B9607A60FB687B61BB683B617B685A1E7A60002B14BF0123E8
S32D0000EF300023DBB2002B08D03A69531C3B617B69591C796112781A70ECE700BF1C37BD4680BC704780B487B0C5
S32D0000EF5800AFF860B9607A60FB687B617B685A1E7A60002B14BF01230023DBB2002B06D07B695A1C7A61BA68F3
S32D0000EF80D2B21A70EEE700BF1C37BD4680BC704780B489B000AFF860B9607A60FB68FB61BB68BB6100237B6114
S32D0000EFA87B685A1E7A60002B0FD0FB695A1CFA611B781946BB695A1CBA611B78CB1A7B617B69002B01D10123C7
S32D0000EFD000E00023002B00D0E6E77B6918462437BD4680BC704780B483B000AF786039607B681B78002B09D0B4
S32D0000EFF87B681B781A463B68934203D07B6801337B60F1E77B681B7818460C37BD4680BC704780B584B000AFDB
S32D0000F020786039607B681B6BFB60FA683B689A4252D07B681B79002B35D07B6858787B6803F134010123FA689E
S32D0000F04803F0F2FA0346002B14BF01230023DBB2002B01D001233CE07B6800221A717B685A6A7B681B6A13446E
S32D0000F070FA689A4217D27B68DB78FB72FB7A012B11D97B681B6AFA681344FB607B6858787B6803F134010123BE
S32D0000F098FA6803F0C9FAFB7A013BFB72EAE73B68002B15D07B6858787B6803F1340101233A6803F0D5F9034601
S32D0000F0C0002B14BF01230023DBB2002B01D0012303E07B683A681A63002318461037BD4680BD80B584B000AF2B
S32D0000F0E8786000217868FFF794FF0346FB73FB7B002B40F093807B681B78032B7DD17B685B79002B79D07B68FD
S32D0000F11000221A637B6834334FF4007200211846FFF718FF7B68552283F832227B68AA2283F833227B685222A8
S32D0000F13883F834207B68522283F835207B68612283F836207B68412283F837207B68722283F818227B687222C1
S32D0000F16083F819227B68412283F81A227B68612283F81B227B681B69DAB27B6883F81C227B681B699BB21B0A48
S32D0000F1889BB2DAB27B6883F81D227B681B691B0CDAB27B6883F81E227B681B691B0EDAB27B6883F81F227B688D
S32D0000F1B0DB68DAB27B6883F820227B68DB689BB21B0A9BB2DAB27B6883F821227B68DB681B0CDAB27B6883F879
S32D0000F1D822227B68DB681B0EDAB27B6883F823227B6858787B6803F134017B685A69012303F01AFA7B680022B2
S32D0000F2005A717B685B7800220021184603F0DCFA0346002B14BF01230023DBB2002B01D00123FB73FB7B184678
S32D0000F2281037BD4680BD80B483B000AF786039603B68023B3B607B68DB69023B3A689A4201D3002308E07B688B
S32D0000F2509B781A463B6803FB02F27B68DB6A134418460C37BD4680BC704780B586B000AF786039603B68012B18
S32D0000F27804D97B68DB693A689A4201D30123B5E07B681B78032B7AD0032B00F3AD80012B02D0022B4DD0A7E04E
S32D0000F2A03B683B613B695B083A6913443B617B685A6A3B695B0A134419467868FFF7ADFE0346002B14BF012312
S32D0000F2C80023DBB2002B40F088803B69C3F308037A68134493F83430FB603B6901333B617B685A6A3B695B0AF9
S32D0000F2F0134419467868FFF790FE0346002B14BF01230023DBB2002B6DD13B69C3F308037A68134493F83430C5
S32D0000F3181B021A46FB681343FB603B6803F00103002B02D0FB681B0960E0FB68C3F30B035CE07B685A6A3B682B
S32D0000F3401B0A134419467868FFF767FE0346002B14BF01230023DBB2002B46D13B685B0003F4FF7330337A6880
S32D0000F368134404337B617B6901331B781B021AB27B691B781BB213431BB29BB236E07B685A6A3B68DB0913442A
S32D0000F39019467868FFF741FE0346002B14BF01230023DBB2002B22D13B689B0003F4FE7330337A681344043329
S32D0000F3B87B617B6903331B781A067B6902331B781B0413437A6901321278120213437A691278134323F07043CA
S32D0000F3E008E000BF04E000BF02E000BF00E000BF4FF0FF3318461837BD4680BD80B588B000AFF860B9607A60B0
S32D0000F408BB68012B04D9FB68DB69BA689A4202D30223FB77EEE0FB681B78032B00F09780032B00F3DA80012BF9
S32D0000F43002D0022B6BD0D4E0BB687B617B695B087A6913447B61FB685A6A7B695B0A13441946F868FFF7E1FD0A
S32D0000F4580346FB77FB7F002B40F0C2807B69C3F308033033FA6813440433BB61BB6803F00103002B0DD0BB695A
S32D0000F4801B785BB203F00F035AB27B68DBB21B015BB213435BB2DBB201E07B68DBB2BA6913707B6901337B6139
S32D0000F4A8FB6801221A71FB685A6A7B695B0A13441946F868FFF7ADFD0346FB77FB7F002B40F090807B69C3F3C5
S32D0000F4D008033033FA6813440433BB61BB6803F00103002B03D07B681B09DBB20CE0BB691B7823F00F03DAB294
S32D0000F4F87B681B0ADBB203F00F03DBB21343DBB2BA69137073E0FB685A6ABB681B0A13441946F868FFF77DFDEE
S32D0000F5200346FB77FB7F002B62D1BB685B0003F4FF733033FA6813440433BB617B68DAB2BB691A707B689BB287
S32D0000F5481B0A9AB2BB690133D2B21A704FE0FB685A6ABB68DB0913441946F868FFF759FD0346FB77FB7F002B9F
S32D0000F57040D1BB689B0003F4FE733033FA6813440433BB61BB6903331B781A06BB6902331B781B041343BA6936
S32D0000F5980132127812021343BA691278134303F070437A6813437B607B68DAB2BB691A707B689BB21B0A9AB2A4
S32D0000F5C0BB690133D2B21A707B681A0CBB690233D2B21A707B681A0EBB690333D2B21A7009E00223FB7706E06E
S32D0000F5E800BF04E000BF02E000BF00E000BFFB6801221A71FB7F18462037BD4680BD80B584B000AF786039604A
S32D0000F6103B68012B04D97B68DB693A689A4202D30223FB7338E00023FB737B68DB693A689A4231D23968786841
S32D0000F638FFF717FEB860BB68002B26D0BB68012B02D10223FB7323E0BB68B3F1FF3F02D10123FB731CE00022FD
S32D0000F66039687868FFF7CAFE0346FB73FB7B002B11D17B681B69B3F1FF3F07D07B681B695A1C7B681A617B68C5
S32D0000F68801225A71BB683B60CBE700BF00E000BFFB7B18461037BD4680BD80B586B000AF786039603B68002BE4
S32D0000F6B00DD17B68DB683B613B69002B04D07B68DB693A699A4215D301233B6112E039687868FFF7CAFDB86053
S32D0000F6D8BB68012B01D8012364E07B68DB69BA689A4201D2BB685DE03B683B613B697B617B6901337B617B6886
S32D0000F700DB697A699A4207D302237B617A693B699A4201D9002349E079697868FFF7A5FDB860BB68002B0ED0D6
S32D0000F728BB68B3F1FF3F02D0BB68012B01D1BB6838E07A693B699A42DAD1002332E000BF6FF0704279697868AB
S32D0000F750FFF754FE0346FB73FB7B002B09D13B68002B06D07A6939687868FFF747FE0346FB73FB7B002B10D195
S32D0000F7787B687A69DA607B681B69B3F1FF3F10D07B681B695A1E7B681A617B6801225A7107E0FB7B012B02D1D0
S32D0000F7A04FF0FF3300E001237B617B6918461837BD4680BD80B487B000AF786039607B685B6A04333B613B6870
S32D0000F7C85B0A7A6812689278B3FBF2F37B613B691A1D3A611B68FB60FB68002B01D1002310E07A69FB689A42F0
S32D0000F7F007D37A69FB68D31A7B613B6904333B61E9E700BF3B691A687B69134418461C37BD4680BC704780B5BF
S32D0000F81884B000AF78600B467B807B687A88DA807B689B68FB60FB68012B05D07B681B68DB69FA689A4201D31B
S32D0000F840022364E0FB68002B08D17B681B681B78032B03D17B681B689B6AFB60FB68002B13D17B68FA68DA6018
S32D0000F8687B681B681B897A889A4201D302234AE07B681B689A6A7B881B091A447B681A6135E07B681B689B788C
S32D0000F8909BB21B017B817A887B899A421CD37B681B68F9681846FFF7E0FCF860FB68B3F1FF3F01D101232AE080
S32D0000F8B8FB68012B05D97B681B68DB69FA689A4201D302231FE07A887B89D31A7B80DEE77B68FA68DA607B68C0
S32D0000F8E01B68F9681846FFF7A2FC02467B881B091A447B681A617B681B6803F134027B8803F00F035B011A44A7
S32D0000F9087B685A61002318461037BD4680BD90B585B000AF786039607B68DB8801333B813B89002B03D07B68B6
S32D0000F9301B69002B01D10423C4E03B8903F00F03002B40F0B0807B681B695A1C7B681A617B68DB68002B08D1A4
S32D0000F9587B681B681B893A899A42C0F0A0800423ACE03B891B097A6812689278013A1340002B40F094807B6827
S32D0000F9801A687B68DB6819461046FFF76EFCF860FB68012B01D8022394E0FB68B3F1FF3F01D101238EE07B68B7
S32D0000F9A81B68DB69FA689A426DD33B68002B01D1042383E07B681A687B68DB6819461046FFF76BFEF860FB6868
S32D0000F9D0002B01D1072375E0FB68012B01D1022370E0FB68B3F1FF3F01D101236AE07B681B6800211846FFF757
S32D0000F9F810FB0346002B14BF01230023DBB2002B01D001235AE07B681B6834334FF4007200211846FFF79AFAD6
S32D0000FA207B681A687B681C68F9681046FFF7FFFB034623630023FB727B681B689B78FA7A9A421CD27B681B68C9
S32D0000FA4801221A717B681B6800211846FFF7E1FA0346002B14BF01230023DBB2002B01D001232BE07B681B6880
S32D0000FA701A6B01321A63FB7A0133FB72DCE77B681B68196BFA7A7B681B688A1A1A637B68FA68DA607B681B6890
S32D0000FA98F9681846FFF7C7FB02467B681A617B683A89DA807B681B6803F134023B8903F00F035B011A447B682D
S32D0000FAC05A61002318461437BD4690BD80B586B000AF786000217868FFF79DFE0346FB75FB7D002B01D0FB7D18
S32D0000FAE83CE07B681A687B681B6919461046FFF790FA0346FB75FB7D002B2BD17B685B693B613B691B78FB7393
S32D0000FB10FB7B002B02D10423FB7522E03B690B331B7803F00803002B0BD17B689B690B2219463869FFF72CFA10
S32D0000FB380346002B01D1012300E00023002B0BD100217868FFF7E3FE0346FB75FB7D002B03D1C6E700BF00E0D7
S32D0000FB6000BFFB7D18461837BD4680BD80B584B000AF786000217868FFF74DFE0346FB73FB7B002B21D17B68F4
S32D0000FB881A687B681B6919461046FFF742FA0346FB73FB7B002B13D17B685B691B78BB73BB7BE52B0DD0BB7B82
S32D0000FBB0002B0AD001217868FFF7ADFE0346FB73FB7B002B01D1DEE700BFFB7B002B1FD17B681A687B681B6974
S32D0000FBD819461046FFF71DFA0346FB73FB7B002B12D17B685B69BB6020220021B868FFF7ADF97B689B690B220D
S32D0000FC001946B868FFF784F97B681B6801221A71FB7B18461037BD4680BDFFFF80B588B000AF786039603B6847
S32D0000FC281B68FB60FB681B782F2B03D0FB681B785C2B03D1FB680133FB60F3E77B689B69BB600B222021B86800
S32D0000FC50FFF780F90023FB7700233B613B697B610823BB61FA687B6913441B782E2B2FD17B695A1C7A61FA68DC
S32D0000FC7813441B78BB77BB7F2E2B0AD17B69022B07D83B695A1C3A61BA681344BA7F1A70EAE7BB7F2F2B07D0B7
S32D0000FCA0BB7F5C2B04D0BB7F202B01D90623A7E0FA687B691A443B681A60BB7F202B01D8242200E02022BB68E8
S32D0000FCC80B331A70002397E07B695A1C7A61FA6813441B78BB77BB7F202B58D9BB7F2F2B55D0BB7F5C2B52D0A7
S32D0000FCF0BB7F2E2B03D03A69BB699A420FD3BB69082B02D1BB7F2E2B01D0062378E008233B610B23BB61FB7F61
S32D0000FD189B00FB773AE097F91E30002B08DAFB7F43F00303FB77BB7F803B354AD35CBB77BB7F19463348FFF7A7
S32D0000FD4052F90346002B14BF01230023DBB2002B01D0062354E0BB7F402B07D9BB7F5A2B04D8FB7F43F0020304
S32D0000FD68FB770CE0BB7F602B09D9BB7F7A2B06D8FB7F43F00103FB77BB7F203BBB773B695A1C3A61BA68134493
S32D0000FD90BA7F1A709CE7FA687B691A443B681A60BB7F202B01D8042300E00023BB773B69002B01D1062323E0B7
S32D0000FDB8BB681B78E52B02D1BB6805221A70BB69082B02D1FB7F9B00FB77FB7F03F00303012B03D1BB7F43F01F
S32D0000FDE01003BB77FB7F03F00C03042B03D1BB7F43F00803BB77BB680B33BA7F1A70002318462037BD4680BD4B
S32D0000FE088C7202000C73020080B584B000AF786039603B681B782F2B03D03B681B785C2B06D13B6801333B6059
S32D0000FE307B6800229A6004E07B681B689A697B689A603B681B781F2B09D800217868FFF7E2FC0346FB737B68AB
S32D0000FE5800225A6169E03B4619467868FFF7DAFE0346FB73FB7B002B58D17868FFF72AFE0346FB737B689B69AB
S32D0000FE80DB7ABB73FB7B002B1DD0FB7B042B4BD1BB7B03F02003002B0DD07B6800229A607B6800225A6100234C
S32D0000FEA8FB73BB7B03F00403002B3BD135E0BB7B03F00403002B35D10523FB7332E0BB7B03F00403002B2FD1DE
S32D0000FED07B685B69BB60BB680B331B7803F01003002B02D10523FB7323E0BB6815331B781B021AB2BB68143360
S32D0000FEF81B781BB213431BB29BB21B04BA681B321278120211B2BA681A32127812B20A4312B292B21A437B68CC
S32D0000FF209A609CE700BF04E000BF02E000BF00E000BFFB7B18461037BD4680BD80B582B000AF786039607B68CF
S32D0000FF4858787B6803F1340101233A6802F088FA0346002B14BF01230023DBB2002B01D003234AE07B6803F236
S32D0000FF70322301331B781B021AB27B6893F832321BB213431BB2214A934201D0022338E07B686A3303331B7805
S32D0000FF981A067B686A3302331B781B0413437A686A3201321278120213437A6892F86A20134323F07F43144A3A
S32D0000FFC0934201D100231CE07B68863303331B781A067B68863302331B781B0413437A68863201321278120284
S32D0000FFE813437A6892F88620134323F07F43064A934201D1002300E0012318460837BD4680BD00BF55AAFFFFA1
S32D000100104641540080B592B000AFF860B9601346FB71FB681B68FB62FB6A1B78303B3B643B6C092B0BD8FB6A22
S32D0001003801331B783A2B06D1FB6A0233FB62FB68FA6A1A6002E0A34B1B783B643B6C002B01D00B2367E2A04A58
S32D000100603B6C52F82330BB62BB68BA6A1A60BB6A002B01D10C235AE2BB6A1B78002B1AD0BB6A5B78184602F0AD
S32D0001008821FC034687F8273097F8273003F00103002B0CD1FB79002B07D097F8273003F00403002B01D00A23A9
S32D000100B03DE200233BE2BB6A00221A703B6CDAB2BB6A5A70BB6A5B78184601F093FF034687F8273097F82730F1
S32D000100D803F00103002B01D0032324E2FB79002B07D097F8273003F00403002B01D00A2319E20023FB63F96B7B
S32D00010100B86AFFF71BFF034687F8473097F84730012B22D1BB6A03F5F9733B623B6A04331B78002B19D03B6AEC
S32D000101280B331B781A063B6A0A331B781B0413433A6A09321278120213433A6A083212781343FB63F96BB86A58
S32D00010150FFF7F4FE034687F8473097F84730032B01D10123E3E197F84730002B01D00D23DDE1BB6A93F840305B
S32D000101781B021AB2BB6A93F83F301BB213431BB2B3F5007F01D00D23CDE1BB6A93F84B301B021AB2BB6A93F8C6
S32D000101A04A301BB213431BB29BB2BB63BB6B002B12D1BB6A93F85B301A06BB6A93F85A301B041343BA6A92F86F
S32D000101C8592012021343BA6A92F858201343BB63BB6ABA6B1A62BB6A93F84430FB77BB6AFA7FDA70FB7F012BA1
S32D000101F004D0FB7F022B01D00D2398E1FA7FBB6B02FB03F3BB63BB6A93F84130FB77BB6AFA7F9A70FB7F002B5B
S32D0001021805D0FA7FFB7F013B1340002B01D00D2381E1BB6A93F846301B021AB2BB6A93F845301BB213431BB2AE
S32D000102409AB2BB6A1A81BB6A1B8903F00F03002B01D00D236BE1BB6A93F848301B021AB2BB6A93F847301BB238
S32D0001026813431BB29BB27B637B6B002B12D1BB6A93F857301A06BB6A93F856301B041343BA6A92F855201202EC
S32D000102901343BA6A92F8542013437B63BB6A93F843301B021AB2BB6A93F842301BB213431BB2BB83BB8B002BC6
S32D000102B801D10D2337E1BA8BBB6B1A44BB6A1B891B091344BB617A6BBB699A4206D20D2329E100BF46170020A1
S32D000102E0401700207A6BBB69D31ABA6A9278B3FBF2F37B617B69002B01D10D2317E1012387F847307B6940F6A8
S32D00010308F572934202D9022387F847307B694FF6F572934202D9032387F847307B699A1CBB6ADA61FA6BBB69B5
S32D000103301A44BB6ADA62BA8BFB6B1A44BB6A5A6297F84730032B1ED1BB6A1B89002B01D00D23ECE0BB6A93F861
S32D0001035863301A06BB6A93F862301B041343BA6A92F8612012021343BA6A92F860201A43BB6A9A62BB6ADB695E
S32D000103809B003B631FE0BB6A1B89002B01D10D23CDE0BB6A5A6ABB6B1A44BB6A9A6297F84730022B03D1BB6AB9
S32D000103A8DB695B000AE0BB6ADA6913465B0013445A08BB6ADB6903F0010313443B63BB6A1A6A3B6B03F2FF131D
S32D000103D05B0A9A4201D20D23A9E0BB6A4FF0FF321A61BB6A0022DA6097F84730032B40F08680BB6A00225A7124
S32D000103F8BB6A93F865301B021AB2BB6A93F864301BB213431BB29BB21A46FB6B1A44BB6A5A61BB6A5878BB6A09
S32D0001042003F13401BB6A5A69012302F01DF80346002B39D1BB6A93F833321B021AB2BB6A93F832321BB21343BE
S32D000104481BB23B4A93422BD1BB6A93F837301A06BB6A93F836301B041343BA6A92F8352012021343BA6A92F885
S32D0001047034201343314A934216D1BB6A93F81B321A06BB6A93F81A321B041343BA6A92F8192212021343BA6A77
S32D0001049892F818221343284A934201D1012300E00023002B27D0BB6A93F823321A06BB6A93F822321B0413431B
S32D000104C0BA6A92F8212212021343BA6A92F820221A43BB6ADA60BB6A93F81F321A06BB6A93F81E321B04134370
S32D000104E8BA6A92F81D2212021343BA6A92F81C221A43BB6A1A61BB6A97F847201A700F4B1B8801339AB20D4B2B
S32D000105101A800C4B1A88BB6ADA80BB6A00221A63BB6A00221A71BB6A00229A61002318464837BD4680BD00BFD3
S32D0001053855AAFFFF52526141727241614417002080B582B000AF78600B467B807B68002B08D07B681B78002B8F
S32D0001056004D07B68DB887A889A4201D0092311E07B685B78184602F0A9F9034603F00103002B14BF0123002359
S32D00010588DBB2002B01D0032300E0002318460837BD4680BD80B485B000AF03463960FB71FB79002B01D00B23B1
S32D000105B016E0FB790D4A52F82330FB60FB68002B02D0FB6800221A703B68002B02D03B6800221A70FB79054943
S32D000105D83A6841F82320002318461437BD4680BC704700BF4017002080B592B000AFF860B9601346FB71FB681F
S32D0001060000221A60FB7903F01F03FB71FB7923F00103DAB207F11C0107F108031846FFF7F9FC034687F8473083
S32D0001062807F110037B6397F84730002B09D1BA6807F11C0311461846FFF7E6FB034687F847303B6B3B6497F8D7
S32D000106504730002B05D13B6C002B02D1062387F84730FB7903F01C03002B00F0B18097F84730002B12D097F8CB
S32D000106784730042B07D107F11C031846FFF772FA034687F84730FB7943F00803FB713B6B3B6412E03B6C0B3385
S32D000106A01B7803F01103002B03D0072387F8473007E0FB7903F00403002B02D0082387F8473097F84730002BCF
S32D000106C840F0A080FB7903F00803002B00F09A800023FB633B6C0E33FA6BD2B21A70FB6B9BB21B0A9AB23B6C65
S32D000106F00F33D2B21A70FB6B1A0C3B6C1033D2B21A70FB6B1A0E3B6C1133D2B21A703B6C0B3300221A703B6C48
S32D000107181C3300221A703B6C1D3300221A703B6C1E3300221A703B6C1F3300221A703B6C15331B781B021AB260
S32D000107403B6C14331B781BB213431BB29BB21B043A6C1B321278120211B23A6C1A32127812B20A4312B292B2C4
S32D000107681343BB633B6C1A3300221A703B6C1B3300221A703B6C143300221A703B6C153300221A70FB690122F1
S32D000107901A71BB6B002B39D0FB691B6BFB63FB69B96B1846FEF72FFF034687F8473097F84730002B2AD1FB6935
S32D000107B8BA6B013ADA60FB69F96B1846FEF729FC034687F847301DE097F84730002B19D13B6C0B331B7803F076
S32D000107E01003002B03D0042387F847300EE0FB7903F00203002B09D03B6C0B331B7803F00103002B02D00723C8
S32D0001080887F8473097F84730002B0FD1FB7903F00803002B03D0FB7943F02003FB71FB691A6BFB68DA61FB682A
S32D000108303A6C1A6297F84730002B42D1FB68FA799A713B6C15331B781B021AB23B6C14331B781BB213431BB276
S32D000108589BB21B043A6C1B321278120211B23A6C1A32127812B20A4312B292B21A43FB681A613B6C1F331B7855
S32D000108801A063B6C1E331B781B0413433A6C1D321278120213433A6C1C3212781A43FB68DA60FB6800229A6049
S32D000108A8FB6800229A61FB6800225A62FA69FB681A60FB69DA88FB689A8097F8473018464837BD4680BD80B585
S32D000108D08AB000AFF860B9607A603B60BB68BB613B6800221A60FB681A68FB689B8819461046FFF729FE034626
S32D000108F8FB75FB7D002B01D0FB7D7EE1FB689B795BB2002B01DA022377E1FB689B7903F00203002B01D1072379
S32D000109206FE1FB68DA687B681A44FB68DB689A4201D200237B607B68002B00F05081FB689B68C3F30803002BFE
S32D0001094840F01381FB689B685B0ADAB2FB681B689B78013BDBB21340BB75BB7D002B49D1FB689B68002B10D131
S32D00010970FB681B697B627B6A002B1FD1FB681B6800211846FEF78DFE7862FB687A6A1A6114E0FB685B6A002BCC
S32D0001099807D0FB689B681946F868FEF707FF786208E0FB681A68FB685B6919461046FEF774FE78627B6A002B65
S32D000109C000F00C817B6A012B08D1FB689B7963F07F03DAB2FB689A71022312E17B6AB3F1FF3F08D1FB689B792C
S32D000109E863F07F03DAB2FB689A71012305E1FB687A6A5A61FB689B7903F04003002B22D0FB681B685878FB6822
S32D00010A1003F12801FB689A69012301F009FE0346002B14BF01230023DBB2002B08D0FB689B7963F07F03DAB222
S32D00010A38FB689A710123E0E0FB689B7923F04003DAB2FB689A71FB681A68FB685B6919461046FEF7E8FB386144
S32D00010A603B69002B08D1FB689B7963F07F03DAB2FB689A710223C4E0BB7D3A6913443B617B685B0AFB61FB69DA
S32D00010A88002B49D0BA7DFB691344FA6812689278934206D9FB681B689B781A46BB7DD31AFB61FB681B685878DF
S32D00010AB0FB69DBB23A69B96901F0BAFD0346002B14BF01230023DBB2002B08D0FB689B7963F07F03DAB2FB6860
S32D00010AD89A71012391E0FB689A693B69D31AFA699A4215D9FB6803F12800FB689A693B69D31A5B02BA691344DE
S32D00010B004FF400721946FEF703FAFB689B7923F04003DAB2FB689A71FB695B023B6248E0FB689B693A699A428D
S32D00010B2820D0FB689A68FB68DB689A420ED2FB681B685878FB6803F1280101233A6901F08FFC0346002B01D029
S32D00010B50012300E00023002B08D0FB689B7963F07F03DAB2FB689A7101234AE0FB683A699A61FB689B68C3F39B
S32D00010B780803C3F500733B623A6A7B689A4201D97B683B62FB689B68C3F308032833FA6813443A6AB96918465F
S32D00010BA0FEF7B6F9FB689B7943F04003DAB2FB689A71BA693B6A1344BB61FB689A683B6A1A44FB689A603B68F8
S32D00010BC81A683B6A1A443B681A607A683B6AD31A7B60ACE600BFFB689A68FB68DB689A4203D9FB689A68FB6831
S32D00010BF0DA60FB689B7943F02003DAB2FB689A71002318462837BD4680BD80B586B000AF78607B681A687B687B
S32D00010C189B8819461046FFF793FC0346FB75FB7D002B40F0AC807B689B7903F02003002B00F0A5807B689B7954
S32D00010C4003F04003002B1BD07B681B6858787B6803F128017B689A69012301F0E9FC0346002B14BF0123002395
S32D00010C68DBB2002B01D001238AE07B689B7923F04003DAB27B689A717B681A687B68DB6919461046FEF7C5F98B
S32D00010C900346FB75FB7D002B75D17B681B6A3B613B690B331A783B690B3342F02002D2B21A707B68DA683B690E
S32D00010CB81C33D2B21A707B68DB689BB21B0A9AB23B691D33D2B21A707B68DB681A0C3B691E33D2B21A707B6898
S32D00010CE0DB681A0E3B691F33D2B21A707B681A693B691A33D2B21A707B681B699BB21B0A9AB23B691B33D2B276
S32D00010D081A707B681B691A0C3B691433D2B21A707B681B691B0C9BB21B0A9AB23B691533D2B21A700023FB60E8
S32D00010D303B691633FA68D2B21A70FB689BB21B0A9AB23B691733D2B21A70FB681A0C3B691833D2B21A70FB6831
S32D00010D581A0E3B691933D2B21A707B689B7923F02003DAB27B689A717B681B6801221A717B681B681846FEF7D2
S32D00010D80B0F90346FB75FB7D18461837BD4680BD80B584B000AF78607868FFF736FF0346FB73FB7B002B02D157
S32D00010DA87B6800221A60FB7B18461037BD4680BD80B586B000AF03463960FB71FB793B7301237B6107F11003AD
S32D00010DD007F10C017A693868FFF779FD3B697A699A4201D1012301E04FF0FF3318461837BD4680BD80B584B0FF
S32D00010DF800AF786039600023FB607B681B78002B18D07B681B7839681846FFF7D1FF0346B3F1FF3F0CBF012350
S32D00010E200023DBB2002B02D04FF0FF3307E07B6801337B60FB680133FB60E2E7FB6818461037BD4680BD80B475
S32D00010E4885B000AF786039600123FB600023BB600023BB60BA683B689A4208DAFB687A6802FB03F3FB60BB68F2
S32D00010E700133BB60F2E7FB6818461437BD4680BC7047FFFFB0B59AB000AF78613961FA600023BB64BB6C7B64B8
S32D00010E987B6CB3F1FF3F00F0F5823B695A1C3A611B7887F84F3097F84F30002B00F0E78297F84F30252B0ED0E7
S32D00010EC097F84F3079691846FFF776FF78647B6CB3F1FF3F00F0CD8201237B64C9E2002387F867300023BB653C
S32D00010EE83B695A1C3A611B7887F84F3097F84F30302B09D1012387F867303B695A1C3A611B7887F84F300CE0E6
S32D00010F1097F84F302D2B08D1022387F867303B695A1C3A611B7887F84F3097F84F302E2B05D13B695A1C3A6100
S32D00010F381B7887F84F3097F84F302F2B15D997F84F30392B11D8BA6D13469B0013445B001A4697F84F301344B6
S32D00010F60303BBB653B695A1C3A611B7887F84F30E5E797F84F306C2B03D097F84F304C2B0BD197F8673043F093
S32D00010F88040387F867303B695A1C3A611B7887F84F3097F84F30002B00F0738297F84F3087F84E3097F84E30A1
S32D00010FB0602B08D997F84E307A2B04D897F84E30203B87F84E3097F84E30423B162B00F2788101A252F823F0FD
S32D00010FD8A31201008D120100B3120100C3120100DD100100C3120100C3120100C3120100C3120100C3120100DC
S32D00011000C3120100C3120100C3120100AB120100C3120100C3120100C312010035100100C3120100B31201001D
S32D00011028C3120100C3120100BB120100FB681A1DFA601B68FB620023FB65FA6AFB6D13441B78002B03D0FB6DAC
S32D000110500133FB65F5E70023BB6497F8673003F00203002B07D1FB6D5A1CFA65BA6D9A4201D9012300E000235D
S32D00011078002B09D079692020FFF79AFE78647B6CBA6C1344BB64E4E77969F86AFFF7AEFE78647B6CBA6C134445
S32D000110A0BB64FB6D5A1CFA65BA6D9A428CBF01230023DBB2002B09D079692020FFF77CFE78647B6CBA6C1344CD
S32D000110C8BB64EAE77B6CB3F1FF3F00F0D081BB6C7B64CCE1FB68073323F0070303F10802FA60D3E90023C7E9AB
S32D000110F00E23D7E90E23C7E90C2300237B654FF000024FF00003D7E90E010DF04BFE0346002B18D079692D20AA
S32D00011118FFF74EFE78647B6CBA6C1344BB64BC6BFB6B83F00045C7E90E453B6B3B607B6B83F000437B60D7E947
S32D000111400023C7E90C23D7E90C010DF053FE0346002B0ED04FF00002AB4BD7E90C010DF0D9FC02460B46C7E9F2
S32D000111680C237B6D01337B65E9E77B6D013BFB65FB6DB3F1FF3F35D0FB6D19460A20FFF75EFE034618460DF0A3
S32D000111902DFB02460B46D7E90E010DF0BBFC02460B46104619460DF025FE0346BB62BA6A964B83FB02139910D7
S32D000111B8D317C91A0B469B000B445B00D31ABB62BB6A3033BB62BB6ADBB279691846FFF7EFFD78647B6CBA6C39
S32D000111E01344BB64FB6D013BFB65C5E779692E20FFF7E2FD78647B6CBA6C1344BB64BB6D002B01D10323BB65EB
S32D0001120801233B663A6EBB6D9A4233D83B6E19460A20FFF714FE034618460DF0E3FAD7E90E230DF049FB024606
S32D000112300B46104619460DF0DDFD0346BB62BA6A724B83FB02139910D317C91A0B469B000B445B00D31ABB62C2
S32D00011258BB6A3033BB62BB6ADBB279691846FFF7A7FD78647B6CBA6C1344BB643B6E01333B66C7E77B6CB3F120
S32D00011280FF3F00F0FA80BB6C7B64F6E0FB681A1DFA601B68DBB279691846FFF78DFD7864ECE0022387F8663015
S32D000112A813E0082387F866300FE00A2387F866300BE0102387F8663007E097F84F3079691846FFF775FD786407
S32D000112D0D4E097F8673003F00403002B04D0FB681A1DFA601B680CE097F84E30442B04D1FB681A1DFA601B68F1
S32D000112F803E0FB681A1DFA601B683B6597F84E30442B0BD13B6D002B08DA3B6D5B423B6597F8673043F0080377
S32D0001132087F8673000233B6697F866203B6DB3FBF2F101FB02F29B1A87F84E3097F866303A6DB2FBF3F33B65D5
S32D0001134897F84E30092B0BD997F84F30782B01D1272200E0072297F84E30134487F84E303B6E5A1C3A6697F8CD
S32D000113704E203032D2B2603307F108010B4403F8502C3B6D002B03D03B6E0F2B00D8CBE797F8673003F0080369
S32D00011398002B09D03B6E5A1C3A66603307F1080213442D2203F8502C3B6EFB6597F8673003F00103002B01D08F
S32D000113C0302300E0202387F84E300023BB6497F8673003F00203002B07D1FB6D5A1CFA65BA6D9A4201D90123EA
S32D000113E800E00023002B0FD097F84E3079691846FFF7DEFC78647B6CBA6C1344BB64E2E7000024406766666687
S32D000114103B6E013B3B6607F118023B6E13441B7879691846FFF7C8FC78647B6CBA6C1344BB643B6E002B00D085
S32D00011438EAE7FB6D5A1CFA65BA6D9A428CBF01230023DBB2002B09D079692020FFF7B0FC78647B6CBA6C13444D
S32D00011460BB64EAE77B6CB3F1FF3F07D0BB6C7B6404E000BF02E000BF00E000BFBA6C7B6C1344BB6408E500BFB5
S32D0001148800E000BF7B6CB3F1FF3F01D17B6C00E0BB6C18466837BD46B0BD00BF80B588B000AF786039608023B1
S32D000114B03B610F23FB604FF0FF337B610223FB61FB69B3F5807F23D80123BB61BB69102B1AD8FB69BA6902FBFB
S32D000114D803F33A6803FB02F27B68D31ABB60BB68002B09DBBB687A699A4205D9BB687B61FB693B61BB69FB6000
S32D00011500BB690133BB61E1E7FB695B00FB61D7E71D4BDB6A1C4A23F00803D3621A4BDB6A23F47F2323F47F63E5
S32D00011528BB613B695B081B029AB2FB68013B1B01DBB21A43BB691343114A43F46023D3620F4B5B6A03F0080382
S32D00011550002B0CBF01230023DBB2002B03D00A2001F0DCFAF0E7084BDB6A074A43F00803D362054B1B6B044A5C
S32D0001157843F48013136300BF2037BD4680BD00BF00100B4080B582B000AF786039607B6800221A60414B424A76
S32D000115A0DA62404BDB6A03F08073002B14BF01230023DBB2002B00D0F3E73A4B0022C3F8C020384B4FF48132C8
S32D000115C85A60364B28229A62344B4FF001125A643B689B6833491846FFF760FF2F4B5B6A03F00303002B14BFD9
S32D000115F001230023DBB2002B00D0F3E72C4B40F243421A602A4B40F243425A60284B4FF488629A60264B40F258
S32D000116184342DA60244B40F243421A61224B40F243425A61214B03F580531B6B1F4A43F4003302F58052136395
S32D00011640184B4FF6FF721A63164B1B4A5A63154BDB6A144A43F00063D362124BDB6A03F00063002B14BF01237A
S32D000116680023DBB2002B00D0F3E70C4B5B6A03F48033002B14BF01230023DBB2002B02D07B6801221A60054B69
S32D000116901B6B044A43F080031363002318460837BD4680BD00100B400080000160CC050000D004400070044056
S32D000116B8B3007F0080B400AF064B5A6A40F207331340002B14BF01230023DBB21846BD4680BC704700100B4099
S32D000116E080B485B000AF7860074B1B6B7A681340FB60FB68002B00D1F6E7FB6818461437BD4680BC704700BF86
S32D0001170800100B4080B584B000AF78607B681B7803F03F03764A52F82330FB60FB68002B05D17B681B78002BFF
S32D0001173001D00123DCE0714B1B6B704A43F0800313636E4B5B6A03F00103002B14BF01230023DBB2002B00D06F
S32D00011758F3E7684A7B685B689360FB6823F44003FB607B685B789B0503F44003FA681343FB607B685B78022B9F
S32D0001178003D1FB6843F40013FB607B685B78042B16D1FB6803F44033B3F5003F08D1FB6823F44033FB60FB685A
S32D000117A843F44033FB6007E0FB6823F44033FB60FB6843F40033FB604E4B5B684D4A9BB253607B68DB68002B72
S32D000117D02AD0FB6803F44033B3F5403F03D0FB6843F40013FB607B681B7A002B03D0FB6843F01003FB607B68C4
S32D000117F8DB68012B03D9FB6843F02003FB607B68DB68B3F1FF3F0BD03A4B5A687B68DB681B04384913434B6072
S32D00011820FB6843F00203FB60344B00221A60334AFB68D3603248FFF753FF0346012B14BF01230023DBB2002B6C
S32D0001184809D02C4B1B6B2B4A43F4702343F001031363012348E0274B1B6B03F08003002B14BF01230023DBB223
S32D00011870002B07D0214B1B6B204A43F001131363012335E01D4B1B6B03F48033002B14BF01230023DBB2002B60
S32D0001189808D0184B1B6B174A43F0011313634FF0FF3321E0FB6803F44033002B15D0114B1A697B681A61FB6853
S32D000118C003F44033B3F5803F0BD10C4B5A697B685A610A4B9A697B689A61084BDA697B68DA61064B1B6B054A84
S32D000118E843F001031363002318461037BD4680BD2873020000100B4001000E0080B592B000AF7860396000235B
S32D000119107B643B68BB63994B7B637B6B002B02D140F601235FE3964B3B633B6B002B02D140F60B2357E33B6B5F
S32D000119381B68FB62FB6A002B02D140F60B234EE37B6841F20932934200F23F837B68B3F5985F08D87B68032B5B
S32D0001196000F01A837B68092B00F0098331E37B68A3F59853013B082B00F22B8301A252F823F000BFA91901002D
S32D00011988951C0100F11E0100AB1C0100E91C01000F1E0100571E0100991D0100B31D01007649786BFFF7EEFDF1
S32D000119B078647B6C002B40F01083002387F84330002387F82B30002387F82A30002387F82930002387F842303A
S32D000119D8002387F8283000233B7200237B720023FB6000233B7400237B6107F108031846FFF788FE0346002B66
S32D00011A0014BF01230023DBB2002B02D001237B64E8E240F24C4001F081F808233B7200237B724FF4D573FB6050
S32D00011A2800233B7400237B6107F108031846FFF769FEF863FB6B002B09D1BA69FB689A4202D001237B64C9E258
S32D00011A50012387F84230012387F8283097F82830002B00F0A58037233B7200237B720023FB6000233B740023A6
S32D00011A787B6107F108031846FFF744FEF863FB6B002B02D001237B64A8E269233B7200237B720023FB60002395
S32D00011AA03B7400237B6107F108031846FFF72EFE0346002B14BF01230023DBB2002B02D001237B648EE2BB6937
S32D00011AC803F44013002B6FD00023FB630A2001F021F8FB6B0133FB6337233B7200237B720023FB6000233B7427
S32D00011AF000237B6107F108031846FFF707FE0346002B14BF01230023DBB2002B02D001237B6428E069233B7210
S32D00011B1800237B7297F84230002B02D0184BFB6002E04FF44013FB6000233B7400237B6107F108031846FFF7D7
S32D00011B40E5FD0346002B14BF01230023DBB2002B02D001237B6406E0BB69002B03DBFB6B632B00D8B6E77B6C16
S32D00011B68002B40F03882FB6B632B0BD9002387F8423019E060170020641900201C73020000003040012387F87C
S32D00011B90433097F84230002B0AD0002387F84230BB6903F08043002B02D0012387F8423097F82A30002B02D0C7
S32D00011BB87B6B07221A6097F82930002B02D07B6B08221A6097F82B30002B02D07B6B04221A6097F84330002B6C
S32D00011BE009D07B6B02221A6097F84230002B02D07B6B03221A6097F82B30002B0DD097F84330002B09D07B6B18
S32D00011C0805221A6097F84230002B02D07B6B06221A60924B00221A60904B00225A608F4B00229A608D4B002266
S32D00011C30DA608C4B00221A618A4B00225A61FB6A9A68FB6A5B6819461046FFF72BFC854B40F243421A60834BF5
S32D00011C5840F243425A60814B4FF488629A607F4B40F24342DA607D4B40F243421A617B4B40F243425A617A4B47
S32D00011C8003F580531B6B784A43F4003302F580521363A7E1B86BFFF739FDF863FB6B002B00F09F8102237B64A2
S32D00011CA89BE1BB6B002B02D10C237B6496E16D4BDB6A1B0A5B0003F4FF73FB63694BDB6A1B0903F00F035A1C0C
S32D00011CD0FB6B02FB03F3FB63FB6A9A68FB6BB2FBF3F2BB6B1A607DE1BB6B002B02D10C237B6477E1BB6B1B689E
S32D00011CF8002B02D10C237B6470E1FFF7DBFC0346002B0CBF01230023DBB2002B3CD0534B00221A60514B002251
S32D00011D205A60504B00229A604E4B0022DA604D4B00221A614B4B00225A61FB6A9A68BB6B1B6819461046FFF7CB
S32D00011D48ADFB464B40F243421A60444B40F243425A60424B4FF488629A60404B40F24342DA603E4B40F2434292
S32D00011D701A613C4B40F243425A613B4B03F580531B6B394A43F4003302F58052136329E140F60A237B6425E17B
S32D00011D98BB6B002B02D10C237B641FE1314B5B68C3F30C02BB6B1A6018E1BB6B002B02D10C237B6412E1FFF733
S32D00011DC07DFC0346002B0CBF01230023DBB2002B19D0BB6B1B68B3F5805F02D30C237B6400E1224B5B68214AC5
S32D00011DE823F4FF5323F01F0353601E4B5A68BB6B1B68C3F30C031B4913434B60EEE040F60A237B64EAE0BB6B7D
S32D00011E10002B02D10C237B64E4E0144B9B6A5B0803F00303FB63FB6B002B03D1BB6B00221A60D7E0FB6B012B45
S32D00011E3803D1BB6B01221A60D0E0FB6B102B03D1BB6B02221A60C9E005237B64C6E0BB6B002B09D10C237B646C
S32D00011E60C0E000BF00D004400070044000100B40FFF724FC0346002B0CBF01230023DBB2002B31D0BB6B1B68D3
S32D00011E88002B0AD1584B9B6A574A23F006039362554B554A9B6A9362A0E0BB6B1B68012B0CD1514B9B6A504A25
S32D00011EB023F0060393624E4B9B6A4D4A43F0020393628FE0BB6B1B68022B0AD1484B9B6A474A23F00603936236
S32D00011ED8454B454A9B6A936280E005237B647DE040F60A237B6479E0BB6B002B02D10C237B6473E03C4BDB6A12
S32D00011F003B4A43F00063D362394BDB6A03F00063002B14BF01230023DBB2002B00D0F3E7334B1B6B03F0800322
S32D00011F28002B14BF01230023DBB2002B08D02E4B1B6B2D4A43F0800313637B6B00221A60294B5B6A03F48033AE
S32D00011F50002B14BF01230023DBB2002B07D07B6B1B68002B06D17B6B01221A6002E07B6B00221A607B6B1A68D4
S32D00011F78BB6B1A6032E0BB6B1C221A60BB6B043304221A60BB6B08334FF41E721A6025E00220FFF7A1FB144BE7
S32D00011FA01B6B03F4E003002B14BF01230023DBB2002B07D00E4B1B6B0D4A43F4E003136304237B640A4B1B6B37
S32D00011FC8094A43F03203136308E040F609237B6404E000BF02E000BF00E000BF7B6C18464837BD4680BD00BFEA
S32D00011FF000100B4080B590B000AF0346FB71A64BFB63A64BBB63BB6BA54A1A60FB79002B01D00123A9E1A34B95
S32D000120181B78DBB203F00203002B14BF01230023DBB2002B03D09D4B1B78DBB299E19B4B1B78DBB203F0030330
S32D00012040002B0CBF01230023DBB2002B01D000238BE1BB6B002B03D0BB6B1B68002B01D1002382E1FB6B904A8C
S32D000120681A60FB6B01225A60BB6B00225A60BB6B00229A60BB6B00221A61BB6B00221A73BB6B00225A73874BC9
S32D0001209003F580531B6B854A43F4003302F580521363002141F20130FFF72CFC0346002B14BF01230023DBB29A
S32D000120B8002B01D0002354E10023BB6207F12803194641F20330FFF719FC0346002B14BF01230023DBB2002B2C
S32D000120E001D0002341E1BB6A022B08D0BB6A032B05D0BB6A052B02D0BB6A062B09D1BB6A032B02D0BB6A062B97
S32D0001210805D1BB6B01221A7301E0002329E100BF02233B7200237B720023FB6000233B7400237B6107F10803FB
S32D00012130194641F20230FFF7E5FB0346002B14BF01230023DBB2002B01D000230DE103233B7200237B720023B8
S32D00012158FB6000233B7400237B6107F10803194641F20230FFF7CAFB0346002B14BF01230023DBB2002B01D093
S32D000121800023F2E0BB691B0C1B04BA6B136109233B7200237B72BB6B1B69FB6000233B7400237B6107F1080376
S32D000121A8194641F20230FFF7A9FB0346002B14BF01230023DBB2002B01D00023D1E07B6A03F44003002B1ED186
S32D000121D03B6A1B0A03F00F033B633B6A03F003037B637B6B9A02FB699B0D13437B63FB69DB0903F00703FB6293
S32D000121F87B6B5A1CFB6A02339A403B6B093B9A40BB6B9A600CE0BB6B01225A73FB691B0AC3F315037B637B6BE7
S32D0001222001339A02BB6B9A6007233B7200237B72BB6B1B69FB6000233B7400237B6107F10803194641F202301B
S32D00012248FFF75CFB0346002B14BF01230023DBB2002B01D0002384E010233B7200237B724FF40073FB60002358
S32D000122703B7400237B6107F10803194641F20230FFF740FB0346002B14BF01230023DBB2002B0DD0002368E00B
S32D0001229864190020481700205C170020080000201C73020000700440BB6B1B681B68012B49D137233B7200235F
S32D000122C07B72BB6B1B69FB6000233B7400237B6107F10803194641F20230FFF713FB0346002B14BF01230023D3
S32D000122E8DBB2002B01D000233BE046233B7200237B720223FB6000233B7400237B6107F10803194641F20230C2
S32D00012310FFF7F8FA0346002B14BF01230023DBB2002B01D0002320E00123BB6207F12803194641F20730FFF759
S32D00012338E5FA0346002B14BF01230023DBB2002B01D000230DE0094B1B78DBB223F00103DAB2064B1A70054B2E
S32D000123601B78DBB203F00303DBB218464037BD4680BD00BF0800002080B489B000AF786039607B687B61364BDF
S32D000123883B613B69002B01D100235FE03B691B68022B0BD03B691B68032B07D03B691B68072B03D03B691B68D9
S32D000123B0082B0BD12B4B5B6A03F00403002B14BF01230023DBB2002B00D0F3E73B68FB61FB69002B3DD0FB6914
S32D000123D8B3F5007F28BF4FF40073FB60FB6803339B08BB61BB69002B2AD01C4B1B6B03F4E003002B14BF01232D
S32D000124000023DBB2002B09D0164B1B6B154A43F4E00343F02003136300231BE0114B5B6A03F40063002B0CBF3E
S32D0001242801230023DBB2002B00D0F3E70B497B691A1D7A610A6A1A60BB69013BBB61D1E7FA69FB68D31AFB6161
S32D00012450BEE7012318462437BD4680BC704700BF6017002000100B4080B58EB000AFB9607A601A460346FB7308
S32D000124781346BB73414B7B63FB7B002B02D1BB7B002B01D1042375E03D4B1B78DBB203F00103002B14BF012360
S32D000124A00023DBB2002B01D0032367E0BB68002B01D1002362E07B6B1B7B002B02D17B685B027B60BB7B012B78
S32D000124C828D111233B7500237B757B68BB6101233B77BB7B3B6207F11403194641F20230FFF70CFA0346002B0A
S32D000124F00CBF01230023DBB2002B38D04FF40071B868FFF739FF0346002B14BF01230023DBB2002B2BD0002385
S32D00012518BB7328E012233B7500237B757B68BB6101233B77BB7B3B6207F11403194641F20230FFF7E3F90346D0
S32D00012540002B0CBF01230023DBB2002B0FD0BB7B5B021946B868FFF70FFF0346002B14BF01230023DBB2002B3C
S32D0001256801D00023BB73BB7B002B01D0012300E0002300BF18463837BD4680BD481700200800002080B487B0EB
S32D0001259000AF786039607B68FB603B687B617B69002B3DD07B69B3F5007F28BF4FF400733B617A693B69D31A6B
S32D000125B87B613B6903339B083B613B69002BEAD0184B1B6B03F4E003002B14BF01230023DBB2002B0AD0134B7E
S32D000125E01B6B124A43F4E00343F0100313634FF0FF3316E00D4B5B6A03F48063002B0CBF01230023DBB2002BC1
S32D0001260800D0F3E7FB681A1DFA60064A1B6813623B69013B3B61D0E7012318461C37BD4680BC704700100B4064
S32D0001263080B58EB000AFB9607A601A460346FB731346BB735D4B7B63FB7B002B02D1BB7B002B01D10423ADE0E7
S32D00012658594B1B78DBB203F00103002B14BF01230023DBB2002B01D003239FE0524B1B78DBB203F00403002B43
S32D0001268014BF01230023DBB2002B01D0022391E0BB68002B01D100238CE07B6B1B7B002B02D17B685B027B60AE
S32D000126A8BB7B012B28D118233B7500237B757B68BB6100233B77BB7B3B6207F11403194641F20230FFF71AF927
S32D000126D00346002B0CBF01230023DBB2002B38D04FF40071B868FFF751FF0346002B14BF01230023DBB2002B35
S32D000126F82BD00023BB7328E019233B7500237B757B68BB6100233B77BB7B3B6207F11403194641F20230FFF7F0
S32D00012720F1F80346002B0CBF01230023DBB2002B0FD0BB7B5B021946B868FFF727FF0346002B14BF01230023C8
S32D00012748DBB2002B01D00023BB730D233B7500237B757B6B1B69BB6100233B7700233B6207F11403194641F2D9
S32D000127700230FFF7C7F80346002B14BF01230023DBB2002B01D0012314E07A6A0D4B1340002B01D001230DE088
S32D000127987B6A03F4F853B3F5106F00D0D5E7BB7B002B01D0012300E0002300BF18463837BD4680BD4817002094
S32D000127C0080000200880D9FF80B58CB000AF03463A60FB710B46BB713A4BBB62FB79002B01D0042369E00123D0
S32D000127E887F82F30364B1B78DBB203F00103002B14BF01230023DBB2002B01D0032358E0BB79032B50D801A2F3
S32D0001281052F823F0252801002D2801003D2801004D280100002387F82F3044E0BB6A9A683B681A60002387F8B1
S32D000128382F303CE03B684FF400721A80002387F82F3034E009233B7200237B72BB6A1B69FB6000233B7400230D
S32D000128607B6107F10803194641F20230FFF74AF80346002B14BF01230023DBB2002B01D001231AE07B6A03F45D
S32D000128884003002B0CD13B6A9B0C03F07F035A1C7B6A1B0A03F00303013B9A403B681A60002387F82F3002E086
S32D000128B0042387F82F3097F82F3018463037BD4680BD00BF481700200800002080B483B000AF0346FB71FB795C
S32D000128D8002B01D0012302E0034B1B78DBB218460C37BD4680BC70470800002080B483B000AF7860164B03F55B
S32D0001290080539B6B144A43F0010302F580529363124A7B689360114B05225A600F4B1B680E4A43F0010313602D
